{
  "_format": "hh-sol-artifact-1",
  "contractName": "CineSceneContest",
  "sourceName": "contracts/CineSceneContest.sol",
  "abi": [
    {
      "inputs": [
        {
          "internalType": "address",
          "name": "_usdc",
          "type": "address"
        }
      ],
      "stateMutability": "nonpayable",
      "type": "constructor"
    },
    {
      "inputs": [
        {
          "internalType": "address",
          "name": "owner",
          "type": "address"
        }
      ],
      "name": "OwnableInvalidOwner",
      "type": "error"
    },
    {
      "inputs": [
        {
          "internalType": "address",
          "name": "account",
          "type": "address"
        }
      ],
      "name": "OwnableUnauthorizedAccount",
      "type": "error"
    },
    {
      "inputs": [],
      "name": "ReentrancyGuardReentrantCall",
      "type": "error"
    },
    {
      "inputs": [
        {
          "internalType": "address",
          "name": "token",
          "type": "address"
        }
      ],
      "name": "SafeERC20FailedOperation",
      "type": "error"
    },
    {
      "anonymous": false,
      "inputs": [
        {
          "indexed": true,
          "internalType": "uint256",
          "name": "contestId",
          "type": "uint256"
        },
        {
          "indexed": false,
          "internalType": "string",
          "name": "theme",
          "type": "string"
        },
        {
          "indexed": false,
          "internalType": "string",
          "name": "language",
          "type": "string"
        },
        {
          "indexed": false,
          "internalType": "uint256",
          "name": "minStake",
          "type": "uint256"
        },
        {
          "indexed": false,
          "internalType": "uint256",
          "name": "endTime",
          "type": "uint256"
        }
      ],
      "name": "ContestCreated",
      "type": "event"
    },
    {
      "anonymous": false,
      "inputs": [
        {
          "indexed": true,
          "internalType": "uint256",
          "name": "contestId",
          "type": "uint256"
        },
        {
          "indexed": false,
          "internalType": "uint256[]",
          "name": "winnerEntryIds",
          "type": "uint256[]"
        }
      ],
      "name": "ContestFinalized",
      "type": "event"
    },
    {
      "anonymous": false,
      "inputs": [
        {
          "indexed": true,
          "internalType": "uint256",
          "name": "contestId",
          "type": "uint256"
        },
        {
          "indexed": true,
          "internalType": "uint256",
          "name": "entryId",
          "type": "uint256"
        },
        {
          "indexed": true,
          "internalType": "address",
          "name": "user",
          "type": "address"
        },
        {
          "indexed": false,
          "internalType": "uint256",
          "name": "stakeAmount",
          "type": "uint256"
        }
      ],
      "name": "EntrySubmitted",
      "type": "event"
    },
    {
      "anonymous": false,
      "inputs": [
        {
          "indexed": true,
          "internalType": "uint256",
          "name": "contestId",
          "type": "uint256"
        },
        {
          "indexed": false,
          "internalType": "uint256",
          "name": "timestamp",
          "type": "uint256"
        }
      ],
      "name": "JudgingShowStarted",
      "type": "event"
    },
    {
      "anonymous": false,
      "inputs": [
        {
          "indexed": true,
          "internalType": "address",
          "name": "previousOwner",
          "type": "address"
        },
        {
          "indexed": true,
          "internalType": "address",
          "name": "newOwner",
          "type": "address"
        }
      ],
      "name": "OwnershipTransferred",
      "type": "event"
    },
    {
      "anonymous": false,
      "inputs": [
        {
          "indexed": true,
          "internalType": "uint256",
          "name": "contestId",
          "type": "uint256"
        },
        {
          "indexed": false,
          "internalType": "uint256",
          "name": "amount",
          "type": "uint256"
        }
      ],
      "name": "PlatformFeesWithdrawn",
      "type": "event"
    },
    {
      "anonymous": false,
      "inputs": [
        {
          "indexed": true,
          "internalType": "uint256",
          "name": "contestId",
          "type": "uint256"
        },
        {
          "indexed": true,
          "internalType": "uint256",
          "name": "entryId",
          "type": "uint256"
        },
        {
          "indexed": true,
          "internalType": "address",
          "name": "user",
          "type": "address"
        },
        {
          "indexed": false,
          "internalType": "uint256",
          "name": "amount",
          "type": "uint256"
        }
      ],
      "name": "PrizeClaimed",
      "type": "event"
    },
    {
      "anonymous": false,
      "inputs": [
        {
          "indexed": true,
          "internalType": "uint256",
          "name": "contestId",
          "type": "uint256"
        },
        {
          "indexed": false,
          "internalType": "uint256",
          "name": "entryId",
          "type": "uint256"
        },
        {
          "indexed": false,
          "internalType": "uint256",
          "name": "score",
          "type": "uint256"
        }
      ],
      "name": "ScoresSubmitted",
      "type": "event"
    },
    {
      "inputs": [],
      "name": "BPS_DENOMINATOR",
      "outputs": [
        {
          "internalType": "uint256",
          "name": "",
          "type": "uint256"
        }
      ],
      "stateMutability": "view",
      "type": "function"
    },
    {
      "inputs": [],
      "name": "DEFAULT_MIN_STAKE",
      "outputs": [
        {
          "internalType": "uint256",
          "name": "",
          "type": "uint256"
        }
      ],
      "stateMutability": "view",
      "type": "function"
    },
    {
      "inputs": [],
      "name": "FIRST_PLACE_BPS",
      "outputs": [
        {
          "internalType": "uint256",
          "name": "",
          "type": "uint256"
        }
      ],
      "stateMutability": "view",
      "type": "function"
    },
    {
      "inputs": [],
      "name": "JUDGING_DELAY",
      "outputs": [
        {
          "internalType": "uint256",
          "name": "",
          "type": "uint256"
        }
      ],
      "stateMutability": "view",
      "type": "function"
    },
    {
      "inputs": [],
      "name": "PLATFORM_FEE_BPS",
      "outputs": [
        {
          "internalType": "uint256",
          "name": "",
          "type": "uint256"
        }
      ],
      "stateMutability": "view",
      "type": "function"
    },
    {
      "inputs": [],
      "name": "SECOND_PLACE_BPS",
      "outputs": [
        {
          "internalType": "uint256",
          "name": "",
          "type": "uint256"
        }
      ],
      "stateMutability": "view",
      "type": "function"
    },
    {
      "inputs": [],
      "name": "THIRD_PLACE_BPS",
      "outputs": [
        {
          "internalType": "uint256",
          "name": "",
          "type": "uint256"
        }
      ],
      "stateMutability": "view",
      "type": "function"
    },
    {
      "inputs": [
        {
          "internalType": "uint256",
          "name": "contestId",
          "type": "uint256"
        }
      ],
      "name": "canStartJudging",
      "outputs": [
        {
          "internalType": "bool",
          "name": "",
          "type": "bool"
        }
      ],
      "stateMutability": "view",
      "type": "function"
    },
    {
      "inputs": [
        {
          "internalType": "uint256",
          "name": "contestId",
          "type": "uint256"
        }
      ],
      "name": "claimPrize",
      "outputs": [],
      "stateMutability": "nonpayable",
      "type": "function"
    },
    {
      "inputs": [],
      "name": "contestCount",
      "outputs": [
        {
          "internalType": "uint256",
          "name": "",
          "type": "uint256"
        }
      ],
      "stateMutability": "view",
      "type": "function"
    },
    {
      "inputs": [
        {
          "internalType": "uint256",
          "name": "",
          "type": "uint256"
        }
      ],
      "name": "contestEntryCount",
      "outputs": [
        {
          "internalType": "uint256",
          "name": "",
          "type": "uint256"
        }
      ],
      "stateMutability": "view",
      "type": "function"
    },
    {
      "inputs": [
        {
          "internalType": "uint256",
          "name": "",
          "type": "uint256"
        },
        {
          "internalType": "uint256",
          "name": "",
          "type": "uint256"
        }
      ],
      "name": "contestWinners",
      "outputs": [
        {
          "internalType": "uint256",
          "name": "",
          "type": "uint256"
        }
      ],
      "stateMutability": "view",
      "type": "function"
    },
    {
      "inputs": [
        {
          "internalType": "uint256",
          "name": "",
          "type": "uint256"
        }
      ],
      "name": "contests",
      "outputs": [
        {
          "internalType": "uint256",
          "name": "id",
          "type": "uint256"
        },
        {
          "internalType": "string",
          "name": "theme",
          "type": "string"
        },
        {
          "internalType": "string",
          "name": "language",
          "type": "string"
        },
        {
          "internalType": "uint256",
          "name": "minStake",
          "type": "uint256"
        },
        {
          "internalType": "uint256",
          "name": "prizePool",
          "type": "uint256"
        },
        {
          "internalType": "uint256",
          "name": "winnersPool",
          "type": "uint256"
        },
        {
          "internalType": "uint256",
          "name": "platformFees",
          "type": "uint256"
        },
        {
          "internalType": "uint256",
          "name": "startTime",
          "type": "uint256"
        },
        {
          "internalType": "uint256",
          "name": "endTime",
          "type": "uint256"
        },
        {
          "internalType": "uint256",
          "name": "judgingStartTime",
          "type": "uint256"
        },
        {
          "internalType": "bool",
          "name": "finalized",
          "type": "bool"
        },
        {
          "internalType": "bool",
          "name": "feesWithdrawn",
          "type": "bool"
        },
        {
          "internalType": "uint256",
          "name": "entryCount",
          "type": "uint256"
        }
      ],
      "stateMutability": "view",
      "type": "function"
    },
    {
      "inputs": [
        {
          "internalType": "string",
          "name": "theme",
          "type": "string"
        },
        {
          "internalType": "string",
          "name": "language",
          "type": "string"
        },
        {
          "internalType": "uint256",
          "name": "minStake",
          "type": "uint256"
        },
        {
          "internalType": "uint256",
          "name": "duration",
          "type": "uint256"
        }
      ],
      "name": "createContest",
      "outputs": [
        {
          "internalType": "uint256",
          "name": "contestId",
          "type": "uint256"
        }
      ],
      "stateMutability": "nonpayable",
      "type": "function"
    },
    {
      "inputs": [
        {
          "internalType": "uint256",
          "name": "",
          "type": "uint256"
        },
        {
          "internalType": "uint256",
          "name": "",
          "type": "uint256"
        }
      ],
      "name": "entries",
      "outputs": [
        {
          "internalType": "address",
          "name": "user",
          "type": "address"
        },
        {
          "internalType": "uint256",
          "name": "contestId",
          "type": "uint256"
        },
        {
          "internalType": "string",
          "name": "movieTitle",
          "type": "string"
        },
        {
          "internalType": "string",
          "name": "promptHash",
          "type": "string"
        },
        {
          "internalType": "string",
          "name": "videoHash",
          "type": "string"
        },
        {
          "internalType": "uint256",
          "name": "stakeAmount",
          "type": "uint256"
        },
        {
          "internalType": "uint256",
          "name": "score",
          "type": "uint256"
        },
        {
          "internalType": "uint256",
          "name": "timestamp",
          "type": "uint256"
        },
        {
          "internalType": "bool",
          "name": "claimed",
          "type": "bool"
        }
      ],
      "stateMutability": "view",
      "type": "function"
    },
    {
      "inputs": [
        {
          "internalType": "uint256",
          "name": "contestId",
          "type": "uint256"
        }
      ],
      "name": "finalizeContest",
      "outputs": [],
      "stateMutability": "nonpayable",
      "type": "function"
    },
    {
      "inputs": [
        {
          "internalType": "uint256",
          "name": "contestId",
          "type": "uint256"
        }
      ],
      "name": "getContest",
      "outputs": [
        {
          "components": [
            {
              "internalType": "uint256",
              "name": "id",
              "type": "uint256"
            },
            {
              "internalType": "string",
              "name": "theme",
              "type": "string"
            },
            {
              "internalType": "string",
              "name": "language",
              "type": "string"
            },
            {
              "internalType": "uint256",
              "name": "minStake",
              "type": "uint256"
            },
            {
              "internalType": "uint256",
              "name": "prizePool",
              "type": "uint256"
            },
            {
              "internalType": "uint256",
              "name": "winnersPool",
              "type": "uint256"
            },
            {
              "internalType": "uint256",
              "name": "platformFees",
              "type": "uint256"
            },
            {
              "internalType": "uint256",
              "name": "startTime",
              "type": "uint256"
            },
            {
              "internalType": "uint256",
              "name": "endTime",
              "type": "uint256"
            },
            {
              "internalType": "uint256",
              "name": "judgingStartTime",
              "type": "uint256"
            },
            {
              "internalType": "bool",
              "name": "finalized",
              "type": "bool"
            },
            {
              "internalType": "bool",
              "name": "feesWithdrawn",
              "type": "bool"
            },
            {
              "internalType": "uint256",
              "name": "entryCount",
              "type": "uint256"
            }
          ],
          "internalType": "struct CineSceneContest.Contest",
          "name": "",
          "type": "tuple"
        }
      ],
      "stateMutability": "view",
      "type": "function"
    },
    {
      "inputs": [
        {
          "internalType": "uint256",
          "name": "contestId",
          "type": "uint256"
        }
      ],
      "name": "getContestStatus",
      "outputs": [
        {
          "internalType": "string",
          "name": "",
          "type": "string"
        }
      ],
      "stateMutability": "view",
      "type": "function"
    },
    {
      "inputs": [
        {
          "internalType": "uint256",
          "name": "contestId",
          "type": "uint256"
        },
        {
          "internalType": "uint256",
          "name": "entryId",
          "type": "uint256"
        }
      ],
      "name": "getEntry",
      "outputs": [
        {
          "components": [
            {
              "internalType": "address",
              "name": "user",
              "type": "address"
            },
            {
              "internalType": "uint256",
              "name": "contestId",
              "type": "uint256"
            },
            {
              "internalType": "string",
              "name": "movieTitle",
              "type": "string"
            },
            {
              "internalType": "string",
              "name": "promptHash",
              "type": "string"
            },
            {
              "internalType": "string",
              "name": "videoHash",
              "type": "string"
            },
            {
              "internalType": "uint256",
              "name": "stakeAmount",
              "type": "uint256"
            },
            {
              "internalType": "uint256",
              "name": "score",
              "type": "uint256"
            },
            {
              "internalType": "uint256",
              "name": "timestamp",
              "type": "uint256"
            },
            {
              "internalType": "bool",
              "name": "claimed",
              "type": "bool"
            }
          ],
          "internalType": "struct CineSceneContest.Entry",
          "name": "",
          "type": "tuple"
        }
      ],
      "stateMutability": "view",
      "type": "function"
    },
    {
      "inputs": [
        {
          "internalType": "uint256",
          "name": "contestId",
          "type": "uint256"
        },
        {
          "internalType": "uint256",
          "name": "entryId",
          "type": "uint256"
        }
      ],
      "name": "getEstimatedPrize",
      "outputs": [
        {
          "internalType": "uint256",
          "name": "",
          "type": "uint256"
        }
      ],
      "stateMutability": "view",
      "type": "function"
    },
    {
      "inputs": [
        {
          "internalType": "address",
          "name": "user",
          "type": "address"
        },
        {
          "internalType": "uint256",
          "name": "contestId",
          "type": "uint256"
        }
      ],
      "name": "getUserEntry",
      "outputs": [
        {
          "components": [
            {
              "internalType": "address",
              "name": "user",
              "type": "address"
            },
            {
              "internalType": "uint256",
              "name": "contestId",
              "type": "uint256"
            },
            {
              "internalType": "string",
              "name": "movieTitle",
              "type": "string"
            },
            {
              "internalType": "string",
              "name": "promptHash",
              "type": "string"
            },
            {
              "internalType": "string",
              "name": "videoHash",
              "type": "string"
            },
            {
              "internalType": "uint256",
              "name": "stakeAmount",
              "type": "uint256"
            },
            {
              "internalType": "uint256",
              "name": "score",
              "type": "uint256"
            },
            {
              "internalType": "uint256",
              "name": "timestamp",
              "type": "uint256"
            },
            {
              "internalType": "bool",
              "name": "claimed",
              "type": "bool"
            }
          ],
          "internalType": "struct CineSceneContest.Entry",
          "name": "",
          "type": "tuple"
        }
      ],
      "stateMutability": "view",
      "type": "function"
    },
    {
      "inputs": [
        {
          "internalType": "uint256",
          "name": "contestId",
          "type": "uint256"
        }
      ],
      "name": "getWinners",
      "outputs": [
        {
          "internalType": "uint256[]",
          "name": "",
          "type": "uint256[]"
        }
      ],
      "stateMutability": "view",
      "type": "function"
    },
    {
      "inputs": [
        {
          "internalType": "uint256",
          "name": "contestId",
          "type": "uint256"
        }
      ],
      "name": "isContestActive",
      "outputs": [
        {
          "internalType": "bool",
          "name": "",
          "type": "bool"
        }
      ],
      "stateMutability": "view",
      "type": "function"
    },
    {
      "inputs": [],
      "name": "owner",
      "outputs": [
        {
          "internalType": "address",
          "name": "",
          "type": "address"
        }
      ],
      "stateMutability": "view",
      "type": "function"
    },
    {
      "inputs": [],
      "name": "renounceOwnership",
      "outputs": [],
      "stateMutability": "nonpayable",
      "type": "function"
    },
    {
      "inputs": [
        {
          "internalType": "uint256",
          "name": "contestId",
          "type": "uint256"
        },
        {
          "internalType": "string",
          "name": "movieTitle",
          "type": "string"
        },
        {
          "internalType": "string",
          "name": "promptHash",
          "type": "string"
        },
        {
          "internalType": "uint256",
          "name": "stakeAmount",
          "type": "uint256"
        }
      ],
      "name": "submitEntry",
      "outputs": [
        {
          "internalType": "uint256",
          "name": "entryId",
          "type": "uint256"
        }
      ],
      "stateMutability": "nonpayable",
      "type": "function"
    },
    {
      "inputs": [
        {
          "internalType": "uint256",
          "name": "contestId",
          "type": "uint256"
        },
        {
          "internalType": "uint256[]",
          "name": "entryIds",
          "type": "uint256[]"
        },
        {
          "internalType": "uint256[]",
          "name": "scores",
          "type": "uint256[]"
        }
      ],
      "name": "submitScores",
      "outputs": [],
      "stateMutability": "nonpayable",
      "type": "function"
    },
    {
      "inputs": [
        {
          "internalType": "uint256",
          "name": "contestId",
          "type": "uint256"
        }
      ],
      "name": "timeUntilJudging",
      "outputs": [
        {
          "internalType": "uint256",
          "name": "",
          "type": "uint256"
        }
      ],
      "stateMutability": "view",
      "type": "function"
    },
    {
      "inputs": [
        {
          "internalType": "address",
          "name": "newOwner",
          "type": "address"
        }
      ],
      "name": "transferOwnership",
      "outputs": [],
      "stateMutability": "nonpayable",
      "type": "function"
    },
    {
      "inputs": [
        {
          "internalType": "uint256",
          "name": "contestId",
          "type": "uint256"
        },
        {
          "internalType": "string",
          "name": "videoHash",
          "type": "string"
        }
      ],
      "name": "updateVideoHash",
      "outputs": [],
      "stateMutability": "nonpayable",
      "type": "function"
    },
    {
      "inputs": [],
      "name": "usdc",
      "outputs": [
        {
          "internalType": "contract IERC20",
          "name": "",
          "type": "address"
        }
      ],
      "stateMutability": "view",
      "type": "function"
    },
    {
      "inputs": [
        {
          "internalType": "address",
          "name": "",
          "type": "address"
        },
        {
          "internalType": "uint256",
          "name": "",
          "type": "uint256"
        }
      ],
      "name": "userEntries",
      "outputs": [
        {
          "internalType": "uint256",
          "name": "",
          "type": "uint256"
        }
      ],
      "stateMutability": "view",
      "type": "function"
    },
    {
      "inputs": [
        {
          "internalType": "uint256",
          "name": "contestId",
          "type": "uint256"
        }
      ],
      "name": "withdrawPlatformFees",
      "outputs": [],
      "stateMutability": "nonpayable",
      "type": "function"
    }
  ],
  "bytecode": "0x60a06040523480156200001157600080fd5b506040516200315a3803806200315a8339810160408190526200003491620000cd565b33806200005b57604051631e4fbdf760e01b81526000600482015260240160405180910390fd5b62000066816200007d565b50600180556001600160a01b0316608052620000ff565b600080546001600160a01b038381166001600160a01b0319831681178455604051919092169283917f8be0079c531659141344cd1fd0a4f28419497f9722a3daafe3b4186f6b6457e09190a35050565b600060208284031215620000e057600080fd5b81516001600160a01b0381168114620000f857600080fd5b9392505050565b60805161302a62000130600039600081816102d901528181610ce7015281816110580152611c3b015261302a6000f3fe608060405234801561001057600080fd5b50600436106101fb5760003560e01c806381ed54051161011a578063a595ee3a116100ad578063dff3ece91161007c578063dff3ece9146104a4578063e1a45218146104ae578063ed07f1ab146104b7578063f2fde38b146104ca578063f7a2d063146104dd57600080fd5b8063a595ee3a1461046b578063bf5e253f1461047e578063c03eee3214610313578063d70981541461049157600080fd5b806397874124116100e9578063978741241461040d57806398ba676d146104165780639d7ed73814610436578063a4b9328b1461046257600080fd5b806381ed5405146103c05780638d4fdb3b146103d35780638da5cb5b146103dc578063904b9f72146103ed57600080fd5b8063539aa77f116101925780636b1426a4116101615780636b1426a414610365578063715018a614610385578063734ab1321461038d57806374c8a1b8146103a057600080fd5b8063539aa77f146103135780635a12ac611461031c578063604daae41461033f5780636aa214161461035257600080fd5b806333e93a22116101ce57806333e93a2214610299578063363a4d5a146102ae5780633a8ef03b146102c15780633e413bee146102d457600080fd5b80630b913af014610200578063173d310b1461023e57806317b937e61461025e5780631f3ee00514610286575b600080fd5b61022b61020e3660046126be565b600660209081526000928352604080842090915290825290205481565b6040519081526020015b60405180910390f35b61022b61024c3660046126e8565b60056020526000908152604090205481565b61027161026c366004612701565b6104e6565b60405161023599989796959493929190612769565b61022b610294366004612701565b6106de565b6102ac6102a7366004612835565b610712565b005b61022b6102bc366004612701565b610950565b6102ac6102cf3660046126e8565b610981565b6102fb7f000000000000000000000000000000000000000000000000000000000000000081565b6040516001600160a01b039091168152602001610235565b61022b6107d081565b61032f61032a3660046126e8565b610b52565b6040519015158152602001610235565b61022b61034d3660046126e8565b610b80565b6102ac6103603660046126e8565b610bce565b6103786103733660046126e8565b610d4d565b60405161023591906128af565b6102ac610daf565b6102ac61039b366004612935565b610dc3565b6103b36103ae3660046126e8565b610e49565b6040516102359190612981565b61022b6103ce366004612994565b610f50565b61022b60035481565b6000546001600160a01b03166102fb565b6104006103fb3660046126e8565b611292565b6040516102359190612a16565b61022b610bb881565b610429610424366004612701565b6114c8565b6040516102359190612aef565b6104496104443660046126e8565b6116fe565b6040516102359d9c9b9a99989796959493929190612baf565b61022b61138881565b61022b610479366004612c33565b611879565b61032f61048c3660046126e8565b611a8f565b6102ac61049f3660046126e8565b611ac9565b61022b62186a0081565b61022b61271081565b6104296104c53660046126be565b611cb7565b6102ac6104d8366004612cb1565b611f4a565b61022b61070881565b60046020908152600092835260408084209091529082529020805460018201546002830180546001600160a01b0390931693919261052390612ccc565b80601f016020809104026020016040519081016040528092919081815260200182805461054f90612ccc565b801561059c5780601f106105715761010080835404028352916020019161059c565b820191906000526020600020905b81548152906001019060200180831161057f57829003601f168201915b5050505050908060030180546105b190612ccc565b80601f01602080910402602001604051908101604052809291908181526020018280546105dd90612ccc565b801561062a5780601f106105ff5761010080835404028352916020019161062a565b820191906000526020600020905b81548152906001019060200180831161060d57829003601f168201915b50505050509080600401805461063f90612ccc565b80601f016020809104026020016040519081016040528092919081815260200182805461066b90612ccc565b80156106b85780601f1061068d576101008083540402835291602001916106b8565b820191906000526020600020905b81548152906001019060200180831161069b57829003601f168201915b505050506005830154600684015460078501546008909501549394919390925060ff1689565b6000828152600260205260408120600a015460ff166106ff5750600061070c565b6107098383611f85565b90505b92915050565b61071a612154565b8281146107605760405162461bcd60e51b815260206004820152600f60248201526e098cadccee8d040dad2e6dac2e8c6d608b1b60448201526064015b60405180910390fd5b600085815260026020526040902060088101544210156107b65760405162461bcd60e51b815260206004820152601160248201527010dbdb9d195cdd081b9bdd08195b991959607a1b6044820152606401610757565b600a81015460ff16156107ff5760405162461bcd60e51b8152602060048201526011602482015270105b1c9958591e48199a5b985b1a5e9959607a1b6044820152606401610757565b60005b8481101561094757610bb884848381811061081f5761081f612d06565b9050602002013511156108665760405162461bcd60e51b815260206004820152600f60248201526e053636f7265206d61782033302e303608c1b6044820152606401610757565b83838281811061087857610878612d06565b905060200201356004600089815260200190815260200160002060008888858181106108a6576108a6612d06565b90506020020135815260200190815260200160002060060181905550867f0bd75de3dc3c4991f913f46dbbf63483da155fabff0f1e3c44e8f4d67133c5548787848181106108f6576108f6612d06565b9050602002013586868581811061090f5761090f612d06565b9050602002013560405161092d929190918252602082015260400190565b60405180910390a28061093f81612d32565b915050610802565b50505050505050565b6007602052816000526040600020818154811061096c57600080fd5b90600052602060002001600091509150505481565b610989612154565b600081815260026020526040902060098101544210156109eb5760405162461bcd60e51b815260206004820152601760248201527f4a756467696e67206e6f742073746172746564207965740000000000000000006044820152606401610757565b600a81015460ff1615610a345760405162461bcd60e51b8152602060048201526011602482015270105b1c9958591e48199a5b985b1a5e9959607a1b6044820152606401610757565b600081600b015411610a755760405162461bcd60e51b815260206004820152600a6024820152694e6f20656e747269657360b01b6044820152606401610757565b60006127106107d08360040154610a8c9190612d4b565b610a969190612d62565b90506000818360040154610aaa9190612d84565b90508183600601819055508083600501819055506000610ace8585600b0154612181565b90506000610adc8683612382565b60008781526007602090815260409091208251929350610b009290918401906125eb565b50600a8501805460ff1916600117905560405186907fba1f40a2547ae5a0e571cd3c5bd0c540e1eddef837ea8ecb8b9b07a181020a9890610b429084906128af565b60405180910390a2505050505050565b600081815260026020526040812060098101544210801590610b795750600a81015460ff16155b9392505050565b600081815260026020526040812060098101544210610ba25750600092915050565b8060080154421015610bbe57428160090154610b799190612d84565b428160090154610b799190612d84565b610bd6612154565b6000818152600260205260409020600a81015460ff16610c285760405162461bcd60e51b815260206004820152600d60248201526c139bdd08199a5b985b1a5e9959609a1b6044820152606401610757565b600a810154610100900460ff1615610c7b5760405162461bcd60e51b81526020600482015260166024820152752332b2b99030b63932b0b23c903bb4ba34323930bbb760511b6044820152606401610757565b600681015480610cb75760405162461bcd60e51b81526020600482015260076024820152664e6f206665657360c81b6044820152606401610757565b600a8201805461ff001916610100179055610d0e610cdd6000546001600160a01b031690565b6001600160a01b037f000000000000000000000000000000000000000000000000000000000000000016908361245d565b827ff175fe4c4704cc2f1e905cb3469231d686baf5c0f07e11aabdc7ee9396882f2c82604051610d4091815260200190565b60405180910390a2505050565b600081815260076020908152604091829020805483518184028101840190945280845260609392830182828015610da357602002820191906000526020600020905b815481526020019060010190808311610d8f575b50505050509050919050565b610db7612154565b610dc160006124c1565b565b33600090815260066020908152604080832086845290915290205480610e1c5760405162461bcd60e51b815260206004820152600e60248201526d139bc8195b9d1c9e48199bdd5b9960921b6044820152606401610757565b600084815260046020818152604080842085855290915290912001610e42838583612dfb565b5050505050565b6000818152600260205260409020600a8101546060919060ff1615610e8f57505060408051808201909152600981526818dbdb5c1b195d195960ba1b6020820152919050565b8060070154421015610ec15750506040805180820190915260088152677570636f6d696e6760c01b6020820152919050565b8060080154421015610ef157505060408051808201909152600681526561637469766560d01b6020820152919050565b8060090154421015610f2b57505060408051808201909152601081526f6177616974696e675f6a756467696e6760801b6020820152919050565b50506040805180820190915260078152666a756467696e6760c81b6020820152919050565b6000610f5a612511565b600087815260026020526040902060088101544210610fab5760405162461bcd60e51b815260206004820152600d60248201526c10dbdb9d195cdd08195b991959609a1b6044820152606401610757565b8060030154831015610ff15760405162461bcd60e51b815260206004820152600f60248201526e42656c6f77206d696e207374616b6560881b6044820152606401610757565b3360009081526006602090815260408083208b84529091529020541561104b5760405162461bcd60e51b815260206004820152600f60248201526e105b1c9958591e48195b9d195c9959608a1b6044820152606401610757565b6110806001600160a01b037f00000000000000000000000000000000000000000000000000000000000000001633308661253b565b828160040160008282546110949190612ebb565b9091555050600b810180549060006110ab83612d32565b919050555080600b01549150604051806101200160405280336001600160a01b0316815260200189815260200188888080601f016020809104026020016040519081016040528093929190818152602001838380828437600092019190915250505090825250604080516020601f890181900481028201810190925287815291810191908890889081908401838280828437600092018290525093855250506040805160208082018352848252808601919091528185018990526060850184905242608086015260a09094018390528c835260048452808320878452845291829020845181546001600160a01b0319166001600160a01b039091161781559284015160018401555082015160028201906111c59082612ece565b50606082015160038201906111da9082612ece565b50608082015160048201906111ef9082612ece565b5060a0820151600582015560c082015160068083019190915560e08301516007830155610100909201516008909101805460ff1916911515919091179055336000818152602092835260408082208c835284529081902085905551858152909184918b917f62ade019eb1dc6078fcf187de00a2a210308a05abdfccae36bc47769c21bce18910160405180910390a45061128860018055565b9695505050505050565b611301604051806101a0016040528060008152602001606081526020016060815260200160008152602001600081526020016000815260200160008152602001600081526020016000815260200160008152602001600015158152602001600015158152602001600081525090565b60026000838152602001908152602001600020604051806101a00160405290816000820154815260200160018201805461133a90612ccc565b80601f016020809104026020016040519081016040528092919081815260200182805461136690612ccc565b80156113b35780601f10611388576101008083540402835291602001916113b3565b820191906000526020600020905b81548152906001019060200180831161139657829003601f168201915b505050505081526020016002820180546113cc90612ccc565b80601f01602080910402602001604051908101604052809291908181526020018280546113f890612ccc565b80156114455780601f1061141a57610100808354040283529160200191611445565b820191906000526020600020905b81548152906001019060200180831161142857829003601f168201915b505050918352505060038201546020820152600482015460408201526005820154606082015260068201546080820152600782015460a0820152600882015460c0820152600982015460e0820152600a82015460ff808216151561010080850191909152909104161515610120820152600b909101546101409091015292915050565b6114d0612636565b600083815260046020908152604080832085845282529182902082516101208101845281546001600160a01b03168152600182015492810192909252600281018054929391929184019161152390612ccc565b80601f016020809104026020016040519081016040528092919081815260200182805461154f90612ccc565b801561159c5780601f106115715761010080835404028352916020019161159c565b820191906000526020600020905b81548152906001019060200180831161157f57829003601f168201915b505050505081526020016003820180546115b590612ccc565b80601f01602080910402602001604051908101604052809291908181526020018280546115e190612ccc565b801561162e5780601f106116035761010080835404028352916020019161162e565b820191906000526020600020905b81548152906001019060200180831161161157829003601f168201915b5050505050815260200160048201805461164790612ccc565b80601f016020809104026020016040519081016040528092919081815260200182805461167390612ccc565b80156116c05780601f10611695576101008083540402835291602001916116c0565b820191906000526020600020905b8154815290600101906020018083116116a357829003601f168201915b505050918352505060058201546020820152600682015460408201526007820154606082015260089091015460ff1615156080909101529392505050565b6002602052600090815260409020805460018201805491929161172090612ccc565b80601f016020809104026020016040519081016040528092919081815260200182805461174c90612ccc565b80156117995780601f1061176e57610100808354040283529160200191611799565b820191906000526020600020905b81548152906001019060200180831161177c57829003601f168201915b5050505050908060020180546117ae90612ccc565b80601f01602080910402602001604051908101604052809291908181526020018280546117da90612ccc565b80156118275780601f106117fc57610100808354040283529160200191611827565b820191906000526020600020905b81548152906001019060200180831161180a57829003601f168201915b50505060038401546004850154600586015460068701546007880154600889015460098a0154600a8b0154600b909b0154999a96999598509396509194909391929160ff80831692610100900416908d565b6000611883612154565b60036000815461189290612d32565b9182905550905060006118a58342612ebb565b9050604051806101a0016040528083815260200189898080601f016020809104026020016040519081016040528093929190818152602001838380828437600092019190915250505090825250604080516020601f8a0181900481028201810190925288815291810191908990899081908401838280828437600092018290525093855250505060208201879052604082018190526060820181905260808201524260a082015260c0810183905260e00161196261070884612ebb565b81526000602080830182905260408084018390526060909301829052858252600281529190208251815590820151600182019061199f9082612ece565b50604082015160028201906119b49082612ece565b50606082015160038201556080820151600482015560a0820151600582015560c0820151600682015560e082015160078201556101008083015160088301556101208301516009830155610140830151600a8301805461016086015161ffff1990911692151561ff0019169290921791151590920217905561018090910151600b90910155817ffea47fad72a45b1836979558841789e02b2e3262e40173545ff9ad89b57cd5148989898989611a6a8a42612ebb565b604051611a7c96959493929190612fb7565b60405180910390a2509695505050505050565b600081815260026020526040812060078101544210801590611ab45750806008015442105b8015610b795750600a015460ff161592915050565b611ad1612511565b6000818152600260205260409020600a81015460ff16611b235760405162461bcd60e51b815260206004820152600d60248201526c139bdd08199a5b985b1a5e9959609a1b6044820152606401610757565b33600090815260066020908152604080832085845290915290205480611b765760405162461bcd60e51b81526020600482015260086024820152674e6f20656e74727960c01b6044820152606401610757565b60008381526004602090815260408083208484529091529020600881015460ff1615611bd65760405162461bcd60e51b815260206004820152600f60248201526e105b1c9958591e4818db185a5b5959608a1b6044820152606401610757565b6000611be28584611f85565b905060008111611c1f5760405162461bcd60e51b81526020600482015260086024820152674e6f207072697a6560c01b6044820152606401610757565b60088201805460ff19166001179055611c626001600160a01b037f000000000000000000000000000000000000000000000000000000000000000016338361245d565b336001600160a01b031683867f608c8c3c6a3d40f40b96fbee44f9b9aee57a39c2fcb8bb0f59d8892b2d5492a284604051611c9f91815260200190565b60405180910390a450505050611cb460018055565b50565b611cbf612636565b6001600160a01b038316600090815260066020908152604080832085845290915290205480611d1b5760405162461bcd60e51b81526020600482015260086024820152674e6f20656e74727960c01b6044820152606401610757565b600083815260046020908152604080832084845282529182902082516101208101845281546001600160a01b031681526001820154928101929092526002810180549293919291840191611d6e90612ccc565b80601f0160208091040260200160405190810160405280929190818152602001828054611d9a90612ccc565b8015611de75780601f10611dbc57610100808354040283529160200191611de7565b820191906000526020600020905b815481529060010190602001808311611dca57829003601f168201915b50505050508152602001600382018054611e0090612ccc565b80601f0160208091040260200160405190810160405280929190818152602001828054611e2c90612ccc565b8015611e795780601f10611e4e57610100808354040283529160200191611e79565b820191906000526020600020905b815481529060010190602001808311611e5c57829003601f168201915b50505050508152602001600482018054611e9290612ccc565b80601f0160208091040260200160405190810160405280929190818152602001828054611ebe90612ccc565b8015611f0b5780601f10611ee057610100808354040283529160200191611f0b565b820191906000526020600020905b815481529060010190602001808311611eee57829003601f168201915b505050918352505060058201546020820152600682015460408201526007820154606082015260089091015460ff161515608090910152949350505050565b611f52612154565b6001600160a01b038116611f7c57604051631e4fbdf760e01b815260006004820152602401610757565b611cb4816124c1565b60008281526002602090815260408083206007909252822080548303611fb05760009250505061070c565b60008581526004602090815260408083208784529091528120600681015490916000199080805b865481101561209d5760008b8152600460205260408120885482908a908590811061200457612004612d06565b9060005260206000200154815260200190815260200160002060060154905085810361208a576000198503612037578194505b8361204181612d32565b9450508160000361205f5761205861138884612ebb565b925061208a565b8160010361207357612058610bb884612ebb565b8160020361208a576120876107d084612ebb565b92505b508061209581612d32565b915050611fd7565b5060001983036120b757600097505050505050505061070c565b6000805b8754811015612102578a8882815481106120d7576120d7612d06565b9060005260206000200154036120f05760019150612102565b806120fa81612d32565b9150506120bb565b50806121195760009850505050505050505061070c565b6000612710838a6005015461212e9190612d4b565b6121389190612d62565b90506121448482612d62565b9c9b505050505050505050505050565b6000546001600160a01b03163314610dc15760405163118cdaa760e01b8152336004820152602401610757565b606060008267ffffffffffffffff81111561219e5761219e612d97565b6040519080825280602002602001820160405280156121c7578160200160208202803683370190505b50905060015b83811161220e5780826121e1600183612d84565b815181106121f1576121f1612d06565b60209081029190910101528061220681612d32565b9150506121cd565b5060005b61221d600185612d84565b81101561237a5760005b60016122338387612d84565b61223d9190612d84565b811015612367576000868152600460205260408120908461225f846001612ebb565b8151811061226f5761226f612d06565b60200260200101518152602001908152602001600020600601546004600088815260200190815260200160002060008584815181106122b0576122b0612d06565b6020026020010151815260200190815260200160002060060154101561235557826122dc826001612ebb565b815181106122ec576122ec612d06565b602002602001015183828151811061230657612306612d06565b602002602001015184838151811061232057612320612d06565b60200260200101858460016123359190612ebb565b8151811061234557612345612d06565b6020908102919091010191909152525b8061235f81612d32565b915050612227565b508061237281612d32565b915050612212565b509392505050565b606081516000036123a2575060408051600081526020810190915261070c565b600060038351106123b45760036123b7565b82515b905060008167ffffffffffffffff8111156123d4576123d4612d97565b6040519080825280602002602001820160405280156123fd578160200160208202803683370190505b50905060005b828110156124545784818151811061241d5761241d612d06565b602002602001015182828151811061243757612437612d06565b60209081029190910101528061244c81612d32565b915050612403565b50949350505050565b6040516001600160a01b038381166024830152604482018390526124bc91859182169063a9059cbb906064015b604051602081830303815290604052915060e01b6020820180516001600160e01b03838183161783525050505061257a565b505050565b600080546001600160a01b038381166001600160a01b0319831681178455604051919092169283917f8be0079c531659141344cd1fd0a4f28419497f9722a3daafe3b4186f6b6457e09190a35050565b60026001540361253457604051633ee5aeb560e01b815260040160405180910390fd5b6002600155565b6040516001600160a01b0384811660248301528381166044830152606482018390526125749186918216906323b872dd9060840161248a565b50505050565b600080602060008451602086016000885af18061259d576040513d6000823e3d81fd5b50506000513d915081156125b55780600114156125c2565b6001600160a01b0384163b155b1561257457604051635274afe760e01b81526001600160a01b0385166004820152602401610757565b828054828255906000526020600020908101928215612626579160200282015b8281111561262657825182559160200191906001019061260b565b5061263292915061268d565b5090565b60405180610120016040528060006001600160a01b03168152602001600081526020016060815260200160608152602001606081526020016000815260200160008152602001600081526020016000151581525090565b5b80821115612632576000815560010161268e565b80356001600160a01b03811681146126b957600080fd5b919050565b600080604083850312156126d157600080fd5b6126da836126a2565b946020939093013593505050565b6000602082840312156126fa57600080fd5b5035919050565b6000806040838503121561271457600080fd5b50508035926020909101359150565b6000815180845260005b818110156127495760208185018101518683018201520161272d565b506000602082860101526020601f19601f83011685010191505092915050565b6001600160a01b038a16815260208101899052610120604082018190526000906127958382018b612723565b905082810360608401526127a9818a612723565b905082810360808401526127bd8189612723565b9150508560a08301528460c08301528360e08301528215156101008301529a9950505050505050505050565b60008083601f8401126127fb57600080fd5b50813567ffffffffffffffff81111561281357600080fd5b6020830191508360208260051b850101111561282e57600080fd5b9250929050565b60008060008060006060868803121561284d57600080fd5b85359450602086013567ffffffffffffffff8082111561286c57600080fd5b61287889838a016127e9565b9096509450604088013591508082111561289157600080fd5b5061289e888289016127e9565b969995985093965092949392505050565b6020808252825182820181905260009190848201906040850190845b818110156128e7578351835292840192918401916001016128cb565b50909695505050505050565b60008083601f84011261290557600080fd5b50813567ffffffffffffffff81111561291d57600080fd5b60208301915083602082850101111561282e57600080fd5b60008060006040848603121561294a57600080fd5b83359250602084013567ffffffffffffffff81111561296857600080fd5b612974868287016128f3565b9497909650939450505050565b6020815260006107096020830184612723565b600080600080600080608087890312156129ad57600080fd5b86359550602087013567ffffffffffffffff808211156129cc57600080fd5b6129d88a838b016128f3565b909750955060408901359150808211156129f157600080fd5b506129fe89828a016128f3565b979a9699509497949695606090950135949350505050565b6020815281516020820152600060208301516101a0806040850152612a3f6101c0850183612723565b91506040850151601f19858403016060860152612a5c8382612723565b92505060608501516080850152608085015160a085015260a085015160c085015260c085015160e085015260e0850151610100818187015280870151915050610120818187015280870151915050610140818187015280870151915050610160612ac98187018315159052565b8601519050610180612ade8682018315159052565b959095015193019290925250919050565b60208152612b096020820183516001600160a01b03169052565b6020820151604082015260006040830151610120806060850152612b31610140850183612723565b91506060850151601f1980868503016080870152612b4f8483612723565b935060808701519150808685030160a087015250612b6d8382612723565b92505060a085015160c085015260c085015160e085015260e0850151610100818187015280870151915050612ba58286018215159052565b5090949350505050565b8d81526101a060208201526000612bca6101a083018f612723565b8281036040840152612bdc818f612723565b606084019d909d525050608081019990995260a089019790975260c088019590955260e087019390935261010086019190915261012085015215156101408401521515610160830152610180909101529392505050565b60008060008060008060808789031215612c4c57600080fd5b863567ffffffffffffffff80821115612c6457600080fd5b612c708a838b016128f3565b90985096506020890135915080821115612c8957600080fd5b50612c9689828a016128f3565b979a9699509760408101359660609091013595509350505050565b600060208284031215612cc357600080fd5b610709826126a2565b600181811c90821680612ce057607f821691505b602082108103612d0057634e487b7160e01b600052602260045260246000fd5b50919050565b634e487b7160e01b600052603260045260246000fd5b634e487b7160e01b600052601160045260246000fd5b600060018201612d4457612d44612d1c565b5060010190565b808202811582820484141761070c5761070c612d1c565b600082612d7f57634e487b7160e01b600052601260045260246000fd5b500490565b8181038181111561070c5761070c612d1c565b634e487b7160e01b600052604160045260246000fd5b601f8211156124bc57600081815260208120601f850160051c81016020861015612dd45750805b601f850160051c820191505b81811015612df357828155600101612de0565b505050505050565b67ffffffffffffffff831115612e1357612e13612d97565b612e2783612e218354612ccc565b83612dad565b6000601f841160018114612e5b5760008515612e435750838201355b600019600387901b1c1916600186901b178355610e42565b600083815260209020601f19861690835b82811015612e8c5786850135825560209485019460019092019101612e6c565b5086821015612ea95760001960f88860031b161c19848701351681555b505060018560011b0183555050505050565b8082018082111561070c5761070c612d1c565b815167ffffffffffffffff811115612ee857612ee8612d97565b612efc81612ef68454612ccc565b84612dad565b602080601f831160018114612f315760008415612f195750858301515b600019600386901b1c1916600185901b178555612df3565b600085815260208120601f198616915b82811015612f6057888601518255948401946001909101908401612f41565b5085821015612f7e5787850151600019600388901b60f8161c191681555b5050505050600190811b01905550565b81835281816020850137506000828201602090810191909152601f909101601f19169091010190565b608081526000612fcb60808301888a612f8e565b8281036020840152612fde818789612f8e565b604084019590955250506060015294935050505056fea26469706673582212209a0dc01bb26894f22bb4e9eb4c453406f0543f465bb25e05e0cf2d4a831f0e7564736f6c63430008140033",
  "linkReferences": {},
  "deployedLinkReferences": {}
}