{"contracts/CineSceneContest.sol":{"CineSceneContest":{"abi":[{"inputs":[{"internalType":"address","name":"_usdc","type":"address"}],"stateMutability":"nonpayable","type":"constructor"},{"inputs":[{"internalType":"address","name":"owner","type":"address"}],"name":"OwnableInvalidOwner","type":"error"},{"inputs":[{"internalType":"address","name":"account","type":"address"}],"name":"OwnableUnauthorizedAccount","type":"error"},{"inputs":[],"name":"ReentrancyGuardReentrantCall","type":"error"},{"inputs":[{"internalType":"address","name":"token","type":"address"}],"name":"SafeERC20FailedOperation","type":"error"},{"anonymous":false,"inputs":[{"indexed":true,"internalType":"uint256","name":"contestId","type":"uint256"},{"indexed":false,"internalType":"string","name":"theme","type":"string"},{"indexed":false,"internalType":"string","name":"language","type":"string"},{"indexed":false,"internalType":"uint256","name":"minStake","type":"uint256"},{"indexed":false,"internalType":"uint256","name":"endTime","type":"uint256"}],"name":"ContestCreated","type":"event"},{"anonymous":false,"inputs":[{"indexed":true,"internalType":"uint256","name":"contestId","type":"uint256"},{"indexed":false,"internalType":"uint256[]","name":"winnerEntryIds","type":"uint256[]"}],"name":"ContestFinalized","type":"event"},{"anonymous":false,"inputs":[{"indexed":true,"internalType":"uint256","name":"contestId","type":"uint256"},{"indexed":true,"internalType":"uint256","name":"entryId","type":"uint256"},{"indexed":true,"internalType":"address","name":"user","type":"address"},{"indexed":false,"internalType":"uint256","name":"stakeAmount","type":"uint256"}],"name":"EntrySubmitted","type":"event"},{"anonymous":false,"inputs":[{"indexed":true,"internalType":"uint256","name":"contestId","type":"uint256"},{"indexed":false,"internalType":"uint256","name":"timestamp","type":"uint256"}],"name":"JudgingShowStarted","type":"event"},{"anonymous":false,"inputs":[{"indexed":true,"internalType":"address","name":"previousOwner","type":"address"},{"indexed":true,"internalType":"address","name":"newOwner","type":"address"}],"name":"OwnershipTransferred","type":"event"},{"anonymous":false,"inputs":[{"indexed":true,"internalType":"uint256","name":"contestId","type":"uint256"},{"indexed":false,"internalType":"uint256","name":"amount","type":"uint256"}],"name":"PlatformFeesWithdrawn","type":"event"},{"anonymous":false,"inputs":[{"indexed":true,"internalType":"uint256","name":"contestId","type":"uint256"},{"indexed":true,"internalType":"uint256","name":"entryId","type":"uint256"},{"indexed":true,"internalType":"address","name":"user","type":"address"},{"indexed":false,"internalType":"uint256","name":"amount","type":"uint256"}],"name":"PrizeClaimed","type":"event"},{"anonymous":false,"inputs":[{"indexed":true,"internalType":"uint256","name":"contestId","type":"uint256"},{"indexed":false,"internalType":"uint256","name":"entryId","type":"uint256"},{"indexed":false,"internalType":"uint256","name":"score","type":"uint256"}],"name":"ScoresSubmitted","type":"event"},{"inputs":[],"name":"BPS_DENOMINATOR","outputs":[{"internalType":"uint256","name":"","type":"uint256"}],"stateMutability":"view","type":"function"},{"inputs":[],"name":"DEFAULT_MIN_STAKE","outputs":[{"internalType":"uint256","name":"","type":"uint256"}],"stateMutability":"view","type":"function"},{"inputs":[],"name":"FIRST_PLACE_BPS","outputs":[{"internalType":"uint256","name":"","type":"uint256"}],"stateMutability":"view","type":"function"},{"inputs":[],"name":"JUDGING_DELAY","outputs":[{"internalType":"uint256","name":"","type":"uint256"}],"stateMutability":"view","type":"function"},{"inputs":[],"name":"PLATFORM_FEE_BPS","outputs":[{"internalType":"uint256","name":"","type":"uint256"}],"stateMutability":"view","type":"function"},{"inputs":[],"name":"SECOND_PLACE_BPS","outputs":[{"internalType":"uint256","name":"","type":"uint256"}],"stateMutability":"view","type":"function"},{"inputs":[],"name":"THIRD_PLACE_BPS","outputs":[{"internalType":"uint256","name":"","type":"uint256"}],"stateMutability":"view","type":"function"},{"inputs":[{"internalType":"uint256","name":"contestId","type":"uint256"}],"name":"canStartJudging","outputs":[{"internalType":"bool","name":"","type":"bool"}],"stateMutability":"view","type":"function"},{"inputs":[{"internalType":"uint256","name":"contestId","type":"uint256"}],"name":"claimPrize","outputs":[],"stateMutability":"nonpayable","type":"function"},{"inputs":[],"name":"contestCount","outputs":[{"internalType":"uint256","name":"","type":"uint256"}],"stateMutability":"view","type":"function"},{"inputs":[{"internalType":"uint256","name":"","type":"uint256"}],"name":"contestEntryCount","outputs":[{"internalType":"uint256","name":"","type":"uint256"}],"stateMutability":"view","type":"function"},{"inputs":[{"internalType":"uint256","name":"","type":"uint256"},{"internalType":"uint256","name":"","type":"uint256"}],"name":"contestWinners","outputs":[{"internalType":"uint256","name":"","type":"uint256"}],"stateMutability":"view","type":"function"},{"inputs":[{"internalType":"uint256","name":"","type":"uint256"}],"name":"contests","outputs":[{"internalType":"uint256","name":"id","type":"uint256"},{"internalType":"string","name":"theme","type":"string"},{"internalType":"string","name":"language","type":"string"},{"internalType":"uint256","name":"minStake","type":"uint256"},{"internalType":"uint256","name":"prizePool","type":"uint256"},{"internalType":"uint256","name":"winnersPool","type":"uint256"},{"internalType":"uint256","name":"platformFees","type":"uint256"},{"internalType":"uint256","name":"startTime","type":"uint256"},{"internalType":"uint256","name":"endTime","type":"uint256"},{"internalType":"uint256","name":"judgingStartTime","type":"uint256"},{"internalType":"bool","name":"finalized","type":"bool"},{"internalType":"bool","name":"feesWithdrawn","type":"bool"},{"internalType":"uint256","name":"entryCount","type":"uint256"}],"stateMutability":"view","type":"function"},{"inputs":[{"internalType":"string","name":"theme","type":"string"},{"internalType":"string","name":"language","type":"string"},{"internalType":"uint256","name":"minStake","type":"uint256"},{"internalType":"uint256","name":"duration","type":"uint256"}],"name":"createContest","outputs":[{"internalType":"uint256","name":"contestId","type":"uint256"}],"stateMutability":"nonpayable","type":"function"},{"inputs":[{"internalType":"uint256","name":"","type":"uint256"},{"internalType":"uint256","name":"","type":"uint256"}],"name":"entries","outputs":[{"internalType":"address","name":"user","type":"address"},{"internalType":"uint256","name":"contestId","type":"uint256"},{"internalType":"string","name":"movieTitle","type":"string"},{"internalType":"string","name":"promptHash","type":"string"},{"internalType":"string","name":"videoHash","type":"string"},{"internalType":"uint256","name":"stakeAmount","type":"uint256"},{"internalType":"uint256","name":"score","type":"uint256"},{"internalType":"uint256","name":"timestamp","type":"uint256"},{"internalType":"bool","name":"claimed","type":"bool"}],"stateMutability":"view","type":"function"},{"inputs":[{"internalType":"uint256","name":"contestId","type":"uint256"}],"name":"finalizeContest","outputs":[],"stateMutability":"nonpayable","type":"function"},{"inputs":[{"internalType":"uint256","name":"contestId","type":"uint256"}],"name":"getContest","outputs":[{"components":[{"internalType":"uint256","name":"id","type":"uint256"},{"internalType":"string","name":"theme","type":"string"},{"internalType":"string","name":"language","type":"string"},{"internalType":"uint256","name":"minStake","type":"uint256"},{"internalType":"uint256","name":"prizePool","type":"uint256"},{"internalType":"uint256","name":"winnersPool","type":"uint256"},{"internalType":"uint256","name":"platformFees","type":"uint256"},{"internalType":"uint256","name":"startTime","type":"uint256"},{"internalType":"uint256","name":"endTime","type":"uint256"},{"internalType":"uint256","name":"judgingStartTime","type":"uint256"},{"internalType":"bool","name":"finalized","type":"bool"},{"internalType":"bool","name":"feesWithdrawn","type":"bool"},{"internalType":"uint256","name":"entryCount","type":"uint256"}],"internalType":"struct CineSceneContest.Contest","name":"","type":"tuple"}],"stateMutability":"view","type":"function"},{"inputs":[{"internalType":"uint256","name":"contestId","type":"uint256"}],"name":"getContestStatus","outputs":[{"internalType":"string","name":"","type":"string"}],"stateMutability":"view","type":"function"},{"inputs":[{"internalType":"uint256","name":"contestId","type":"uint256"},{"internalType":"uint256","name":"entryId","type":"uint256"}],"name":"getEntry","outputs":[{"components":[{"internalType":"address","name":"user","type":"address"},{"internalType":"uint256","name":"contestId","type":"uint256"},{"internalType":"string","name":"movieTitle","type":"string"},{"internalType":"string","name":"promptHash","type":"string"},{"internalType":"string","name":"videoHash","type":"string"},{"internalType":"uint256","name":"stakeAmount","type":"uint256"},{"internalType":"uint256","name":"score","type":"uint256"},{"internalType":"uint256","name":"timestamp","type":"uint256"},{"internalType":"bool","name":"claimed","type":"bool"}],"internalType":"struct CineSceneContest.Entry","name":"","type":"tuple"}],"stateMutability":"view","type":"function"},{"inputs":[{"internalType":"uint256","name":"contestId","type":"uint256"},{"internalType":"uint256","name":"entryId","type":"uint256"}],"name":"getEstimatedPrize","outputs":[{"internalType":"uint256","name":"","type":"uint256"}],"stateMutability":"view","type":"function"},{"inputs":[{"internalType":"address","name":"user","type":"address"},{"internalType":"uint256","name":"contestId","type":"uint256"}],"name":"getUserEntry","outputs":[{"components":[{"internalType":"address","name":"user","type":"address"},{"internalType":"uint256","name":"contestId","type":"uint256"},{"internalType":"string","name":"movieTitle","type":"string"},{"internalType":"string","name":"promptHash","type":"string"},{"internalType":"string","name":"videoHash","type":"string"},{"internalType":"uint256","name":"stakeAmount","type":"uint256"},{"internalType":"uint256","name":"score","type":"uint256"},{"internalType":"uint256","name":"timestamp","type":"uint256"},{"internalType":"bool","name":"claimed","type":"bool"}],"internalType":"struct CineSceneContest.Entry","name":"","type":"tuple"}],"stateMutability":"view","type":"function"},{"inputs":[{"internalType":"uint256","name":"contestId","type":"uint256"}],"name":"getWinners","outputs":[{"internalType":"uint256[]","name":"","type":"uint256[]"}],"stateMutability":"view","type":"function"},{"inputs":[{"internalType":"uint256","name":"contestId","type":"uint256"}],"name":"isContestActive","outputs":[{"internalType":"bool","name":"","type":"bool"}],"stateMutability":"view","type":"function"},{"inputs":[],"name":"owner","outputs":[{"internalType":"address","name":"","type":"address"}],"stateMutability":"view","type":"function"},{"inputs":[],"name":"renounceOwnership","outputs":[],"stateMutability":"nonpayable","type":"function"},{"inputs":[{"internalType":"uint256","name":"contestId","type":"uint256"},{"internalType":"string","name":"movieTitle","type":"string"},{"internalType":"string","name":"promptHash","type":"string"},{"internalType":"uint256","name":"stakeAmount","type":"uint256"}],"name":"submitEntry","outputs":[{"internalType":"uint256","name":"entryId","type":"uint256"}],"stateMutability":"nonpayable","type":"function"},{"inputs":[{"internalType":"uint256","name":"contestId","type":"uint256"},{"internalType":"uint256[]","name":"entryIds","type":"uint256[]"},{"internalType":"uint256[]","name":"scores","type":"uint256[]"}],"name":"submitScores","outputs":[],"stateMutability":"nonpayable","type":"function"},{"inputs":[{"internalType":"uint256","name":"contestId","type":"uint256"}],"name":"timeUntilJudging","outputs":[{"internalType":"uint256","name":"","type":"uint256"}],"stateMutability":"view","type":"function"},{"inputs":[{"internalType":"address","name":"newOwner","type":"address"}],"name":"transferOwnership","outputs":[],"stateMutability":"nonpayable","type":"function"},{"inputs":[{"internalType":"uint256","name":"contestId","type":"uint256"},{"internalType":"string","name":"videoHash","type":"string"}],"name":"updateVideoHash","outputs":[],"stateMutability":"nonpayable","type":"function"},{"inputs":[],"name":"usdc","outputs":[{"internalType":"contract IERC20","name":"","type":"address"}],"stateMutability":"view","type":"function"},{"inputs":[{"internalType":"address","name":"","type":"address"},{"internalType":"uint256","name":"","type":"uint256"}],"name":"userEntries","outputs":[{"internalType":"uint256","name":"","type":"uint256"}],"stateMutability":"view","type":"function"},{"inputs":[{"internalType":"uint256","name":"contestId","type":"uint256"}],"name":"withdrawPlatformFees","outputs":[],"stateMutability":"nonpayable","type":"function"}],"evm":{"bytecode":{"linkReferences":{},"object":"60a06040523480156200001157600080fd5b506040516200315a3803806200315a8339810160408190526200003491620000cd565b33806200005b57604051631e4fbdf760e01b81526000600482015260240160405180910390fd5b62000066816200007d565b50600180556001600160a01b0316608052620000ff565b600080546001600160a01b038381166001600160a01b0319831681178455604051919092169283917f8be0079c531659141344cd1fd0a4f28419497f9722a3daafe3b4186f6b6457e09190a35050565b600060208284031215620000e057600080fd5b81516001600160a01b0381168114620000f857600080fd5b9392505050565b60805161302a62000130600039600081816102d901528181610ce7015281816110580152611c3b015261302a6000f3fe608060405234801561001057600080fd5b50600436106101fb5760003560e01c806381ed54051161011a578063a595ee3a116100ad578063dff3ece91161007c578063dff3ece9146104a4578063e1a45218146104ae578063ed07f1ab146104b7578063f2fde38b146104ca578063f7a2d063146104dd57600080fd5b8063a595ee3a1461046b578063bf5e253f1461047e578063c03eee3214610313578063d70981541461049157600080fd5b806397874124116100e9578063978741241461040d57806398ba676d146104165780639d7ed73814610436578063a4b9328b1461046257600080fd5b806381ed5405146103c05780638d4fdb3b146103d35780638da5cb5b146103dc578063904b9f72146103ed57600080fd5b8063539aa77f116101925780636b1426a4116101615780636b1426a414610365578063715018a614610385578063734ab1321461038d57806374c8a1b8146103a057600080fd5b8063539aa77f146103135780635a12ac611461031c578063604daae41461033f5780636aa214161461035257600080fd5b806333e93a22116101ce57806333e93a2214610299578063363a4d5a146102ae5780633a8ef03b146102c15780633e413bee146102d457600080fd5b80630b913af014610200578063173d310b1461023e57806317b937e61461025e5780631f3ee00514610286575b600080fd5b61022b61020e3660046126be565b600660209081526000928352604080842090915290825290205481565b6040519081526020015b60405180910390f35b61022b61024c3660046126e8565b60056020526000908152604090205481565b61027161026c366004612701565b6104e6565b60405161023599989796959493929190612769565b61022b610294366004612701565b6106de565b6102ac6102a7366004612835565b610712565b005b61022b6102bc366004612701565b610950565b6102ac6102cf3660046126e8565b610981565b6102fb7f000000000000000000000000000000000000000000000000000000000000000081565b6040516001600160a01b039091168152602001610235565b61022b6107d081565b61032f61032a3660046126e8565b610b52565b6040519015158152602001610235565b61022b61034d3660046126e8565b610b80565b6102ac6103603660046126e8565b610bce565b6103786103733660046126e8565b610d4d565b60405161023591906128af565b6102ac610daf565b6102ac61039b366004612935565b610dc3565b6103b36103ae3660046126e8565b610e49565b6040516102359190612981565b61022b6103ce366004612994565b610f50565b61022b60035481565b6000546001600160a01b03166102fb565b6104006103fb3660046126e8565b611292565b6040516102359190612a16565b61022b610bb881565b610429610424366004612701565b6114c8565b6040516102359190612aef565b6104496104443660046126e8565b6116fe565b6040516102359d9c9b9a99989796959493929190612baf565b61022b61138881565b61022b610479366004612c33565b611879565b61032f61048c3660046126e8565b611a8f565b6102ac61049f3660046126e8565b611ac9565b61022b62186a0081565b61022b61271081565b6104296104c53660046126be565b611cb7565b6102ac6104d8366004612cb1565b611f4a565b61022b61070881565b60046020908152600092835260408084209091529082529020805460018201546002830180546001600160a01b0390931693919261052390612ccc565b80601f016020809104026020016040519081016040528092919081815260200182805461054f90612ccc565b801561059c5780601f106105715761010080835404028352916020019161059c565b820191906000526020600020905b81548152906001019060200180831161057f57829003601f168201915b5050505050908060030180546105b190612ccc565b80601f01602080910402602001604051908101604052809291908181526020018280546105dd90612ccc565b801561062a5780601f106105ff5761010080835404028352916020019161062a565b820191906000526020600020905b81548152906001019060200180831161060d57829003601f168201915b50505050509080600401805461063f90612ccc565b80601f016020809104026020016040519081016040528092919081815260200182805461066b90612ccc565b80156106b85780601f1061068d576101008083540402835291602001916106b8565b820191906000526020600020905b81548152906001019060200180831161069b57829003601f168201915b505050506005830154600684015460078501546008909501549394919390925060ff1689565b6000828152600260205260408120600a015460ff166106ff5750600061070c565b6107098383611f85565b90505b92915050565b61071a612154565b8281146107605760405162461bcd60e51b815260206004820152600f60248201526e098cadccee8d040dad2e6dac2e8c6d608b1b60448201526064015b60405180910390fd5b600085815260026020526040902060088101544210156107b65760405162461bcd60e51b815260206004820152601160248201527010dbdb9d195cdd081b9bdd08195b991959607a1b6044820152606401610757565b600a81015460ff16156107ff5760405162461bcd60e51b8152602060048201526011602482015270105b1c9958591e48199a5b985b1a5e9959607a1b6044820152606401610757565b60005b8481101561094757610bb884848381811061081f5761081f612d06565b9050602002013511156108665760405162461bcd60e51b815260206004820152600f60248201526e053636f7265206d61782033302e303608c1b6044820152606401610757565b83838281811061087857610878612d06565b905060200201356004600089815260200190815260200160002060008888858181106108a6576108a6612d06565b90506020020135815260200190815260200160002060060181905550867f0bd75de3dc3c4991f913f46dbbf63483da155fabff0f1e3c44e8f4d67133c5548787848181106108f6576108f6612d06565b9050602002013586868581811061090f5761090f612d06565b9050602002013560405161092d929190918252602082015260400190565b60405180910390a28061093f81612d32565b915050610802565b50505050505050565b6007602052816000526040600020818154811061096c57600080fd5b90600052602060002001600091509150505481565b610989612154565b600081815260026020526040902060098101544210156109eb5760405162461bcd60e51b815260206004820152601760248201527f4a756467696e67206e6f742073746172746564207965740000000000000000006044820152606401610757565b600a81015460ff1615610a345760405162461bcd60e51b8152602060048201526011602482015270105b1c9958591e48199a5b985b1a5e9959607a1b6044820152606401610757565b600081600b015411610a755760405162461bcd60e51b815260206004820152600a6024820152694e6f20656e747269657360b01b6044820152606401610757565b60006127106107d08360040154610a8c9190612d4b565b610a969190612d62565b90506000818360040154610aaa9190612d84565b90508183600601819055508083600501819055506000610ace8585600b0154612181565b90506000610adc8683612382565b60008781526007602090815260409091208251929350610b009290918401906125eb565b50600a8501805460ff1916600117905560405186907fba1f40a2547ae5a0e571cd3c5bd0c540e1eddef837ea8ecb8b9b07a181020a9890610b429084906128af565b60405180910390a2505050505050565b600081815260026020526040812060098101544210801590610b795750600a81015460ff16155b9392505050565b600081815260026020526040812060098101544210610ba25750600092915050565b8060080154421015610bbe57428160090154610b799190612d84565b428160090154610b799190612d84565b610bd6612154565b6000818152600260205260409020600a81015460ff16610c285760405162461bcd60e51b815260206004820152600d60248201526c139bdd08199a5b985b1a5e9959609a1b6044820152606401610757565b600a810154610100900460ff1615610c7b5760405162461bcd60e51b81526020600482015260166024820152752332b2b99030b63932b0b23c903bb4ba34323930bbb760511b6044820152606401610757565b600681015480610cb75760405162461bcd60e51b81526020600482015260076024820152664e6f206665657360c81b6044820152606401610757565b600a8201805461ff001916610100179055610d0e610cdd6000546001600160a01b031690565b6001600160a01b037f000000000000000000000000000000000000000000000000000000000000000016908361245d565b827ff175fe4c4704cc2f1e905cb3469231d686baf5c0f07e11aabdc7ee9396882f2c82604051610d4091815260200190565b60405180910390a2505050565b600081815260076020908152604091829020805483518184028101840190945280845260609392830182828015610da357602002820191906000526020600020905b815481526020019060010190808311610d8f575b50505050509050919050565b610db7612154565b610dc160006124c1565b565b33600090815260066020908152604080832086845290915290205480610e1c5760405162461bcd60e51b815260206004820152600e60248201526d139bc8195b9d1c9e48199bdd5b9960921b6044820152606401610757565b600084815260046020818152604080842085855290915290912001610e42838583612dfb565b5050505050565b6000818152600260205260409020600a8101546060919060ff1615610e8f57505060408051808201909152600981526818dbdb5c1b195d195960ba1b6020820152919050565b8060070154421015610ec15750506040805180820190915260088152677570636f6d696e6760c01b6020820152919050565b8060080154421015610ef157505060408051808201909152600681526561637469766560d01b6020820152919050565b8060090154421015610f2b57505060408051808201909152601081526f6177616974696e675f6a756467696e6760801b6020820152919050565b50506040805180820190915260078152666a756467696e6760c81b6020820152919050565b6000610f5a612511565b600087815260026020526040902060088101544210610fab5760405162461bcd60e51b815260206004820152600d60248201526c10dbdb9d195cdd08195b991959609a1b6044820152606401610757565b8060030154831015610ff15760405162461bcd60e51b815260206004820152600f60248201526e42656c6f77206d696e207374616b6560881b6044820152606401610757565b3360009081526006602090815260408083208b84529091529020541561104b5760405162461bcd60e51b815260206004820152600f60248201526e105b1c9958591e48195b9d195c9959608a1b6044820152606401610757565b6110806001600160a01b037f00000000000000000000000000000000000000000000000000000000000000001633308661253b565b828160040160008282546110949190612ebb565b9091555050600b810180549060006110ab83612d32565b919050555080600b01549150604051806101200160405280336001600160a01b0316815260200189815260200188888080601f016020809104026020016040519081016040528093929190818152602001838380828437600092019190915250505090825250604080516020601f890181900481028201810190925287815291810191908890889081908401838280828437600092018290525093855250506040805160208082018352848252808601919091528185018990526060850184905242608086015260a09094018390528c835260048452808320878452845291829020845181546001600160a01b0319166001600160a01b039091161781559284015160018401555082015160028201906111c59082612ece565b50606082015160038201906111da9082612ece565b50608082015160048201906111ef9082612ece565b5060a0820151600582015560c082015160068083019190915560e08301516007830155610100909201516008909101805460ff1916911515919091179055336000818152602092835260408082208c835284529081902085905551858152909184918b917f62ade019eb1dc6078fcf187de00a2a210308a05abdfccae36bc47769c21bce18910160405180910390a45061128860018055565b9695505050505050565b611301604051806101a0016040528060008152602001606081526020016060815260200160008152602001600081526020016000815260200160008152602001600081526020016000815260200160008152602001600015158152602001600015158152602001600081525090565b60026000838152602001908152602001600020604051806101a00160405290816000820154815260200160018201805461133a90612ccc565b80601f016020809104026020016040519081016040528092919081815260200182805461136690612ccc565b80156113b35780601f10611388576101008083540402835291602001916113b3565b820191906000526020600020905b81548152906001019060200180831161139657829003601f168201915b505050505081526020016002820180546113cc90612ccc565b80601f01602080910402602001604051908101604052809291908181526020018280546113f890612ccc565b80156114455780601f1061141a57610100808354040283529160200191611445565b820191906000526020600020905b81548152906001019060200180831161142857829003601f168201915b505050918352505060038201546020820152600482015460408201526005820154606082015260068201546080820152600782015460a0820152600882015460c0820152600982015460e0820152600a82015460ff808216151561010080850191909152909104161515610120820152600b909101546101409091015292915050565b6114d0612636565b600083815260046020908152604080832085845282529182902082516101208101845281546001600160a01b03168152600182015492810192909252600281018054929391929184019161152390612ccc565b80601f016020809104026020016040519081016040528092919081815260200182805461154f90612ccc565b801561159c5780601f106115715761010080835404028352916020019161159c565b820191906000526020600020905b81548152906001019060200180831161157f57829003601f168201915b505050505081526020016003820180546115b590612ccc565b80601f01602080910402602001604051908101604052809291908181526020018280546115e190612ccc565b801561162e5780601f106116035761010080835404028352916020019161162e565b820191906000526020600020905b81548152906001019060200180831161161157829003601f168201915b5050505050815260200160048201805461164790612ccc565b80601f016020809104026020016040519081016040528092919081815260200182805461167390612ccc565b80156116c05780601f10611695576101008083540402835291602001916116c0565b820191906000526020600020905b8154815290600101906020018083116116a357829003601f168201915b505050918352505060058201546020820152600682015460408201526007820154606082015260089091015460ff1615156080909101529392505050565b6002602052600090815260409020805460018201805491929161172090612ccc565b80601f016020809104026020016040519081016040528092919081815260200182805461174c90612ccc565b80156117995780601f1061176e57610100808354040283529160200191611799565b820191906000526020600020905b81548152906001019060200180831161177c57829003601f168201915b5050505050908060020180546117ae90612ccc565b80601f01602080910402602001604051908101604052809291908181526020018280546117da90612ccc565b80156118275780601f106117fc57610100808354040283529160200191611827565b820191906000526020600020905b81548152906001019060200180831161180a57829003601f168201915b50505060038401546004850154600586015460068701546007880154600889015460098a0154600a8b0154600b909b0154999a96999598509396509194909391929160ff80831692610100900416908d565b6000611883612154565b60036000815461189290612d32565b9182905550905060006118a58342612ebb565b9050604051806101a0016040528083815260200189898080601f016020809104026020016040519081016040528093929190818152602001838380828437600092019190915250505090825250604080516020601f8a0181900481028201810190925288815291810191908990899081908401838280828437600092018290525093855250505060208201879052604082018190526060820181905260808201524260a082015260c0810183905260e00161196261070884612ebb565b81526000602080830182905260408084018390526060909301829052858252600281529190208251815590820151600182019061199f9082612ece565b50604082015160028201906119b49082612ece565b50606082015160038201556080820151600482015560a0820151600582015560c0820151600682015560e082015160078201556101008083015160088301556101208301516009830155610140830151600a8301805461016086015161ffff1990911692151561ff0019169290921791151590920217905561018090910151600b90910155817ffea47fad72a45b1836979558841789e02b2e3262e40173545ff9ad89b57cd5148989898989611a6a8a42612ebb565b604051611a7c96959493929190612fb7565b60405180910390a2509695505050505050565b600081815260026020526040812060078101544210801590611ab45750806008015442105b8015610b795750600a015460ff161592915050565b611ad1612511565b6000818152600260205260409020600a81015460ff16611b235760405162461bcd60e51b815260206004820152600d60248201526c139bdd08199a5b985b1a5e9959609a1b6044820152606401610757565b33600090815260066020908152604080832085845290915290205480611b765760405162461bcd60e51b81526020600482015260086024820152674e6f20656e74727960c01b6044820152606401610757565b60008381526004602090815260408083208484529091529020600881015460ff1615611bd65760405162461bcd60e51b815260206004820152600f60248201526e105b1c9958591e4818db185a5b5959608a1b6044820152606401610757565b6000611be28584611f85565b905060008111611c1f5760405162461bcd60e51b81526020600482015260086024820152674e6f207072697a6560c01b6044820152606401610757565b60088201805460ff19166001179055611c626001600160a01b037f000000000000000000000000000000000000000000000000000000000000000016338361245d565b336001600160a01b031683867f608c8c3c6a3d40f40b96fbee44f9b9aee57a39c2fcb8bb0f59d8892b2d5492a284604051611c9f91815260200190565b60405180910390a450505050611cb460018055565b50565b611cbf612636565b6001600160a01b038316600090815260066020908152604080832085845290915290205480611d1b5760405162461bcd60e51b81526020600482015260086024820152674e6f20656e74727960c01b6044820152606401610757565b600083815260046020908152604080832084845282529182902082516101208101845281546001600160a01b031681526001820154928101929092526002810180549293919291840191611d6e90612ccc565b80601f0160208091040260200160405190810160405280929190818152602001828054611d9a90612ccc565b8015611de75780601f10611dbc57610100808354040283529160200191611de7565b820191906000526020600020905b815481529060010190602001808311611dca57829003601f168201915b50505050508152602001600382018054611e0090612ccc565b80601f0160208091040260200160405190810160405280929190818152602001828054611e2c90612ccc565b8015611e795780601f10611e4e57610100808354040283529160200191611e79565b820191906000526020600020905b815481529060010190602001808311611e5c57829003601f168201915b50505050508152602001600482018054611e9290612ccc565b80601f0160208091040260200160405190810160405280929190818152602001828054611ebe90612ccc565b8015611f0b5780601f10611ee057610100808354040283529160200191611f0b565b820191906000526020600020905b815481529060010190602001808311611eee57829003601f168201915b505050918352505060058201546020820152600682015460408201526007820154606082015260089091015460ff161515608090910152949350505050565b611f52612154565b6001600160a01b038116611f7c57604051631e4fbdf760e01b815260006004820152602401610757565b611cb4816124c1565b60008281526002602090815260408083206007909252822080548303611fb05760009250505061070c565b60008581526004602090815260408083208784529091528120600681015490916000199080805b865481101561209d5760008b8152600460205260408120885482908a908590811061200457612004612d06565b9060005260206000200154815260200190815260200160002060060154905085810361208a576000198503612037578194505b8361204181612d32565b9450508160000361205f5761205861138884612ebb565b925061208a565b8160010361207357612058610bb884612ebb565b8160020361208a576120876107d084612ebb565b92505b508061209581612d32565b915050611fd7565b5060001983036120b757600097505050505050505061070c565b6000805b8754811015612102578a8882815481106120d7576120d7612d06565b9060005260206000200154036120f05760019150612102565b806120fa81612d32565b9150506120bb565b50806121195760009850505050505050505061070c565b6000612710838a6005015461212e9190612d4b565b6121389190612d62565b90506121448482612d62565b9c9b505050505050505050505050565b6000546001600160a01b03163314610dc15760405163118cdaa760e01b8152336004820152602401610757565b606060008267ffffffffffffffff81111561219e5761219e612d97565b6040519080825280602002602001820160405280156121c7578160200160208202803683370190505b50905060015b83811161220e5780826121e1600183612d84565b815181106121f1576121f1612d06565b60209081029190910101528061220681612d32565b9150506121cd565b5060005b61221d600185612d84565b81101561237a5760005b60016122338387612d84565b61223d9190612d84565b811015612367576000868152600460205260408120908461225f846001612ebb565b8151811061226f5761226f612d06565b60200260200101518152602001908152602001600020600601546004600088815260200190815260200160002060008584815181106122b0576122b0612d06565b6020026020010151815260200190815260200160002060060154101561235557826122dc826001612ebb565b815181106122ec576122ec612d06565b602002602001015183828151811061230657612306612d06565b602002602001015184838151811061232057612320612d06565b60200260200101858460016123359190612ebb565b8151811061234557612345612d06565b6020908102919091010191909152525b8061235f81612d32565b915050612227565b508061237281612d32565b915050612212565b509392505050565b606081516000036123a2575060408051600081526020810190915261070c565b600060038351106123b45760036123b7565b82515b905060008167ffffffffffffffff8111156123d4576123d4612d97565b6040519080825280602002602001820160405280156123fd578160200160208202803683370190505b50905060005b828110156124545784818151811061241d5761241d612d06565b602002602001015182828151811061243757612437612d06565b60209081029190910101528061244c81612d32565b915050612403565b50949350505050565b6040516001600160a01b038381166024830152604482018390526124bc91859182169063a9059cbb906064015b604051602081830303815290604052915060e01b6020820180516001600160e01b03838183161783525050505061257a565b505050565b600080546001600160a01b038381166001600160a01b0319831681178455604051919092169283917f8be0079c531659141344cd1fd0a4f28419497f9722a3daafe3b4186f6b6457e09190a35050565b60026001540361253457604051633ee5aeb560e01b815260040160405180910390fd5b6002600155565b6040516001600160a01b0384811660248301528381166044830152606482018390526125749186918216906323b872dd9060840161248a565b50505050565b600080602060008451602086016000885af18061259d576040513d6000823e3d81fd5b50506000513d915081156125b55780600114156125c2565b6001600160a01b0384163b155b1561257457604051635274afe760e01b81526001600160a01b0385166004820152602401610757565b828054828255906000526020600020908101928215612626579160200282015b8281111561262657825182559160200191906001019061260b565b5061263292915061268d565b5090565b60405180610120016040528060006001600160a01b03168152602001600081526020016060815260200160608152602001606081526020016000815260200160008152602001600081526020016000151581525090565b5b80821115612632576000815560010161268e565b80356001600160a01b03811681146126b957600080fd5b919050565b600080604083850312156126d157600080fd5b6126da836126a2565b946020939093013593505050565b6000602082840312156126fa57600080fd5b5035919050565b6000806040838503121561271457600080fd5b50508035926020909101359150565b6000815180845260005b818110156127495760208185018101518683018201520161272d565b506000602082860101526020601f19601f83011685010191505092915050565b6001600160a01b038a16815260208101899052610120604082018190526000906127958382018b612723565b905082810360608401526127a9818a612723565b905082810360808401526127bd8189612723565b9150508560a08301528460c08301528360e08301528215156101008301529a9950505050505050505050565b60008083601f8401126127fb57600080fd5b50813567ffffffffffffffff81111561281357600080fd5b6020830191508360208260051b850101111561282e57600080fd5b9250929050565b60008060008060006060868803121561284d57600080fd5b85359450602086013567ffffffffffffffff8082111561286c57600080fd5b61287889838a016127e9565b9096509450604088013591508082111561289157600080fd5b5061289e888289016127e9565b969995985093965092949392505050565b6020808252825182820181905260009190848201906040850190845b818110156128e7578351835292840192918401916001016128cb565b50909695505050505050565b60008083601f84011261290557600080fd5b50813567ffffffffffffffff81111561291d57600080fd5b60208301915083602082850101111561282e57600080fd5b60008060006040848603121561294a57600080fd5b83359250602084013567ffffffffffffffff81111561296857600080fd5b612974868287016128f3565b9497909650939450505050565b6020815260006107096020830184612723565b600080600080600080608087890312156129ad57600080fd5b86359550602087013567ffffffffffffffff808211156129cc57600080fd5b6129d88a838b016128f3565b909750955060408901359150808211156129f157600080fd5b506129fe89828a016128f3565b979a9699509497949695606090950135949350505050565b6020815281516020820152600060208301516101a0806040850152612a3f6101c0850183612723565b91506040850151601f19858403016060860152612a5c8382612723565b92505060608501516080850152608085015160a085015260a085015160c085015260c085015160e085015260e0850151610100818187015280870151915050610120818187015280870151915050610140818187015280870151915050610160612ac98187018315159052565b8601519050610180612ade8682018315159052565b959095015193019290925250919050565b60208152612b096020820183516001600160a01b03169052565b6020820151604082015260006040830151610120806060850152612b31610140850183612723565b91506060850151601f1980868503016080870152612b4f8483612723565b935060808701519150808685030160a087015250612b6d8382612723565b92505060a085015160c085015260c085015160e085015260e0850151610100818187015280870151915050612ba58286018215159052565b5090949350505050565b8d81526101a060208201526000612bca6101a083018f612723565b8281036040840152612bdc818f612723565b606084019d909d525050608081019990995260a089019790975260c088019590955260e087019390935261010086019190915261012085015215156101408401521515610160830152610180909101529392505050565b60008060008060008060808789031215612c4c57600080fd5b863567ffffffffffffffff80821115612c6457600080fd5b612c708a838b016128f3565b90985096506020890135915080821115612c8957600080fd5b50612c9689828a016128f3565b979a9699509760408101359660609091013595509350505050565b600060208284031215612cc357600080fd5b610709826126a2565b600181811c90821680612ce057607f821691505b602082108103612d0057634e487b7160e01b600052602260045260246000fd5b50919050565b634e487b7160e01b600052603260045260246000fd5b634e487b7160e01b600052601160045260246000fd5b600060018201612d4457612d44612d1c565b5060010190565b808202811582820484141761070c5761070c612d1c565b600082612d7f57634e487b7160e01b600052601260045260246000fd5b500490565b8181038181111561070c5761070c612d1c565b634e487b7160e01b600052604160045260246000fd5b601f8211156124bc57600081815260208120601f850160051c81016020861015612dd45750805b601f850160051c820191505b81811015612df357828155600101612de0565b505050505050565b67ffffffffffffffff831115612e1357612e13612d97565b612e2783612e218354612ccc565b83612dad565b6000601f841160018114612e5b5760008515612e435750838201355b600019600387901b1c1916600186901b178355610e42565b600083815260209020601f19861690835b82811015612e8c5786850135825560209485019460019092019101612e6c565b5086821015612ea95760001960f88860031b161c19848701351681555b505060018560011b0183555050505050565b8082018082111561070c5761070c612d1c565b815167ffffffffffffffff811115612ee857612ee8612d97565b612efc81612ef68454612ccc565b84612dad565b602080601f831160018114612f315760008415612f195750858301515b600019600386901b1c1916600185901b178555612df3565b600085815260208120601f198616915b82811015612f6057888601518255948401946001909101908401612f41565b5085821015612f7e5787850151600019600388901b60f8161c191681555b5050505050600190811b01905550565b81835281816020850137506000828201602090810191909152601f909101601f19169091010190565b608081526000612fcb60808301888a612f8e565b8281036020840152612fde818789612f8e565b604084019590955250506060015294935050505056fea26469706673582212209a0dc01bb26894f22bb4e9eb4c453406f0543f465bb25e05e0cf2d4a831f0e7564736f6c63430008140033","opcodes":"PUSH1 0xA0 PUSH1 0x40 MSTORE CALLVALUE DUP1 ISZERO PUSH3 0x11 JUMPI PUSH1 0x0 DUP1 REVERT JUMPDEST POP PUSH1 0x40 MLOAD PUSH3 0x315A CODESIZE SUB DUP1 PUSH3 0x315A DUP4 CODECOPY DUP2 ADD PUSH1 0x40 DUP2 SWAP1 MSTORE PUSH3 0x34 SWAP2 PUSH3 0xCD JUMP JUMPDEST CALLER DUP1 PUSH3 0x5B JUMPI PUSH1 0x40 MLOAD PUSH4 0x1E4FBDF7 PUSH1 0xE0 SHL DUP2 MSTORE PUSH1 0x0 PUSH1 0x4 DUP3 ADD MSTORE PUSH1 0x24 ADD PUSH1 0x40 MLOAD DUP1 SWAP2 SUB SWAP1 REVERT JUMPDEST PUSH3 0x66 DUP2 PUSH3 0x7D JUMP JUMPDEST POP PUSH1 0x1 DUP1 SSTORE PUSH1 0x1 PUSH1 0x1 PUSH1 0xA0 SHL SUB AND PUSH1 0x80 MSTORE PUSH3 0xFF JUMP JUMPDEST PUSH1 0x0 DUP1 SLOAD PUSH1 0x1 PUSH1 0x1 PUSH1 0xA0 SHL SUB DUP4 DUP2 AND PUSH1 0x1 PUSH1 0x1 PUSH1 0xA0 SHL SUB NOT DUP4 AND DUP2 OR DUP5 SSTORE PUSH1 0x40 MLOAD SWAP2 SWAP1 SWAP3 AND SWAP3 DUP4 SWAP2 PUSH32 0x8BE0079C531659141344CD1FD0A4F28419497F9722A3DAAFE3B4186F6B6457E0 SWAP2 SWAP1 LOG3 POP POP JUMP JUMPDEST PUSH1 0x0 PUSH1 0x20 DUP3 DUP5 SUB SLT ISZERO PUSH3 0xE0 JUMPI PUSH1 0x0 DUP1 REVERT JUMPDEST DUP2 MLOAD PUSH1 0x1 PUSH1 0x1 PUSH1 0xA0 SHL SUB DUP2 AND DUP2 EQ PUSH3 0xF8 JUMPI PUSH1 0x0 DUP1 REVERT JUMPDEST SWAP4 SWAP3 POP POP POP JUMP JUMPDEST PUSH1 0x80 MLOAD PUSH2 0x302A PUSH3 0x130 PUSH1 0x0 CODECOPY PUSH1 0x0 DUP2 DUP2 PUSH2 0x2D9 ADD MSTORE DUP2 DUP2 PUSH2 0xCE7 ADD MSTORE DUP2 DUP2 PUSH2 0x1058 ADD MSTORE PUSH2 0x1C3B ADD MSTORE PUSH2 0x302A PUSH1 0x0 RETURN INVALID PUSH1 0x80 PUSH1 0x40 MSTORE CALLVALUE DUP1 ISZERO PUSH2 0x10 JUMPI PUSH1 0x0 DUP1 REVERT JUMPDEST POP PUSH1 0x4 CALLDATASIZE LT PUSH2 0x1FB JUMPI PUSH1 0x0 CALLDATALOAD PUSH1 0xE0 SHR DUP1 PUSH4 0x81ED5405 GT PUSH2 0x11A JUMPI DUP1 PUSH4 0xA595EE3A GT PUSH2 0xAD JUMPI DUP1 PUSH4 0xDFF3ECE9 GT PUSH2 0x7C JUMPI DUP1 PUSH4 0xDFF3ECE9 EQ PUSH2 0x4A4 JUMPI DUP1 PUSH4 0xE1A45218 EQ PUSH2 0x4AE JUMPI DUP1 PUSH4 0xED07F1AB EQ PUSH2 0x4B7 JUMPI DUP1 PUSH4 0xF2FDE38B EQ PUSH2 0x4CA JUMPI DUP1 PUSH4 0xF7A2D063 EQ PUSH2 0x4DD JUMPI PUSH1 0x0 DUP1 REVERT JUMPDEST DUP1 PUSH4 0xA595EE3A EQ PUSH2 0x46B JUMPI DUP1 PUSH4 0xBF5E253F EQ PUSH2 0x47E JUMPI DUP1 PUSH4 0xC03EEE32 EQ PUSH2 0x313 JUMPI DUP1 PUSH4 0xD7098154 EQ PUSH2 0x491 JUMPI PUSH1 0x0 DUP1 REVERT JUMPDEST DUP1 PUSH4 0x97874124 GT PUSH2 0xE9 JUMPI DUP1 PUSH4 0x97874124 EQ PUSH2 0x40D JUMPI DUP1 PUSH4 0x98BA676D EQ PUSH2 0x416 JUMPI DUP1 PUSH4 0x9D7ED738 EQ PUSH2 0x436 JUMPI DUP1 PUSH4 0xA4B9328B EQ PUSH2 0x462 JUMPI PUSH1 0x0 DUP1 REVERT JUMPDEST DUP1 PUSH4 0x81ED5405 EQ PUSH2 0x3C0 JUMPI DUP1 PUSH4 0x8D4FDB3B EQ PUSH2 0x3D3 JUMPI DUP1 PUSH4 0x8DA5CB5B EQ PUSH2 0x3DC JUMPI DUP1 PUSH4 0x904B9F72 EQ PUSH2 0x3ED JUMPI PUSH1 0x0 DUP1 REVERT JUMPDEST DUP1 PUSH4 0x539AA77F GT PUSH2 0x192 JUMPI DUP1 PUSH4 0x6B1426A4 GT PUSH2 0x161 JUMPI DUP1 PUSH4 0x6B1426A4 EQ PUSH2 0x365 JUMPI DUP1 PUSH4 0x715018A6 EQ PUSH2 0x385 JUMPI DUP1 PUSH4 0x734AB132 EQ PUSH2 0x38D JUMPI DUP1 PUSH4 0x74C8A1B8 EQ PUSH2 0x3A0 JUMPI PUSH1 0x0 DUP1 REVERT JUMPDEST DUP1 PUSH4 0x539AA77F EQ PUSH2 0x313 JUMPI DUP1 PUSH4 0x5A12AC61 EQ PUSH2 0x31C JUMPI DUP1 PUSH4 0x604DAAE4 EQ PUSH2 0x33F JUMPI DUP1 PUSH4 0x6AA21416 EQ PUSH2 0x352 JUMPI PUSH1 0x0 DUP1 REVERT JUMPDEST DUP1 PUSH4 0x33E93A22 GT PUSH2 0x1CE JUMPI DUP1 PUSH4 0x33E93A22 EQ PUSH2 0x299 JUMPI DUP1 PUSH4 0x363A4D5A EQ PUSH2 0x2AE JUMPI DUP1 PUSH4 0x3A8EF03B EQ PUSH2 0x2C1 JUMPI DUP1 PUSH4 0x3E413BEE EQ PUSH2 0x2D4 JUMPI PUSH1 0x0 DUP1 REVERT JUMPDEST DUP1 PUSH4 0xB913AF0 EQ PUSH2 0x200 JUMPI DUP1 PUSH4 0x173D310B EQ PUSH2 0x23E JUMPI DUP1 PUSH4 0x17B937E6 EQ PUSH2 0x25E JUMPI DUP1 PUSH4 0x1F3EE005 EQ PUSH2 0x286 JUMPI JUMPDEST PUSH1 0x0 DUP1 REVERT JUMPDEST PUSH2 0x22B PUSH2 0x20E CALLDATASIZE PUSH1 0x4 PUSH2 0x26BE JUMP JUMPDEST PUSH1 0x6 PUSH1 0x20 SWAP1 DUP2 MSTORE PUSH1 0x0 SWAP3 DUP4 MSTORE PUSH1 0x40 DUP1 DUP5 KECCAK256 SWAP1 SWAP2 MSTORE SWAP1 DUP3 MSTORE SWAP1 KECCAK256 SLOAD DUP2 JUMP JUMPDEST PUSH1 0x40 MLOAD SWAP1 DUP2 MSTORE PUSH1 0x20 ADD JUMPDEST PUSH1 0x40 MLOAD DUP1 SWAP2 SUB SWAP1 RETURN JUMPDEST PUSH2 0x22B PUSH2 0x24C CALLDATASIZE PUSH1 0x4 PUSH2 0x26E8 JUMP JUMPDEST PUSH1 0x5 PUSH1 0x20 MSTORE PUSH1 0x0 SWAP1 DUP2 MSTORE PUSH1 0x40 SWAP1 KECCAK256 SLOAD DUP2 JUMP JUMPDEST PUSH2 0x271 PUSH2 0x26C CALLDATASIZE PUSH1 0x4 PUSH2 0x2701 JUMP JUMPDEST PUSH2 0x4E6 JUMP JUMPDEST PUSH1 0x40 MLOAD PUSH2 0x235 SWAP10 SWAP9 SWAP8 SWAP7 SWAP6 SWAP5 SWAP4 SWAP3 SWAP2 SWAP1 PUSH2 0x2769 JUMP JUMPDEST PUSH2 0x22B PUSH2 0x294 CALLDATASIZE PUSH1 0x4 PUSH2 0x2701 JUMP JUMPDEST PUSH2 0x6DE JUMP JUMPDEST PUSH2 0x2AC PUSH2 0x2A7 CALLDATASIZE PUSH1 0x4 PUSH2 0x2835 JUMP JUMPDEST PUSH2 0x712 JUMP JUMPDEST STOP JUMPDEST PUSH2 0x22B PUSH2 0x2BC CALLDATASIZE PUSH1 0x4 PUSH2 0x2701 JUMP JUMPDEST PUSH2 0x950 JUMP JUMPDEST PUSH2 0x2AC PUSH2 0x2CF CALLDATASIZE PUSH1 0x4 PUSH2 0x26E8 JUMP JUMPDEST PUSH2 0x981 JUMP JUMPDEST PUSH2 0x2FB PUSH32 0x0 DUP2 JUMP JUMPDEST PUSH1 0x40 MLOAD PUSH1 0x1 PUSH1 0x1 PUSH1 0xA0 SHL SUB SWAP1 SWAP2 AND DUP2 MSTORE PUSH1 0x20 ADD PUSH2 0x235 JUMP JUMPDEST PUSH2 0x22B PUSH2 0x7D0 DUP2 JUMP JUMPDEST PUSH2 0x32F PUSH2 0x32A CALLDATASIZE PUSH1 0x4 PUSH2 0x26E8 JUMP JUMPDEST PUSH2 0xB52 JUMP JUMPDEST PUSH1 0x40 MLOAD SWAP1 ISZERO ISZERO DUP2 MSTORE PUSH1 0x20 ADD PUSH2 0x235 JUMP JUMPDEST PUSH2 0x22B PUSH2 0x34D CALLDATASIZE PUSH1 0x4 PUSH2 0x26E8 JUMP JUMPDEST PUSH2 0xB80 JUMP JUMPDEST PUSH2 0x2AC PUSH2 0x360 CALLDATASIZE PUSH1 0x4 PUSH2 0x26E8 JUMP JUMPDEST PUSH2 0xBCE JUMP JUMPDEST PUSH2 0x378 PUSH2 0x373 CALLDATASIZE PUSH1 0x4 PUSH2 0x26E8 JUMP JUMPDEST PUSH2 0xD4D JUMP JUMPDEST PUSH1 0x40 MLOAD PUSH2 0x235 SWAP2 SWAP1 PUSH2 0x28AF JUMP JUMPDEST PUSH2 0x2AC PUSH2 0xDAF JUMP JUMPDEST PUSH2 0x2AC PUSH2 0x39B CALLDATASIZE PUSH1 0x4 PUSH2 0x2935 JUMP JUMPDEST PUSH2 0xDC3 JUMP JUMPDEST PUSH2 0x3B3 PUSH2 0x3AE CALLDATASIZE PUSH1 0x4 PUSH2 0x26E8 JUMP JUMPDEST PUSH2 0xE49 JUMP JUMPDEST PUSH1 0x40 MLOAD PUSH2 0x235 SWAP2 SWAP1 PUSH2 0x2981 JUMP JUMPDEST PUSH2 0x22B PUSH2 0x3CE CALLDATASIZE PUSH1 0x4 PUSH2 0x2994 JUMP JUMPDEST PUSH2 0xF50 JUMP JUMPDEST PUSH2 0x22B PUSH1 0x3 SLOAD DUP2 JUMP JUMPDEST PUSH1 0x0 SLOAD PUSH1 0x1 PUSH1 0x1 PUSH1 0xA0 SHL SUB AND PUSH2 0x2FB JUMP JUMPDEST PUSH2 0x400 PUSH2 0x3FB CALLDATASIZE PUSH1 0x4 PUSH2 0x26E8 JUMP JUMPDEST PUSH2 0x1292 JUMP JUMPDEST PUSH1 0x40 MLOAD PUSH2 0x235 SWAP2 SWAP1 PUSH2 0x2A16 JUMP JUMPDEST PUSH2 0x22B PUSH2 0xBB8 DUP2 JUMP JUMPDEST PUSH2 0x429 PUSH2 0x424 CALLDATASIZE PUSH1 0x4 PUSH2 0x2701 JUMP JUMPDEST PUSH2 0x14C8 JUMP JUMPDEST PUSH1 0x40 MLOAD PUSH2 0x235 SWAP2 SWAP1 PUSH2 0x2AEF JUMP JUMPDEST PUSH2 0x449 PUSH2 0x444 CALLDATASIZE PUSH1 0x4 PUSH2 0x26E8 JUMP JUMPDEST PUSH2 0x16FE JUMP JUMPDEST PUSH1 0x40 MLOAD PUSH2 0x235 SWAP14 SWAP13 SWAP12 SWAP11 SWAP10 SWAP9 SWAP8 SWAP7 SWAP6 SWAP5 SWAP4 SWAP3 SWAP2 SWAP1 PUSH2 0x2BAF JUMP JUMPDEST PUSH2 0x22B PUSH2 0x1388 DUP2 JUMP JUMPDEST PUSH2 0x22B PUSH2 0x479 CALLDATASIZE PUSH1 0x4 PUSH2 0x2C33 JUMP JUMPDEST PUSH2 0x1879 JUMP JUMPDEST PUSH2 0x32F PUSH2 0x48C CALLDATASIZE PUSH1 0x4 PUSH2 0x26E8 JUMP JUMPDEST PUSH2 0x1A8F JUMP JUMPDEST PUSH2 0x2AC PUSH2 0x49F CALLDATASIZE PUSH1 0x4 PUSH2 0x26E8 JUMP JUMPDEST PUSH2 0x1AC9 JUMP JUMPDEST PUSH2 0x22B PUSH3 0x186A00 DUP2 JUMP JUMPDEST PUSH2 0x22B PUSH2 0x2710 DUP2 JUMP JUMPDEST PUSH2 0x429 PUSH2 0x4C5 CALLDATASIZE PUSH1 0x4 PUSH2 0x26BE JUMP JUMPDEST PUSH2 0x1CB7 JUMP JUMPDEST PUSH2 0x2AC PUSH2 0x4D8 CALLDATASIZE PUSH1 0x4 PUSH2 0x2CB1 JUMP JUMPDEST PUSH2 0x1F4A JUMP JUMPDEST PUSH2 0x22B PUSH2 0x708 DUP2 JUMP JUMPDEST PUSH1 0x4 PUSH1 0x20 SWAP1 DUP2 MSTORE PUSH1 0x0 SWAP3 DUP4 MSTORE PUSH1 0x40 DUP1 DUP5 KECCAK256 SWAP1 SWAP2 MSTORE SWAP1 DUP3 MSTORE SWAP1 KECCAK256 DUP1 SLOAD PUSH1 0x1 DUP3 ADD SLOAD PUSH1 0x2 DUP4 ADD DUP1 SLOAD PUSH1 0x1 PUSH1 0x1 PUSH1 0xA0 SHL SUB SWAP1 SWAP4 AND SWAP4 SWAP2 SWAP3 PUSH2 0x523 SWAP1 PUSH2 0x2CCC JUMP JUMPDEST DUP1 PUSH1 0x1F ADD PUSH1 0x20 DUP1 SWAP2 DIV MUL PUSH1 0x20 ADD PUSH1 0x40 MLOAD SWAP1 DUP2 ADD PUSH1 0x40 MSTORE DUP1 SWAP3 SWAP2 SWAP1 DUP2 DUP2 MSTORE PUSH1 0x20 ADD DUP3 DUP1 SLOAD PUSH2 0x54F SWAP1 PUSH2 0x2CCC JUMP JUMPDEST DUP1 ISZERO PUSH2 0x59C JUMPI DUP1 PUSH1 0x1F LT PUSH2 0x571 JUMPI PUSH2 0x100 DUP1 DUP4 SLOAD DIV MUL DUP4 MSTORE SWAP2 PUSH1 0x20 ADD SWAP2 PUSH2 0x59C JUMP JUMPDEST DUP3 ADD SWAP2 SWAP1 PUSH1 0x0 MSTORE PUSH1 0x20 PUSH1 0x0 KECCAK256 SWAP1 JUMPDEST DUP2 SLOAD DUP2 MSTORE SWAP1 PUSH1 0x1 ADD SWAP1 PUSH1 0x20 ADD DUP1 DUP4 GT PUSH2 0x57F JUMPI DUP3 SWAP1 SUB PUSH1 0x1F AND DUP3 ADD SWAP2 JUMPDEST POP POP POP POP POP SWAP1 DUP1 PUSH1 0x3 ADD DUP1 SLOAD PUSH2 0x5B1 SWAP1 PUSH2 0x2CCC JUMP JUMPDEST DUP1 PUSH1 0x1F ADD PUSH1 0x20 DUP1 SWAP2 DIV MUL PUSH1 0x20 ADD PUSH1 0x40 MLOAD SWAP1 DUP2 ADD PUSH1 0x40 MSTORE DUP1 SWAP3 SWAP2 SWAP1 DUP2 DUP2 MSTORE PUSH1 0x20 ADD DUP3 DUP1 SLOAD PUSH2 0x5DD SWAP1 PUSH2 0x2CCC JUMP JUMPDEST DUP1 ISZERO PUSH2 0x62A JUMPI DUP1 PUSH1 0x1F LT PUSH2 0x5FF JUMPI PUSH2 0x100 DUP1 DUP4 SLOAD DIV MUL DUP4 MSTORE SWAP2 PUSH1 0x20 ADD SWAP2 PUSH2 0x62A JUMP JUMPDEST DUP3 ADD SWAP2 SWAP1 PUSH1 0x0 MSTORE PUSH1 0x20 PUSH1 0x0 KECCAK256 SWAP1 JUMPDEST DUP2 SLOAD DUP2 MSTORE SWAP1 PUSH1 0x1 ADD SWAP1 PUSH1 0x20 ADD DUP1 DUP4 GT PUSH2 0x60D JUMPI DUP3 SWAP1 SUB PUSH1 0x1F AND DUP3 ADD SWAP2 JUMPDEST POP POP POP POP POP SWAP1 DUP1 PUSH1 0x4 ADD DUP1 SLOAD PUSH2 0x63F SWAP1 PUSH2 0x2CCC JUMP JUMPDEST DUP1 PUSH1 0x1F ADD PUSH1 0x20 DUP1 SWAP2 DIV MUL PUSH1 0x20 ADD PUSH1 0x40 MLOAD SWAP1 DUP2 ADD PUSH1 0x40 MSTORE DUP1 SWAP3 SWAP2 SWAP1 DUP2 DUP2 MSTORE PUSH1 0x20 ADD DUP3 DUP1 SLOAD PUSH2 0x66B SWAP1 PUSH2 0x2CCC JUMP JUMPDEST DUP1 ISZERO PUSH2 0x6B8 JUMPI DUP1 PUSH1 0x1F LT PUSH2 0x68D JUMPI PUSH2 0x100 DUP1 DUP4 SLOAD DIV MUL DUP4 MSTORE SWAP2 PUSH1 0x20 ADD SWAP2 PUSH2 0x6B8 JUMP JUMPDEST DUP3 ADD SWAP2 SWAP1 PUSH1 0x0 MSTORE PUSH1 0x20 PUSH1 0x0 KECCAK256 SWAP1 JUMPDEST DUP2 SLOAD DUP2 MSTORE SWAP1 PUSH1 0x1 ADD SWAP1 PUSH1 0x20 ADD DUP1 DUP4 GT PUSH2 0x69B JUMPI DUP3 SWAP1 SUB PUSH1 0x1F AND DUP3 ADD SWAP2 JUMPDEST POP POP POP POP PUSH1 0x5 DUP4 ADD SLOAD PUSH1 0x6 DUP5 ADD SLOAD PUSH1 0x7 DUP6 ADD SLOAD PUSH1 0x8 SWAP1 SWAP6 ADD SLOAD SWAP4 SWAP5 SWAP2 SWAP4 SWAP1 SWAP3 POP PUSH1 0xFF AND DUP10 JUMP JUMPDEST PUSH1 0x0 DUP3 DUP2 MSTORE PUSH1 0x2 PUSH1 0x20 MSTORE PUSH1 0x40 DUP2 KECCAK256 PUSH1 0xA ADD SLOAD PUSH1 0xFF AND PUSH2 0x6FF JUMPI POP PUSH1 0x0 PUSH2 0x70C JUMP JUMPDEST PUSH2 0x709 DUP4 DUP4 PUSH2 0x1F85 JUMP JUMPDEST SWAP1 POP JUMPDEST SWAP3 SWAP2 POP POP JUMP JUMPDEST PUSH2 0x71A PUSH2 0x2154 JUMP JUMPDEST DUP3 DUP2 EQ PUSH2 0x760 JUMPI PUSH1 0x40 MLOAD PUSH3 0x461BCD PUSH1 0xE5 SHL DUP2 MSTORE PUSH1 0x20 PUSH1 0x4 DUP3 ADD MSTORE PUSH1 0xF PUSH1 0x24 DUP3 ADD MSTORE PUSH15 0x98CADCCEE8D040DAD2E6DAC2E8C6D PUSH1 0x8B SHL PUSH1 0x44 DUP3 ADD MSTORE PUSH1 0x64 ADD JUMPDEST PUSH1 0x40 MLOAD DUP1 SWAP2 SUB SWAP1 REVERT JUMPDEST PUSH1 0x0 DUP6 DUP2 MSTORE PUSH1 0x2 PUSH1 0x20 MSTORE PUSH1 0x40 SWAP1 KECCAK256 PUSH1 0x8 DUP2 ADD SLOAD TIMESTAMP LT ISZERO PUSH2 0x7B6 JUMPI PUSH1 0x40 MLOAD PUSH3 0x461BCD PUSH1 0xE5 SHL DUP2 MSTORE PUSH1 0x20 PUSH1 0x4 DUP3 ADD MSTORE PUSH1 0x11 PUSH1 0x24 DUP3 ADD MSTORE PUSH17 0x10DBDB9D195CDD081B9BDD08195B991959 PUSH1 0x7A SHL PUSH1 0x44 DUP3 ADD MSTORE PUSH1 0x64 ADD PUSH2 0x757 JUMP JUMPDEST PUSH1 0xA DUP2 ADD SLOAD PUSH1 0xFF AND ISZERO PUSH2 0x7FF JUMPI PUSH1 0x40 MLOAD PUSH3 0x461BCD PUSH1 0xE5 SHL DUP2 MSTORE PUSH1 0x20 PUSH1 0x4 DUP3 ADD MSTORE PUSH1 0x11 PUSH1 0x24 DUP3 ADD MSTORE PUSH17 0x105B1C9958591E48199A5B985B1A5E9959 PUSH1 0x7A SHL PUSH1 0x44 DUP3 ADD MSTORE PUSH1 0x64 ADD PUSH2 0x757 JUMP JUMPDEST PUSH1 0x0 JUMPDEST DUP5 DUP2 LT ISZERO PUSH2 0x947 JUMPI PUSH2 0xBB8 DUP5 DUP5 DUP4 DUP2 DUP2 LT PUSH2 0x81F JUMPI PUSH2 0x81F PUSH2 0x2D06 JUMP JUMPDEST SWAP1 POP PUSH1 0x20 MUL ADD CALLDATALOAD GT ISZERO PUSH2 0x866 JUMPI PUSH1 0x40 MLOAD PUSH3 0x461BCD PUSH1 0xE5 SHL DUP2 MSTORE PUSH1 0x20 PUSH1 0x4 DUP3 ADD MSTORE PUSH1 0xF PUSH1 0x24 DUP3 ADD MSTORE PUSH15 0x53636F7265206D61782033302E303 PUSH1 0x8C SHL PUSH1 0x44 DUP3 ADD MSTORE PUSH1 0x64 ADD PUSH2 0x757 JUMP JUMPDEST DUP4 DUP4 DUP3 DUP2 DUP2 LT PUSH2 0x878 JUMPI PUSH2 0x878 PUSH2 0x2D06 JUMP JUMPDEST SWAP1 POP PUSH1 0x20 MUL ADD CALLDATALOAD PUSH1 0x4 PUSH1 0x0 DUP10 DUP2 MSTORE PUSH1 0x20 ADD SWAP1 DUP2 MSTORE PUSH1 0x20 ADD PUSH1 0x0 KECCAK256 PUSH1 0x0 DUP9 DUP9 DUP6 DUP2 DUP2 LT PUSH2 0x8A6 JUMPI PUSH2 0x8A6 PUSH2 0x2D06 JUMP JUMPDEST SWAP1 POP PUSH1 0x20 MUL ADD CALLDATALOAD DUP2 MSTORE PUSH1 0x20 ADD SWAP1 DUP2 MSTORE PUSH1 0x20 ADD PUSH1 0x0 KECCAK256 PUSH1 0x6 ADD DUP2 SWAP1 SSTORE POP DUP7 PUSH32 0xBD75DE3DC3C4991F913F46DBBF63483DA155FABFF0F1E3C44E8F4D67133C554 DUP8 DUP8 DUP5 DUP2 DUP2 LT PUSH2 0x8F6 JUMPI PUSH2 0x8F6 PUSH2 0x2D06 JUMP JUMPDEST SWAP1 POP PUSH1 0x20 MUL ADD CALLDATALOAD DUP7 DUP7 DUP6 DUP2 DUP2 LT PUSH2 0x90F JUMPI PUSH2 0x90F PUSH2 0x2D06 JUMP JUMPDEST SWAP1 POP PUSH1 0x20 MUL ADD CALLDATALOAD PUSH1 0x40 MLOAD PUSH2 0x92D SWAP3 SWAP2 SWAP1 SWAP2 DUP3 MSTORE PUSH1 0x20 DUP3 ADD MSTORE PUSH1 0x40 ADD SWAP1 JUMP JUMPDEST PUSH1 0x40 MLOAD DUP1 SWAP2 SUB SWAP1 LOG2 DUP1 PUSH2 0x93F DUP2 PUSH2 0x2D32 JUMP JUMPDEST SWAP2 POP POP PUSH2 0x802 JUMP JUMPDEST POP POP POP POP POP POP POP JUMP JUMPDEST PUSH1 0x7 PUSH1 0x20 MSTORE DUP2 PUSH1 0x0 MSTORE PUSH1 0x40 PUSH1 0x0 KECCAK256 DUP2 DUP2 SLOAD DUP2 LT PUSH2 0x96C JUMPI PUSH1 0x0 DUP1 REVERT JUMPDEST SWAP1 PUSH1 0x0 MSTORE PUSH1 0x20 PUSH1 0x0 KECCAK256 ADD PUSH1 0x0 SWAP2 POP SWAP2 POP POP SLOAD DUP2 JUMP JUMPDEST PUSH2 0x989 PUSH2 0x2154 JUMP JUMPDEST PUSH1 0x0 DUP2 DUP2 MSTORE PUSH1 0x2 PUSH1 0x20 MSTORE PUSH1 0x40 SWAP1 KECCAK256 PUSH1 0x9 DUP2 ADD SLOAD TIMESTAMP LT ISZERO PUSH2 0x9EB JUMPI PUSH1 0x40 MLOAD PUSH3 0x461BCD PUSH1 0xE5 SHL DUP2 MSTORE PUSH1 0x20 PUSH1 0x4 DUP3 ADD MSTORE PUSH1 0x17 PUSH1 0x24 DUP3 ADD MSTORE PUSH32 0x4A756467696E67206E6F74207374617274656420796574000000000000000000 PUSH1 0x44 DUP3 ADD MSTORE PUSH1 0x64 ADD PUSH2 0x757 JUMP JUMPDEST PUSH1 0xA DUP2 ADD SLOAD PUSH1 0xFF AND ISZERO PUSH2 0xA34 JUMPI PUSH1 0x40 MLOAD PUSH3 0x461BCD PUSH1 0xE5 SHL DUP2 MSTORE PUSH1 0x20 PUSH1 0x4 DUP3 ADD MSTORE PUSH1 0x11 PUSH1 0x24 DUP3 ADD MSTORE PUSH17 0x105B1C9958591E48199A5B985B1A5E9959 PUSH1 0x7A SHL PUSH1 0x44 DUP3 ADD MSTORE PUSH1 0x64 ADD PUSH2 0x757 JUMP JUMPDEST PUSH1 0x0 DUP2 PUSH1 0xB ADD SLOAD GT PUSH2 0xA75 JUMPI PUSH1 0x40 MLOAD PUSH3 0x461BCD PUSH1 0xE5 SHL DUP2 MSTORE PUSH1 0x20 PUSH1 0x4 DUP3 ADD MSTORE PUSH1 0xA PUSH1 0x24 DUP3 ADD MSTORE PUSH10 0x4E6F20656E7472696573 PUSH1 0xB0 SHL PUSH1 0x44 DUP3 ADD MSTORE PUSH1 0x64 ADD PUSH2 0x757 JUMP JUMPDEST PUSH1 0x0 PUSH2 0x2710 PUSH2 0x7D0 DUP4 PUSH1 0x4 ADD SLOAD PUSH2 0xA8C SWAP2 SWAP1 PUSH2 0x2D4B JUMP JUMPDEST PUSH2 0xA96 SWAP2 SWAP1 PUSH2 0x2D62 JUMP JUMPDEST SWAP1 POP PUSH1 0x0 DUP2 DUP4 PUSH1 0x4 ADD SLOAD PUSH2 0xAAA SWAP2 SWAP1 PUSH2 0x2D84 JUMP JUMPDEST SWAP1 POP DUP2 DUP4 PUSH1 0x6 ADD DUP2 SWAP1 SSTORE POP DUP1 DUP4 PUSH1 0x5 ADD DUP2 SWAP1 SSTORE POP PUSH1 0x0 PUSH2 0xACE DUP6 DUP6 PUSH1 0xB ADD SLOAD PUSH2 0x2181 JUMP JUMPDEST SWAP1 POP PUSH1 0x0 PUSH2 0xADC DUP7 DUP4 PUSH2 0x2382 JUMP JUMPDEST PUSH1 0x0 DUP8 DUP2 MSTORE PUSH1 0x7 PUSH1 0x20 SWAP1 DUP2 MSTORE PUSH1 0x40 SWAP1 SWAP2 KECCAK256 DUP3 MLOAD SWAP3 SWAP4 POP PUSH2 0xB00 SWAP3 SWAP1 SWAP2 DUP5 ADD SWAP1 PUSH2 0x25EB JUMP JUMPDEST POP PUSH1 0xA DUP6 ADD DUP1 SLOAD PUSH1 0xFF NOT AND PUSH1 0x1 OR SWAP1 SSTORE PUSH1 0x40 MLOAD DUP7 SWAP1 PUSH32 0xBA1F40A2547AE5A0E571CD3C5BD0C540E1EDDEF837EA8ECB8B9B07A181020A98 SWAP1 PUSH2 0xB42 SWAP1 DUP5 SWAP1 PUSH2 0x28AF JUMP JUMPDEST PUSH1 0x40 MLOAD DUP1 SWAP2 SUB SWAP1 LOG2 POP POP POP POP POP POP JUMP JUMPDEST PUSH1 0x0 DUP2 DUP2 MSTORE PUSH1 0x2 PUSH1 0x20 MSTORE PUSH1 0x40 DUP2 KECCAK256 PUSH1 0x9 DUP2 ADD SLOAD TIMESTAMP LT DUP1 ISZERO SWAP1 PUSH2 0xB79 JUMPI POP PUSH1 0xA DUP2 ADD SLOAD PUSH1 0xFF AND ISZERO JUMPDEST SWAP4 SWAP3 POP POP POP JUMP JUMPDEST PUSH1 0x0 DUP2 DUP2 MSTORE PUSH1 0x2 PUSH1 0x20 MSTORE PUSH1 0x40 DUP2 KECCAK256 PUSH1 0x9 DUP2 ADD SLOAD TIMESTAMP LT PUSH2 0xBA2 JUMPI POP PUSH1 0x0 SWAP3 SWAP2 POP POP JUMP JUMPDEST DUP1 PUSH1 0x8 ADD SLOAD TIMESTAMP LT ISZERO PUSH2 0xBBE JUMPI TIMESTAMP DUP2 PUSH1 0x9 ADD SLOAD PUSH2 0xB79 SWAP2 SWAP1 PUSH2 0x2D84 JUMP JUMPDEST TIMESTAMP DUP2 PUSH1 0x9 ADD SLOAD PUSH2 0xB79 SWAP2 SWAP1 PUSH2 0x2D84 JUMP JUMPDEST PUSH2 0xBD6 PUSH2 0x2154 JUMP JUMPDEST PUSH1 0x0 DUP2 DUP2 MSTORE PUSH1 0x2 PUSH1 0x20 MSTORE PUSH1 0x40 SWAP1 KECCAK256 PUSH1 0xA DUP2 ADD SLOAD PUSH1 0xFF AND PUSH2 0xC28 JUMPI PUSH1 0x40 MLOAD PUSH3 0x461BCD PUSH1 0xE5 SHL DUP2 MSTORE PUSH1 0x20 PUSH1 0x4 DUP3 ADD MSTORE PUSH1 0xD PUSH1 0x24 DUP3 ADD MSTORE PUSH13 0x139BDD08199A5B985B1A5E9959 PUSH1 0x9A SHL PUSH1 0x44 DUP3 ADD MSTORE PUSH1 0x64 ADD PUSH2 0x757 JUMP JUMPDEST PUSH1 0xA DUP2 ADD SLOAD PUSH2 0x100 SWAP1 DIV PUSH1 0xFF AND ISZERO PUSH2 0xC7B JUMPI PUSH1 0x40 MLOAD PUSH3 0x461BCD PUSH1 0xE5 SHL DUP2 MSTORE PUSH1 0x20 PUSH1 0x4 DUP3 ADD MSTORE PUSH1 0x16 PUSH1 0x24 DUP3 ADD MSTORE PUSH22 0x2332B2B99030B63932B0B23C903BB4BA34323930BBB7 PUSH1 0x51 SHL PUSH1 0x44 DUP3 ADD MSTORE PUSH1 0x64 ADD PUSH2 0x757 JUMP JUMPDEST PUSH1 0x6 DUP2 ADD SLOAD DUP1 PUSH2 0xCB7 JUMPI PUSH1 0x40 MLOAD PUSH3 0x461BCD PUSH1 0xE5 SHL DUP2 MSTORE PUSH1 0x20 PUSH1 0x4 DUP3 ADD MSTORE PUSH1 0x7 PUSH1 0x24 DUP3 ADD MSTORE PUSH7 0x4E6F2066656573 PUSH1 0xC8 SHL PUSH1 0x44 DUP3 ADD MSTORE PUSH1 0x64 ADD PUSH2 0x757 JUMP JUMPDEST PUSH1 0xA DUP3 ADD DUP1 SLOAD PUSH2 0xFF00 NOT AND PUSH2 0x100 OR SWAP1 SSTORE PUSH2 0xD0E PUSH2 0xCDD PUSH1 0x0 SLOAD PUSH1 0x1 PUSH1 0x1 PUSH1 0xA0 SHL SUB AND SWAP1 JUMP JUMPDEST PUSH1 0x1 PUSH1 0x1 PUSH1 0xA0 SHL SUB PUSH32 0x0 AND SWAP1 DUP4 PUSH2 0x245D JUMP JUMPDEST DUP3 PUSH32 0xF175FE4C4704CC2F1E905CB3469231D686BAF5C0F07E11AABDC7EE9396882F2C DUP3 PUSH1 0x40 MLOAD PUSH2 0xD40 SWAP2 DUP2 MSTORE PUSH1 0x20 ADD SWAP1 JUMP JUMPDEST PUSH1 0x40 MLOAD DUP1 SWAP2 SUB SWAP1 LOG2 POP POP POP JUMP JUMPDEST PUSH1 0x0 DUP2 DUP2 MSTORE PUSH1 0x7 PUSH1 0x20 SWAP1 DUP2 MSTORE PUSH1 0x40 SWAP2 DUP3 SWAP1 KECCAK256 DUP1 SLOAD DUP4 MLOAD DUP2 DUP5 MUL DUP2 ADD DUP5 ADD SWAP1 SWAP5 MSTORE DUP1 DUP5 MSTORE PUSH1 0x60 SWAP4 SWAP3 DUP4 ADD DUP3 DUP3 DUP1 ISZERO PUSH2 0xDA3 JUMPI PUSH1 0x20 MUL DUP3 ADD SWAP2 SWAP1 PUSH1 0x0 MSTORE PUSH1 0x20 PUSH1 0x0 KECCAK256 SWAP1 JUMPDEST DUP2 SLOAD DUP2 MSTORE PUSH1 0x20 ADD SWAP1 PUSH1 0x1 ADD SWAP1 DUP1 DUP4 GT PUSH2 0xD8F JUMPI JUMPDEST POP POP POP POP POP SWAP1 POP SWAP2 SWAP1 POP JUMP JUMPDEST PUSH2 0xDB7 PUSH2 0x2154 JUMP JUMPDEST PUSH2 0xDC1 PUSH1 0x0 PUSH2 0x24C1 JUMP JUMPDEST JUMP JUMPDEST CALLER PUSH1 0x0 SWAP1 DUP2 MSTORE PUSH1 0x6 PUSH1 0x20 SWAP1 DUP2 MSTORE PUSH1 0x40 DUP1 DUP4 KECCAK256 DUP7 DUP5 MSTORE SWAP1 SWAP2 MSTORE SWAP1 KECCAK256 SLOAD DUP1 PUSH2 0xE1C JUMPI PUSH1 0x40 MLOAD PUSH3 0x461BCD PUSH1 0xE5 SHL DUP2 MSTORE PUSH1 0x20 PUSH1 0x4 DUP3 ADD MSTORE PUSH1 0xE PUSH1 0x24 DUP3 ADD MSTORE PUSH14 0x139BC8195B9D1C9E48199BDD5B99 PUSH1 0x92 SHL PUSH1 0x44 DUP3 ADD MSTORE PUSH1 0x64 ADD PUSH2 0x757 JUMP JUMPDEST PUSH1 0x0 DUP5 DUP2 MSTORE PUSH1 0x4 PUSH1 0x20 DUP2 DUP2 MSTORE PUSH1 0x40 DUP1 DUP5 KECCAK256 DUP6 DUP6 MSTORE SWAP1 SWAP2 MSTORE SWAP1 SWAP2 KECCAK256 ADD PUSH2 0xE42 DUP4 DUP6 DUP4 PUSH2 0x2DFB JUMP JUMPDEST POP POP POP POP POP JUMP JUMPDEST PUSH1 0x0 DUP2 DUP2 MSTORE PUSH1 0x2 PUSH1 0x20 MSTORE PUSH1 0x40 SWAP1 KECCAK256 PUSH1 0xA DUP2 ADD SLOAD PUSH1 0x60 SWAP2 SWAP1 PUSH1 0xFF AND ISZERO PUSH2 0xE8F JUMPI POP POP PUSH1 0x40 DUP1 MLOAD DUP1 DUP3 ADD SWAP1 SWAP2 MSTORE PUSH1 0x9 DUP2 MSTORE PUSH9 0x18DBDB5C1B195D1959 PUSH1 0xBA SHL PUSH1 0x20 DUP3 ADD MSTORE SWAP2 SWAP1 POP JUMP JUMPDEST DUP1 PUSH1 0x7 ADD SLOAD TIMESTAMP LT ISZERO PUSH2 0xEC1 JUMPI POP POP PUSH1 0x40 DUP1 MLOAD DUP1 DUP3 ADD SWAP1 SWAP2 MSTORE PUSH1 0x8 DUP2 MSTORE PUSH8 0x7570636F6D696E67 PUSH1 0xC0 SHL PUSH1 0x20 DUP3 ADD MSTORE SWAP2 SWAP1 POP JUMP JUMPDEST DUP1 PUSH1 0x8 ADD SLOAD TIMESTAMP LT ISZERO PUSH2 0xEF1 JUMPI POP POP PUSH1 0x40 DUP1 MLOAD DUP1 DUP3 ADD SWAP1 SWAP2 MSTORE PUSH1 0x6 DUP2 MSTORE PUSH6 0x616374697665 PUSH1 0xD0 SHL PUSH1 0x20 DUP3 ADD MSTORE SWAP2 SWAP1 POP JUMP JUMPDEST DUP1 PUSH1 0x9 ADD SLOAD TIMESTAMP LT ISZERO PUSH2 0xF2B JUMPI POP POP PUSH1 0x40 DUP1 MLOAD DUP1 DUP3 ADD SWAP1 SWAP2 MSTORE PUSH1 0x10 DUP2 MSTORE PUSH16 0x6177616974696E675F6A756467696E67 PUSH1 0x80 SHL PUSH1 0x20 DUP3 ADD MSTORE SWAP2 SWAP1 POP JUMP JUMPDEST POP POP PUSH1 0x40 DUP1 MLOAD DUP1 DUP3 ADD SWAP1 SWAP2 MSTORE PUSH1 0x7 DUP2 MSTORE PUSH7 0x6A756467696E67 PUSH1 0xC8 SHL PUSH1 0x20 DUP3 ADD MSTORE SWAP2 SWAP1 POP JUMP JUMPDEST PUSH1 0x0 PUSH2 0xF5A PUSH2 0x2511 JUMP JUMPDEST PUSH1 0x0 DUP8 DUP2 MSTORE PUSH1 0x2 PUSH1 0x20 MSTORE PUSH1 0x40 SWAP1 KECCAK256 PUSH1 0x8 DUP2 ADD SLOAD TIMESTAMP LT PUSH2 0xFAB JUMPI PUSH1 0x40 MLOAD PUSH3 0x461BCD PUSH1 0xE5 SHL DUP2 MSTORE PUSH1 0x20 PUSH1 0x4 DUP3 ADD MSTORE PUSH1 0xD PUSH1 0x24 DUP3 ADD MSTORE PUSH13 0x10DBDB9D195CDD08195B991959 PUSH1 0x9A SHL PUSH1 0x44 DUP3 ADD MSTORE PUSH1 0x64 ADD PUSH2 0x757 JUMP JUMPDEST DUP1 PUSH1 0x3 ADD SLOAD DUP4 LT ISZERO PUSH2 0xFF1 JUMPI PUSH1 0x40 MLOAD PUSH3 0x461BCD PUSH1 0xE5 SHL DUP2 MSTORE PUSH1 0x20 PUSH1 0x4 DUP3 ADD MSTORE PUSH1 0xF PUSH1 0x24 DUP3 ADD MSTORE PUSH15 0x42656C6F77206D696E207374616B65 PUSH1 0x88 SHL PUSH1 0x44 DUP3 ADD MSTORE PUSH1 0x64 ADD PUSH2 0x757 JUMP JUMPDEST CALLER PUSH1 0x0 SWAP1 DUP2 MSTORE PUSH1 0x6 PUSH1 0x20 SWAP1 DUP2 MSTORE PUSH1 0x40 DUP1 DUP4 KECCAK256 DUP12 DUP5 MSTORE SWAP1 SWAP2 MSTORE SWAP1 KECCAK256 SLOAD ISZERO PUSH2 0x104B JUMPI PUSH1 0x40 MLOAD PUSH3 0x461BCD PUSH1 0xE5 SHL DUP2 MSTORE PUSH1 0x20 PUSH1 0x4 DUP3 ADD MSTORE PUSH1 0xF PUSH1 0x24 DUP3 ADD MSTORE PUSH15 0x105B1C9958591E48195B9D195C9959 PUSH1 0x8A SHL PUSH1 0x44 DUP3 ADD MSTORE PUSH1 0x64 ADD PUSH2 0x757 JUMP JUMPDEST PUSH2 0x1080 PUSH1 0x1 PUSH1 0x1 PUSH1 0xA0 SHL SUB PUSH32 0x0 AND CALLER ADDRESS DUP7 PUSH2 0x253B JUMP JUMPDEST DUP3 DUP2 PUSH1 0x4 ADD PUSH1 0x0 DUP3 DUP3 SLOAD PUSH2 0x1094 SWAP2 SWAP1 PUSH2 0x2EBB JUMP JUMPDEST SWAP1 SWAP2 SSTORE POP POP PUSH1 0xB DUP2 ADD DUP1 SLOAD SWAP1 PUSH1 0x0 PUSH2 0x10AB DUP4 PUSH2 0x2D32 JUMP JUMPDEST SWAP2 SWAP1 POP SSTORE POP DUP1 PUSH1 0xB ADD SLOAD SWAP2 POP PUSH1 0x40 MLOAD DUP1 PUSH2 0x120 ADD PUSH1 0x40 MSTORE DUP1 CALLER PUSH1 0x1 PUSH1 0x1 PUSH1 0xA0 SHL SUB AND DUP2 MSTORE PUSH1 0x20 ADD DUP10 DUP2 MSTORE PUSH1 0x20 ADD DUP9 DUP9 DUP1 DUP1 PUSH1 0x1F ADD PUSH1 0x20 DUP1 SWAP2 DIV MUL PUSH1 0x20 ADD PUSH1 0x40 MLOAD SWAP1 DUP2 ADD PUSH1 0x40 MSTORE DUP1 SWAP4 SWAP3 SWAP2 SWAP1 DUP2 DUP2 MSTORE PUSH1 0x20 ADD DUP4 DUP4 DUP1 DUP3 DUP5 CALLDATACOPY PUSH1 0x0 SWAP3 ADD SWAP2 SWAP1 SWAP2 MSTORE POP POP POP SWAP1 DUP3 MSTORE POP PUSH1 0x40 DUP1 MLOAD PUSH1 0x20 PUSH1 0x1F DUP10 ADD DUP2 SWAP1 DIV DUP2 MUL DUP3 ADD DUP2 ADD SWAP1 SWAP3 MSTORE DUP8 DUP2 MSTORE SWAP2 DUP2 ADD SWAP2 SWAP1 DUP9 SWAP1 DUP9 SWAP1 DUP2 SWAP1 DUP5 ADD DUP4 DUP3 DUP1 DUP3 DUP5 CALLDATACOPY PUSH1 0x0 SWAP3 ADD DUP3 SWAP1 MSTORE POP SWAP4 DUP6 MSTORE POP POP PUSH1 0x40 DUP1 MLOAD PUSH1 0x20 DUP1 DUP3 ADD DUP4 MSTORE DUP5 DUP3 MSTORE DUP1 DUP7 ADD SWAP2 SWAP1 SWAP2 MSTORE DUP2 DUP6 ADD DUP10 SWAP1 MSTORE PUSH1 0x60 DUP6 ADD DUP5 SWAP1 MSTORE TIMESTAMP PUSH1 0x80 DUP7 ADD MSTORE PUSH1 0xA0 SWAP1 SWAP5 ADD DUP4 SWAP1 MSTORE DUP13 DUP4 MSTORE PUSH1 0x4 DUP5 MSTORE DUP1 DUP4 KECCAK256 DUP8 DUP5 MSTORE DUP5 MSTORE SWAP2 DUP3 SWAP1 KECCAK256 DUP5 MLOAD DUP2 SLOAD PUSH1 0x1 PUSH1 0x1 PUSH1 0xA0 SHL SUB NOT AND PUSH1 0x1 PUSH1 0x1 PUSH1 0xA0 SHL SUB SWAP1 SWAP2 AND OR DUP2 SSTORE SWAP3 DUP5 ADD MLOAD PUSH1 0x1 DUP5 ADD SSTORE POP DUP3 ADD MLOAD PUSH1 0x2 DUP3 ADD SWAP1 PUSH2 0x11C5 SWAP1 DUP3 PUSH2 0x2ECE JUMP JUMPDEST POP PUSH1 0x60 DUP3 ADD MLOAD PUSH1 0x3 DUP3 ADD SWAP1 PUSH2 0x11DA SWAP1 DUP3 PUSH2 0x2ECE JUMP JUMPDEST POP PUSH1 0x80 DUP3 ADD MLOAD PUSH1 0x4 DUP3 ADD SWAP1 PUSH2 0x11EF SWAP1 DUP3 PUSH2 0x2ECE JUMP JUMPDEST POP PUSH1 0xA0 DUP3 ADD MLOAD PUSH1 0x5 DUP3 ADD SSTORE PUSH1 0xC0 DUP3 ADD MLOAD PUSH1 0x6 DUP1 DUP4 ADD SWAP2 SWAP1 SWAP2 SSTORE PUSH1 0xE0 DUP4 ADD MLOAD PUSH1 0x7 DUP4 ADD SSTORE PUSH2 0x100 SWAP1 SWAP3 ADD MLOAD PUSH1 0x8 SWAP1 SWAP2 ADD DUP1 SLOAD PUSH1 0xFF NOT AND SWAP2 ISZERO ISZERO SWAP2 SWAP1 SWAP2 OR SWAP1 SSTORE CALLER PUSH1 0x0 DUP2 DUP2 MSTORE PUSH1 0x20 SWAP3 DUP4 MSTORE PUSH1 0x40 DUP1 DUP3 KECCAK256 DUP13 DUP4 MSTORE DUP5 MSTORE SWAP1 DUP2 SWAP1 KECCAK256 DUP6 SWAP1 SSTORE MLOAD DUP6 DUP2 MSTORE SWAP1 SWAP2 DUP5 SWAP2 DUP12 SWAP2 PUSH32 0x62ADE019EB1DC6078FCF187DE00A2A210308A05ABDFCCAE36BC47769C21BCE18 SWAP2 ADD PUSH1 0x40 MLOAD DUP1 SWAP2 SUB SWAP1 LOG4 POP PUSH2 0x1288 PUSH1 0x1 DUP1 SSTORE JUMP JUMPDEST SWAP7 SWAP6 POP POP POP POP POP POP JUMP JUMPDEST PUSH2 0x1301 PUSH1 0x40 MLOAD DUP1 PUSH2 0x1A0 ADD PUSH1 0x40 MSTORE DUP1 PUSH1 0x0 DUP2 MSTORE PUSH1 0x20 ADD PUSH1 0x60 DUP2 MSTORE PUSH1 0x20 ADD PUSH1 0x60 DUP2 MSTORE PUSH1 0x20 ADD PUSH1 0x0 DUP2 MSTORE PUSH1 0x20 ADD PUSH1 0x0 DUP2 MSTORE PUSH1 0x20 ADD PUSH1 0x0 DUP2 MSTORE PUSH1 0x20 ADD PUSH1 0x0 DUP2 MSTORE PUSH1 0x20 ADD PUSH1 0x0 DUP2 MSTORE PUSH1 0x20 ADD PUSH1 0x0 DUP2 MSTORE PUSH1 0x20 ADD PUSH1 0x0 DUP2 MSTORE PUSH1 0x20 ADD PUSH1 0x0 ISZERO ISZERO DUP2 MSTORE PUSH1 0x20 ADD PUSH1 0x0 ISZERO ISZERO DUP2 MSTORE PUSH1 0x20 ADD PUSH1 0x0 DUP2 MSTORE POP SWAP1 JUMP JUMPDEST PUSH1 0x2 PUSH1 0x0 DUP4 DUP2 MSTORE PUSH1 0x20 ADD SWAP1 DUP2 MSTORE PUSH1 0x20 ADD PUSH1 0x0 KECCAK256 PUSH1 0x40 MLOAD DUP1 PUSH2 0x1A0 ADD PUSH1 0x40 MSTORE SWAP1 DUP2 PUSH1 0x0 DUP3 ADD SLOAD DUP2 MSTORE PUSH1 0x20 ADD PUSH1 0x1 DUP3 ADD DUP1 SLOAD PUSH2 0x133A SWAP1 PUSH2 0x2CCC JUMP JUMPDEST DUP1 PUSH1 0x1F ADD PUSH1 0x20 DUP1 SWAP2 DIV MUL PUSH1 0x20 ADD PUSH1 0x40 MLOAD SWAP1 DUP2 ADD PUSH1 0x40 MSTORE DUP1 SWAP3 SWAP2 SWAP1 DUP2 DUP2 MSTORE PUSH1 0x20 ADD DUP3 DUP1 SLOAD PUSH2 0x1366 SWAP1 PUSH2 0x2CCC JUMP JUMPDEST DUP1 ISZERO PUSH2 0x13B3 JUMPI DUP1 PUSH1 0x1F LT PUSH2 0x1388 JUMPI PUSH2 0x100 DUP1 DUP4 SLOAD DIV MUL DUP4 MSTORE SWAP2 PUSH1 0x20 ADD SWAP2 PUSH2 0x13B3 JUMP JUMPDEST DUP3 ADD SWAP2 SWAP1 PUSH1 0x0 MSTORE PUSH1 0x20 PUSH1 0x0 KECCAK256 SWAP1 JUMPDEST DUP2 SLOAD DUP2 MSTORE SWAP1 PUSH1 0x1 ADD SWAP1 PUSH1 0x20 ADD DUP1 DUP4 GT PUSH2 0x1396 JUMPI DUP3 SWAP1 SUB PUSH1 0x1F AND DUP3 ADD SWAP2 JUMPDEST POP POP POP POP POP DUP2 MSTORE PUSH1 0x20 ADD PUSH1 0x2 DUP3 ADD DUP1 SLOAD PUSH2 0x13CC SWAP1 PUSH2 0x2CCC JUMP JUMPDEST DUP1 PUSH1 0x1F ADD PUSH1 0x20 DUP1 SWAP2 DIV MUL PUSH1 0x20 ADD PUSH1 0x40 MLOAD SWAP1 DUP2 ADD PUSH1 0x40 MSTORE DUP1 SWAP3 SWAP2 SWAP1 DUP2 DUP2 MSTORE PUSH1 0x20 ADD DUP3 DUP1 SLOAD PUSH2 0x13F8 SWAP1 PUSH2 0x2CCC JUMP JUMPDEST DUP1 ISZERO PUSH2 0x1445 JUMPI DUP1 PUSH1 0x1F LT PUSH2 0x141A JUMPI PUSH2 0x100 DUP1 DUP4 SLOAD DIV MUL DUP4 MSTORE SWAP2 PUSH1 0x20 ADD SWAP2 PUSH2 0x1445 JUMP JUMPDEST DUP3 ADD SWAP2 SWAP1 PUSH1 0x0 MSTORE PUSH1 0x20 PUSH1 0x0 KECCAK256 SWAP1 JUMPDEST DUP2 SLOAD DUP2 MSTORE SWAP1 PUSH1 0x1 ADD SWAP1 PUSH1 0x20 ADD DUP1 DUP4 GT PUSH2 0x1428 JUMPI DUP3 SWAP1 SUB PUSH1 0x1F AND DUP3 ADD SWAP2 JUMPDEST POP POP POP SWAP2 DUP4 MSTORE POP POP PUSH1 0x3 DUP3 ADD SLOAD PUSH1 0x20 DUP3 ADD MSTORE PUSH1 0x4 DUP3 ADD SLOAD PUSH1 0x40 DUP3 ADD MSTORE PUSH1 0x5 DUP3 ADD SLOAD PUSH1 0x60 DUP3 ADD MSTORE PUSH1 0x6 DUP3 ADD SLOAD PUSH1 0x80 DUP3 ADD MSTORE PUSH1 0x7 DUP3 ADD SLOAD PUSH1 0xA0 DUP3 ADD MSTORE PUSH1 0x8 DUP3 ADD SLOAD PUSH1 0xC0 DUP3 ADD MSTORE PUSH1 0x9 DUP3 ADD SLOAD PUSH1 0xE0 DUP3 ADD MSTORE PUSH1 0xA DUP3 ADD SLOAD PUSH1 0xFF DUP1 DUP3 AND ISZERO ISZERO PUSH2 0x100 DUP1 DUP6 ADD SWAP2 SWAP1 SWAP2 MSTORE SWAP1 SWAP2 DIV AND ISZERO ISZERO PUSH2 0x120 DUP3 ADD MSTORE PUSH1 0xB SWAP1 SWAP2 ADD SLOAD PUSH2 0x140 SWAP1 SWAP2 ADD MSTORE SWAP3 SWAP2 POP POP JUMP JUMPDEST PUSH2 0x14D0 PUSH2 0x2636 JUMP JUMPDEST PUSH1 0x0 DUP4 DUP2 MSTORE PUSH1 0x4 PUSH1 0x20 SWAP1 DUP2 MSTORE PUSH1 0x40 DUP1 DUP4 KECCAK256 DUP6 DUP5 MSTORE DUP3 MSTORE SWAP2 DUP3 SWAP1 KECCAK256 DUP3 MLOAD PUSH2 0x120 DUP2 ADD DUP5 MSTORE DUP2 SLOAD PUSH1 0x1 PUSH1 0x1 PUSH1 0xA0 SHL SUB AND DUP2 MSTORE PUSH1 0x1 DUP3 ADD SLOAD SWAP3 DUP2 ADD SWAP3 SWAP1 SWAP3 MSTORE PUSH1 0x2 DUP2 ADD DUP1 SLOAD SWAP3 SWAP4 SWAP2 SWAP3 SWAP2 DUP5 ADD SWAP2 PUSH2 0x1523 SWAP1 PUSH2 0x2CCC JUMP JUMPDEST DUP1 PUSH1 0x1F ADD PUSH1 0x20 DUP1 SWAP2 DIV MUL PUSH1 0x20 ADD PUSH1 0x40 MLOAD SWAP1 DUP2 ADD PUSH1 0x40 MSTORE DUP1 SWAP3 SWAP2 SWAP1 DUP2 DUP2 MSTORE PUSH1 0x20 ADD DUP3 DUP1 SLOAD PUSH2 0x154F SWAP1 PUSH2 0x2CCC JUMP JUMPDEST DUP1 ISZERO PUSH2 0x159C JUMPI DUP1 PUSH1 0x1F LT PUSH2 0x1571 JUMPI PUSH2 0x100 DUP1 DUP4 SLOAD DIV MUL DUP4 MSTORE SWAP2 PUSH1 0x20 ADD SWAP2 PUSH2 0x159C JUMP JUMPDEST DUP3 ADD SWAP2 SWAP1 PUSH1 0x0 MSTORE PUSH1 0x20 PUSH1 0x0 KECCAK256 SWAP1 JUMPDEST DUP2 SLOAD DUP2 MSTORE SWAP1 PUSH1 0x1 ADD SWAP1 PUSH1 0x20 ADD DUP1 DUP4 GT PUSH2 0x157F JUMPI DUP3 SWAP1 SUB PUSH1 0x1F AND DUP3 ADD SWAP2 JUMPDEST POP POP POP POP POP DUP2 MSTORE PUSH1 0x20 ADD PUSH1 0x3 DUP3 ADD DUP1 SLOAD PUSH2 0x15B5 SWAP1 PUSH2 0x2CCC JUMP JUMPDEST DUP1 PUSH1 0x1F ADD PUSH1 0x20 DUP1 SWAP2 DIV MUL PUSH1 0x20 ADD PUSH1 0x40 MLOAD SWAP1 DUP2 ADD PUSH1 0x40 MSTORE DUP1 SWAP3 SWAP2 SWAP1 DUP2 DUP2 MSTORE PUSH1 0x20 ADD DUP3 DUP1 SLOAD PUSH2 0x15E1 SWAP1 PUSH2 0x2CCC JUMP JUMPDEST DUP1 ISZERO PUSH2 0x162E JUMPI DUP1 PUSH1 0x1F LT PUSH2 0x1603 JUMPI PUSH2 0x100 DUP1 DUP4 SLOAD DIV MUL DUP4 MSTORE SWAP2 PUSH1 0x20 ADD SWAP2 PUSH2 0x162E JUMP JUMPDEST DUP3 ADD SWAP2 SWAP1 PUSH1 0x0 MSTORE PUSH1 0x20 PUSH1 0x0 KECCAK256 SWAP1 JUMPDEST DUP2 SLOAD DUP2 MSTORE SWAP1 PUSH1 0x1 ADD SWAP1 PUSH1 0x20 ADD DUP1 DUP4 GT PUSH2 0x1611 JUMPI DUP3 SWAP1 SUB PUSH1 0x1F AND DUP3 ADD SWAP2 JUMPDEST POP POP POP POP POP DUP2 MSTORE PUSH1 0x20 ADD PUSH1 0x4 DUP3 ADD DUP1 SLOAD PUSH2 0x1647 SWAP1 PUSH2 0x2CCC JUMP JUMPDEST DUP1 PUSH1 0x1F ADD PUSH1 0x20 DUP1 SWAP2 DIV MUL PUSH1 0x20 ADD PUSH1 0x40 MLOAD SWAP1 DUP2 ADD PUSH1 0x40 MSTORE DUP1 SWAP3 SWAP2 SWAP1 DUP2 DUP2 MSTORE PUSH1 0x20 ADD DUP3 DUP1 SLOAD PUSH2 0x1673 SWAP1 PUSH2 0x2CCC JUMP JUMPDEST DUP1 ISZERO PUSH2 0x16C0 JUMPI DUP1 PUSH1 0x1F LT PUSH2 0x1695 JUMPI PUSH2 0x100 DUP1 DUP4 SLOAD DIV MUL DUP4 MSTORE SWAP2 PUSH1 0x20 ADD SWAP2 PUSH2 0x16C0 JUMP JUMPDEST DUP3 ADD SWAP2 SWAP1 PUSH1 0x0 MSTORE PUSH1 0x20 PUSH1 0x0 KECCAK256 SWAP1 JUMPDEST DUP2 SLOAD DUP2 MSTORE SWAP1 PUSH1 0x1 ADD SWAP1 PUSH1 0x20 ADD DUP1 DUP4 GT PUSH2 0x16A3 JUMPI DUP3 SWAP1 SUB PUSH1 0x1F AND DUP3 ADD SWAP2 JUMPDEST POP POP POP SWAP2 DUP4 MSTORE POP POP PUSH1 0x5 DUP3 ADD SLOAD PUSH1 0x20 DUP3 ADD MSTORE PUSH1 0x6 DUP3 ADD SLOAD PUSH1 0x40 DUP3 ADD MSTORE PUSH1 0x7 DUP3 ADD SLOAD PUSH1 0x60 DUP3 ADD MSTORE PUSH1 0x8 SWAP1 SWAP2 ADD SLOAD PUSH1 0xFF AND ISZERO ISZERO PUSH1 0x80 SWAP1 SWAP2 ADD MSTORE SWAP4 SWAP3 POP POP POP JUMP JUMPDEST PUSH1 0x2 PUSH1 0x20 MSTORE PUSH1 0x0 SWAP1 DUP2 MSTORE PUSH1 0x40 SWAP1 KECCAK256 DUP1 SLOAD PUSH1 0x1 DUP3 ADD DUP1 SLOAD SWAP2 SWAP3 SWAP2 PUSH2 0x1720 SWAP1 PUSH2 0x2CCC JUMP JUMPDEST DUP1 PUSH1 0x1F ADD PUSH1 0x20 DUP1 SWAP2 DIV MUL PUSH1 0x20 ADD PUSH1 0x40 MLOAD SWAP1 DUP2 ADD PUSH1 0x40 MSTORE DUP1 SWAP3 SWAP2 SWAP1 DUP2 DUP2 MSTORE PUSH1 0x20 ADD DUP3 DUP1 SLOAD PUSH2 0x174C SWAP1 PUSH2 0x2CCC JUMP JUMPDEST DUP1 ISZERO PUSH2 0x1799 JUMPI DUP1 PUSH1 0x1F LT PUSH2 0x176E JUMPI PUSH2 0x100 DUP1 DUP4 SLOAD DIV MUL DUP4 MSTORE SWAP2 PUSH1 0x20 ADD SWAP2 PUSH2 0x1799 JUMP JUMPDEST DUP3 ADD SWAP2 SWAP1 PUSH1 0x0 MSTORE PUSH1 0x20 PUSH1 0x0 KECCAK256 SWAP1 JUMPDEST DUP2 SLOAD DUP2 MSTORE SWAP1 PUSH1 0x1 ADD SWAP1 PUSH1 0x20 ADD DUP1 DUP4 GT PUSH2 0x177C JUMPI DUP3 SWAP1 SUB PUSH1 0x1F AND DUP3 ADD SWAP2 JUMPDEST POP POP POP POP POP SWAP1 DUP1 PUSH1 0x2 ADD DUP1 SLOAD PUSH2 0x17AE SWAP1 PUSH2 0x2CCC JUMP JUMPDEST DUP1 PUSH1 0x1F ADD PUSH1 0x20 DUP1 SWAP2 DIV MUL PUSH1 0x20 ADD PUSH1 0x40 MLOAD SWAP1 DUP2 ADD PUSH1 0x40 MSTORE DUP1 SWAP3 SWAP2 SWAP1 DUP2 DUP2 MSTORE PUSH1 0x20 ADD DUP3 DUP1 SLOAD PUSH2 0x17DA SWAP1 PUSH2 0x2CCC JUMP JUMPDEST DUP1 ISZERO PUSH2 0x1827 JUMPI DUP1 PUSH1 0x1F LT PUSH2 0x17FC JUMPI PUSH2 0x100 DUP1 DUP4 SLOAD DIV MUL DUP4 MSTORE SWAP2 PUSH1 0x20 ADD SWAP2 PUSH2 0x1827 JUMP JUMPDEST DUP3 ADD SWAP2 SWAP1 PUSH1 0x0 MSTORE PUSH1 0x20 PUSH1 0x0 KECCAK256 SWAP1 JUMPDEST DUP2 SLOAD DUP2 MSTORE SWAP1 PUSH1 0x1 ADD SWAP1 PUSH1 0x20 ADD DUP1 DUP4 GT PUSH2 0x180A JUMPI DUP3 SWAP1 SUB PUSH1 0x1F AND DUP3 ADD SWAP2 JUMPDEST POP POP POP PUSH1 0x3 DUP5 ADD SLOAD PUSH1 0x4 DUP6 ADD SLOAD PUSH1 0x5 DUP7 ADD SLOAD PUSH1 0x6 DUP8 ADD SLOAD PUSH1 0x7 DUP9 ADD SLOAD PUSH1 0x8 DUP10 ADD SLOAD PUSH1 0x9 DUP11 ADD SLOAD PUSH1 0xA DUP12 ADD SLOAD PUSH1 0xB SWAP1 SWAP12 ADD SLOAD SWAP10 SWAP11 SWAP7 SWAP10 SWAP6 SWAP9 POP SWAP4 SWAP7 POP SWAP2 SWAP5 SWAP1 SWAP4 SWAP2 SWAP3 SWAP2 PUSH1 0xFF DUP1 DUP4 AND SWAP3 PUSH2 0x100 SWAP1 DIV AND SWAP1 DUP14 JUMP JUMPDEST PUSH1 0x0 PUSH2 0x1883 PUSH2 0x2154 JUMP JUMPDEST PUSH1 0x3 PUSH1 0x0 DUP2 SLOAD PUSH2 0x1892 SWAP1 PUSH2 0x2D32 JUMP JUMPDEST SWAP2 DUP3 SWAP1 SSTORE POP SWAP1 POP PUSH1 0x0 PUSH2 0x18A5 DUP4 TIMESTAMP PUSH2 0x2EBB JUMP JUMPDEST SWAP1 POP PUSH1 0x40 MLOAD DUP1 PUSH2 0x1A0 ADD PUSH1 0x40 MSTORE DUP1 DUP4 DUP2 MSTORE PUSH1 0x20 ADD DUP10 DUP10 DUP1 DUP1 PUSH1 0x1F ADD PUSH1 0x20 DUP1 SWAP2 DIV MUL PUSH1 0x20 ADD PUSH1 0x40 MLOAD SWAP1 DUP2 ADD PUSH1 0x40 MSTORE DUP1 SWAP4 SWAP3 SWAP2 SWAP1 DUP2 DUP2 MSTORE PUSH1 0x20 ADD DUP4 DUP4 DUP1 DUP3 DUP5 CALLDATACOPY PUSH1 0x0 SWAP3 ADD SWAP2 SWAP1 SWAP2 MSTORE POP POP POP SWAP1 DUP3 MSTORE POP PUSH1 0x40 DUP1 MLOAD PUSH1 0x20 PUSH1 0x1F DUP11 ADD DUP2 SWAP1 DIV DUP2 MUL DUP3 ADD DUP2 ADD SWAP1 SWAP3 MSTORE DUP9 DUP2 MSTORE SWAP2 DUP2 ADD SWAP2 SWAP1 DUP10 SWAP1 DUP10 SWAP1 DUP2 SWAP1 DUP5 ADD DUP4 DUP3 DUP1 DUP3 DUP5 CALLDATACOPY PUSH1 0x0 SWAP3 ADD DUP3 SWAP1 MSTORE POP SWAP4 DUP6 MSTORE POP POP POP PUSH1 0x20 DUP3 ADD DUP8 SWAP1 MSTORE PUSH1 0x40 DUP3 ADD DUP2 SWAP1 MSTORE PUSH1 0x60 DUP3 ADD DUP2 SWAP1 MSTORE PUSH1 0x80 DUP3 ADD MSTORE TIMESTAMP PUSH1 0xA0 DUP3 ADD MSTORE PUSH1 0xC0 DUP2 ADD DUP4 SWAP1 MSTORE PUSH1 0xE0 ADD PUSH2 0x1962 PUSH2 0x708 DUP5 PUSH2 0x2EBB JUMP JUMPDEST DUP2 MSTORE PUSH1 0x0 PUSH1 0x20 DUP1 DUP4 ADD DUP3 SWAP1 MSTORE PUSH1 0x40 DUP1 DUP5 ADD DUP4 SWAP1 MSTORE PUSH1 0x60 SWAP1 SWAP4 ADD DUP3 SWAP1 MSTORE DUP6 DUP3 MSTORE PUSH1 0x2 DUP2 MSTORE SWAP2 SWAP1 KECCAK256 DUP3 MLOAD DUP2 SSTORE SWAP1 DUP3 ADD MLOAD PUSH1 0x1 DUP3 ADD SWAP1 PUSH2 0x199F SWAP1 DUP3 PUSH2 0x2ECE JUMP JUMPDEST POP PUSH1 0x40 DUP3 ADD MLOAD PUSH1 0x2 DUP3 ADD SWAP1 PUSH2 0x19B4 SWAP1 DUP3 PUSH2 0x2ECE JUMP JUMPDEST POP PUSH1 0x60 DUP3 ADD MLOAD PUSH1 0x3 DUP3 ADD SSTORE PUSH1 0x80 DUP3 ADD MLOAD PUSH1 0x4 DUP3 ADD SSTORE PUSH1 0xA0 DUP3 ADD MLOAD PUSH1 0x5 DUP3 ADD SSTORE PUSH1 0xC0 DUP3 ADD MLOAD PUSH1 0x6 DUP3 ADD SSTORE PUSH1 0xE0 DUP3 ADD MLOAD PUSH1 0x7 DUP3 ADD SSTORE PUSH2 0x100 DUP1 DUP4 ADD MLOAD PUSH1 0x8 DUP4 ADD SSTORE PUSH2 0x120 DUP4 ADD MLOAD PUSH1 0x9 DUP4 ADD SSTORE PUSH2 0x140 DUP4 ADD MLOAD PUSH1 0xA DUP4 ADD DUP1 SLOAD PUSH2 0x160 DUP7 ADD MLOAD PUSH2 0xFFFF NOT SWAP1 SWAP2 AND SWAP3 ISZERO ISZERO PUSH2 0xFF00 NOT AND SWAP3 SWAP1 SWAP3 OR SWAP2 ISZERO ISZERO SWAP1 SWAP3 MUL OR SWAP1 SSTORE PUSH2 0x180 SWAP1 SWAP2 ADD MLOAD PUSH1 0xB SWAP1 SWAP2 ADD SSTORE DUP2 PUSH32 0xFEA47FAD72A45B1836979558841789E02B2E3262E40173545FF9AD89B57CD514 DUP10 DUP10 DUP10 DUP10 DUP10 PUSH2 0x1A6A DUP11 TIMESTAMP PUSH2 0x2EBB JUMP JUMPDEST PUSH1 0x40 MLOAD PUSH2 0x1A7C SWAP7 SWAP6 SWAP5 SWAP4 SWAP3 SWAP2 SWAP1 PUSH2 0x2FB7 JUMP JUMPDEST PUSH1 0x40 MLOAD DUP1 SWAP2 SUB SWAP1 LOG2 POP SWAP7 SWAP6 POP POP POP POP POP POP JUMP JUMPDEST PUSH1 0x0 DUP2 DUP2 MSTORE PUSH1 0x2 PUSH1 0x20 MSTORE PUSH1 0x40 DUP2 KECCAK256 PUSH1 0x7 DUP2 ADD SLOAD TIMESTAMP LT DUP1 ISZERO SWAP1 PUSH2 0x1AB4 JUMPI POP DUP1 PUSH1 0x8 ADD SLOAD TIMESTAMP LT JUMPDEST DUP1 ISZERO PUSH2 0xB79 JUMPI POP PUSH1 0xA ADD SLOAD PUSH1 0xFF AND ISZERO SWAP3 SWAP2 POP POP JUMP JUMPDEST PUSH2 0x1AD1 PUSH2 0x2511 JUMP JUMPDEST PUSH1 0x0 DUP2 DUP2 MSTORE PUSH1 0x2 PUSH1 0x20 MSTORE PUSH1 0x40 SWAP1 KECCAK256 PUSH1 0xA DUP2 ADD SLOAD PUSH1 0xFF AND PUSH2 0x1B23 JUMPI PUSH1 0x40 MLOAD PUSH3 0x461BCD PUSH1 0xE5 SHL DUP2 MSTORE PUSH1 0x20 PUSH1 0x4 DUP3 ADD MSTORE PUSH1 0xD PUSH1 0x24 DUP3 ADD MSTORE PUSH13 0x139BDD08199A5B985B1A5E9959 PUSH1 0x9A SHL PUSH1 0x44 DUP3 ADD MSTORE PUSH1 0x64 ADD PUSH2 0x757 JUMP JUMPDEST CALLER PUSH1 0x0 SWAP1 DUP2 MSTORE PUSH1 0x6 PUSH1 0x20 SWAP1 DUP2 MSTORE PUSH1 0x40 DUP1 DUP4 KECCAK256 DUP6 DUP5 MSTORE SWAP1 SWAP2 MSTORE SWAP1 KECCAK256 SLOAD DUP1 PUSH2 0x1B76 JUMPI PUSH1 0x40 MLOAD PUSH3 0x461BCD PUSH1 0xE5 SHL DUP2 MSTORE PUSH1 0x20 PUSH1 0x4 DUP3 ADD MSTORE PUSH1 0x8 PUSH1 0x24 DUP3 ADD MSTORE PUSH8 0x4E6F20656E747279 PUSH1 0xC0 SHL PUSH1 0x44 DUP3 ADD MSTORE PUSH1 0x64 ADD PUSH2 0x757 JUMP JUMPDEST PUSH1 0x0 DUP4 DUP2 MSTORE PUSH1 0x4 PUSH1 0x20 SWAP1 DUP2 MSTORE PUSH1 0x40 DUP1 DUP4 KECCAK256 DUP5 DUP5 MSTORE SWAP1 SWAP2 MSTORE SWAP1 KECCAK256 PUSH1 0x8 DUP2 ADD SLOAD PUSH1 0xFF AND ISZERO PUSH2 0x1BD6 JUMPI PUSH1 0x40 MLOAD PUSH3 0x461BCD PUSH1 0xE5 SHL DUP2 MSTORE PUSH1 0x20 PUSH1 0x4 DUP3 ADD MSTORE PUSH1 0xF PUSH1 0x24 DUP3 ADD MSTORE PUSH15 0x105B1C9958591E4818DB185A5B5959 PUSH1 0x8A SHL PUSH1 0x44 DUP3 ADD MSTORE PUSH1 0x64 ADD PUSH2 0x757 JUMP JUMPDEST PUSH1 0x0 PUSH2 0x1BE2 DUP6 DUP5 PUSH2 0x1F85 JUMP JUMPDEST SWAP1 POP PUSH1 0x0 DUP2 GT PUSH2 0x1C1F JUMPI PUSH1 0x40 MLOAD PUSH3 0x461BCD PUSH1 0xE5 SHL DUP2 MSTORE PUSH1 0x20 PUSH1 0x4 DUP3 ADD MSTORE PUSH1 0x8 PUSH1 0x24 DUP3 ADD MSTORE PUSH8 0x4E6F207072697A65 PUSH1 0xC0 SHL PUSH1 0x44 DUP3 ADD MSTORE PUSH1 0x64 ADD PUSH2 0x757 JUMP JUMPDEST PUSH1 0x8 DUP3 ADD DUP1 SLOAD PUSH1 0xFF NOT AND PUSH1 0x1 OR SWAP1 SSTORE PUSH2 0x1C62 PUSH1 0x1 PUSH1 0x1 PUSH1 0xA0 SHL SUB PUSH32 0x0 AND CALLER DUP4 PUSH2 0x245D JUMP JUMPDEST CALLER PUSH1 0x1 PUSH1 0x1 PUSH1 0xA0 SHL SUB AND DUP4 DUP7 PUSH32 0x608C8C3C6A3D40F40B96FBEE44F9B9AEE57A39C2FCB8BB0F59D8892B2D5492A2 DUP5 PUSH1 0x40 MLOAD PUSH2 0x1C9F SWAP2 DUP2 MSTORE PUSH1 0x20 ADD SWAP1 JUMP JUMPDEST PUSH1 0x40 MLOAD DUP1 SWAP2 SUB SWAP1 LOG4 POP POP POP POP PUSH2 0x1CB4 PUSH1 0x1 DUP1 SSTORE JUMP JUMPDEST POP JUMP JUMPDEST PUSH2 0x1CBF PUSH2 0x2636 JUMP JUMPDEST PUSH1 0x1 PUSH1 0x1 PUSH1 0xA0 SHL SUB DUP4 AND PUSH1 0x0 SWAP1 DUP2 MSTORE PUSH1 0x6 PUSH1 0x20 SWAP1 DUP2 MSTORE PUSH1 0x40 DUP1 DUP4 KECCAK256 DUP6 DUP5 MSTORE SWAP1 SWAP2 MSTORE SWAP1 KECCAK256 SLOAD DUP1 PUSH2 0x1D1B JUMPI PUSH1 0x40 MLOAD PUSH3 0x461BCD PUSH1 0xE5 SHL DUP2 MSTORE PUSH1 0x20 PUSH1 0x4 DUP3 ADD MSTORE PUSH1 0x8 PUSH1 0x24 DUP3 ADD MSTORE PUSH8 0x4E6F20656E747279 PUSH1 0xC0 SHL PUSH1 0x44 DUP3 ADD MSTORE PUSH1 0x64 ADD PUSH2 0x757 JUMP JUMPDEST PUSH1 0x0 DUP4 DUP2 MSTORE PUSH1 0x4 PUSH1 0x20 SWAP1 DUP2 MSTORE PUSH1 0x40 DUP1 DUP4 KECCAK256 DUP5 DUP5 MSTORE DUP3 MSTORE SWAP2 DUP3 SWAP1 KECCAK256 DUP3 MLOAD PUSH2 0x120 DUP2 ADD DUP5 MSTORE DUP2 SLOAD PUSH1 0x1 PUSH1 0x1 PUSH1 0xA0 SHL SUB AND DUP2 MSTORE PUSH1 0x1 DUP3 ADD SLOAD SWAP3 DUP2 ADD SWAP3 SWAP1 SWAP3 MSTORE PUSH1 0x2 DUP2 ADD DUP1 SLOAD SWAP3 SWAP4 SWAP2 SWAP3 SWAP2 DUP5 ADD SWAP2 PUSH2 0x1D6E SWAP1 PUSH2 0x2CCC JUMP JUMPDEST DUP1 PUSH1 0x1F ADD PUSH1 0x20 DUP1 SWAP2 DIV MUL PUSH1 0x20 ADD PUSH1 0x40 MLOAD SWAP1 DUP2 ADD PUSH1 0x40 MSTORE DUP1 SWAP3 SWAP2 SWAP1 DUP2 DUP2 MSTORE PUSH1 0x20 ADD DUP3 DUP1 SLOAD PUSH2 0x1D9A SWAP1 PUSH2 0x2CCC JUMP JUMPDEST DUP1 ISZERO PUSH2 0x1DE7 JUMPI DUP1 PUSH1 0x1F LT PUSH2 0x1DBC JUMPI PUSH2 0x100 DUP1 DUP4 SLOAD DIV MUL DUP4 MSTORE SWAP2 PUSH1 0x20 ADD SWAP2 PUSH2 0x1DE7 JUMP JUMPDEST DUP3 ADD SWAP2 SWAP1 PUSH1 0x0 MSTORE PUSH1 0x20 PUSH1 0x0 KECCAK256 SWAP1 JUMPDEST DUP2 SLOAD DUP2 MSTORE SWAP1 PUSH1 0x1 ADD SWAP1 PUSH1 0x20 ADD DUP1 DUP4 GT PUSH2 0x1DCA JUMPI DUP3 SWAP1 SUB PUSH1 0x1F AND DUP3 ADD SWAP2 JUMPDEST POP POP POP POP POP DUP2 MSTORE PUSH1 0x20 ADD PUSH1 0x3 DUP3 ADD DUP1 SLOAD PUSH2 0x1E00 SWAP1 PUSH2 0x2CCC JUMP JUMPDEST DUP1 PUSH1 0x1F ADD PUSH1 0x20 DUP1 SWAP2 DIV MUL PUSH1 0x20 ADD PUSH1 0x40 MLOAD SWAP1 DUP2 ADD PUSH1 0x40 MSTORE DUP1 SWAP3 SWAP2 SWAP1 DUP2 DUP2 MSTORE PUSH1 0x20 ADD DUP3 DUP1 SLOAD PUSH2 0x1E2C SWAP1 PUSH2 0x2CCC JUMP JUMPDEST DUP1 ISZERO PUSH2 0x1E79 JUMPI DUP1 PUSH1 0x1F LT PUSH2 0x1E4E JUMPI PUSH2 0x100 DUP1 DUP4 SLOAD DIV MUL DUP4 MSTORE SWAP2 PUSH1 0x20 ADD SWAP2 PUSH2 0x1E79 JUMP JUMPDEST DUP3 ADD SWAP2 SWAP1 PUSH1 0x0 MSTORE PUSH1 0x20 PUSH1 0x0 KECCAK256 SWAP1 JUMPDEST DUP2 SLOAD DUP2 MSTORE SWAP1 PUSH1 0x1 ADD SWAP1 PUSH1 0x20 ADD DUP1 DUP4 GT PUSH2 0x1E5C JUMPI DUP3 SWAP1 SUB PUSH1 0x1F AND DUP3 ADD SWAP2 JUMPDEST POP POP POP POP POP DUP2 MSTORE PUSH1 0x20 ADD PUSH1 0x4 DUP3 ADD DUP1 SLOAD PUSH2 0x1E92 SWAP1 PUSH2 0x2CCC JUMP JUMPDEST DUP1 PUSH1 0x1F ADD PUSH1 0x20 DUP1 SWAP2 DIV MUL PUSH1 0x20 ADD PUSH1 0x40 MLOAD SWAP1 DUP2 ADD PUSH1 0x40 MSTORE DUP1 SWAP3 SWAP2 SWAP1 DUP2 DUP2 MSTORE PUSH1 0x20 ADD DUP3 DUP1 SLOAD PUSH2 0x1EBE SWAP1 PUSH2 0x2CCC JUMP JUMPDEST DUP1 ISZERO PUSH2 0x1F0B JUMPI DUP1 PUSH1 0x1F LT PUSH2 0x1EE0 JUMPI PUSH2 0x100 DUP1 DUP4 SLOAD DIV MUL DUP4 MSTORE SWAP2 PUSH1 0x20 ADD SWAP2 PUSH2 0x1F0B JUMP JUMPDEST DUP3 ADD SWAP2 SWAP1 PUSH1 0x0 MSTORE PUSH1 0x20 PUSH1 0x0 KECCAK256 SWAP1 JUMPDEST DUP2 SLOAD DUP2 MSTORE SWAP1 PUSH1 0x1 ADD SWAP1 PUSH1 0x20 ADD DUP1 DUP4 GT PUSH2 0x1EEE JUMPI DUP3 SWAP1 SUB PUSH1 0x1F AND DUP3 ADD SWAP2 JUMPDEST POP POP POP SWAP2 DUP4 MSTORE POP POP PUSH1 0x5 DUP3 ADD SLOAD PUSH1 0x20 DUP3 ADD MSTORE PUSH1 0x6 DUP3 ADD SLOAD PUSH1 0x40 DUP3 ADD MSTORE PUSH1 0x7 DUP3 ADD SLOAD PUSH1 0x60 DUP3 ADD MSTORE PUSH1 0x8 SWAP1 SWAP2 ADD SLOAD PUSH1 0xFF AND ISZERO ISZERO PUSH1 0x80 SWAP1 SWAP2 ADD MSTORE SWAP5 SWAP4 POP POP POP POP JUMP JUMPDEST PUSH2 0x1F52 PUSH2 0x2154 JUMP JUMPDEST PUSH1 0x1 PUSH1 0x1 PUSH1 0xA0 SHL SUB DUP2 AND PUSH2 0x1F7C JUMPI PUSH1 0x40 MLOAD PUSH4 0x1E4FBDF7 PUSH1 0xE0 SHL DUP2 MSTORE PUSH1 0x0 PUSH1 0x4 DUP3 ADD MSTORE PUSH1 0x24 ADD PUSH2 0x757 JUMP JUMPDEST PUSH2 0x1CB4 DUP2 PUSH2 0x24C1 JUMP JUMPDEST PUSH1 0x0 DUP3 DUP2 MSTORE PUSH1 0x2 PUSH1 0x20 SWAP1 DUP2 MSTORE PUSH1 0x40 DUP1 DUP4 KECCAK256 PUSH1 0x7 SWAP1 SWAP3 MSTORE DUP3 KECCAK256 DUP1 SLOAD DUP4 SUB PUSH2 0x1FB0 JUMPI PUSH1 0x0 SWAP3 POP POP POP PUSH2 0x70C JUMP JUMPDEST PUSH1 0x0 DUP6 DUP2 MSTORE PUSH1 0x4 PUSH1 0x20 SWAP1 DUP2 MSTORE PUSH1 0x40 DUP1 DUP4 KECCAK256 DUP8 DUP5 MSTORE SWAP1 SWAP2 MSTORE DUP2 KECCAK256 PUSH1 0x6 DUP2 ADD SLOAD SWAP1 SWAP2 PUSH1 0x0 NOT SWAP1 DUP1 DUP1 JUMPDEST DUP7 SLOAD DUP2 LT ISZERO PUSH2 0x209D JUMPI PUSH1 0x0 DUP12 DUP2 MSTORE PUSH1 0x4 PUSH1 0x20 MSTORE PUSH1 0x40 DUP2 KECCAK256 DUP9 SLOAD DUP3 SWAP1 DUP11 SWAP1 DUP6 SWAP1 DUP2 LT PUSH2 0x2004 JUMPI PUSH2 0x2004 PUSH2 0x2D06 JUMP JUMPDEST SWAP1 PUSH1 0x0 MSTORE PUSH1 0x20 PUSH1 0x0 KECCAK256 ADD SLOAD DUP2 MSTORE PUSH1 0x20 ADD SWAP1 DUP2 MSTORE PUSH1 0x20 ADD PUSH1 0x0 KECCAK256 PUSH1 0x6 ADD SLOAD SWAP1 POP DUP6 DUP2 SUB PUSH2 0x208A JUMPI PUSH1 0x0 NOT DUP6 SUB PUSH2 0x2037 JUMPI DUP2 SWAP5 POP JUMPDEST DUP4 PUSH2 0x2041 DUP2 PUSH2 0x2D32 JUMP JUMPDEST SWAP5 POP POP DUP2 PUSH1 0x0 SUB PUSH2 0x205F JUMPI PUSH2 0x2058 PUSH2 0x1388 DUP5 PUSH2 0x2EBB JUMP JUMPDEST SWAP3 POP PUSH2 0x208A JUMP JUMPDEST DUP2 PUSH1 0x1 SUB PUSH2 0x2073 JUMPI PUSH2 0x2058 PUSH2 0xBB8 DUP5 PUSH2 0x2EBB JUMP JUMPDEST DUP2 PUSH1 0x2 SUB PUSH2 0x208A JUMPI PUSH2 0x2087 PUSH2 0x7D0 DUP5 PUSH2 0x2EBB JUMP JUMPDEST SWAP3 POP JUMPDEST POP DUP1 PUSH2 0x2095 DUP2 PUSH2 0x2D32 JUMP JUMPDEST SWAP2 POP POP PUSH2 0x1FD7 JUMP JUMPDEST POP PUSH1 0x0 NOT DUP4 SUB PUSH2 0x20B7 JUMPI PUSH1 0x0 SWAP8 POP POP POP POP POP POP POP POP PUSH2 0x70C JUMP JUMPDEST PUSH1 0x0 DUP1 JUMPDEST DUP8 SLOAD DUP2 LT ISZERO PUSH2 0x2102 JUMPI DUP11 DUP9 DUP3 DUP2 SLOAD DUP2 LT PUSH2 0x20D7 JUMPI PUSH2 0x20D7 PUSH2 0x2D06 JUMP JUMPDEST SWAP1 PUSH1 0x0 MSTORE PUSH1 0x20 PUSH1 0x0 KECCAK256 ADD SLOAD SUB PUSH2 0x20F0 JUMPI PUSH1 0x1 SWAP2 POP PUSH2 0x2102 JUMP JUMPDEST DUP1 PUSH2 0x20FA DUP2 PUSH2 0x2D32 JUMP JUMPDEST SWAP2 POP POP PUSH2 0x20BB JUMP JUMPDEST POP DUP1 PUSH2 0x2119 JUMPI PUSH1 0x0 SWAP9 POP POP POP POP POP POP POP POP POP PUSH2 0x70C JUMP JUMPDEST PUSH1 0x0 PUSH2 0x2710 DUP4 DUP11 PUSH1 0x5 ADD SLOAD PUSH2 0x212E SWAP2 SWAP1 PUSH2 0x2D4B JUMP JUMPDEST PUSH2 0x2138 SWAP2 SWAP1 PUSH2 0x2D62 JUMP JUMPDEST SWAP1 POP PUSH2 0x2144 DUP5 DUP3 PUSH2 0x2D62 JUMP JUMPDEST SWAP13 SWAP12 POP POP POP POP POP POP POP POP POP POP POP POP JUMP JUMPDEST PUSH1 0x0 SLOAD PUSH1 0x1 PUSH1 0x1 PUSH1 0xA0 SHL SUB AND CALLER EQ PUSH2 0xDC1 JUMPI PUSH1 0x40 MLOAD PUSH4 0x118CDAA7 PUSH1 0xE0 SHL DUP2 MSTORE CALLER PUSH1 0x4 DUP3 ADD MSTORE PUSH1 0x24 ADD PUSH2 0x757 JUMP JUMPDEST PUSH1 0x60 PUSH1 0x0 DUP3 PUSH8 0xFFFFFFFFFFFFFFFF DUP2 GT ISZERO PUSH2 0x219E JUMPI PUSH2 0x219E PUSH2 0x2D97 JUMP JUMPDEST PUSH1 0x40 MLOAD SWAP1 DUP1 DUP3 MSTORE DUP1 PUSH1 0x20 MUL PUSH1 0x20 ADD DUP3 ADD PUSH1 0x40 MSTORE DUP1 ISZERO PUSH2 0x21C7 JUMPI DUP2 PUSH1 0x20 ADD PUSH1 0x20 DUP3 MUL DUP1 CALLDATASIZE DUP4 CALLDATACOPY ADD SWAP1 POP JUMPDEST POP SWAP1 POP PUSH1 0x1 JUMPDEST DUP4 DUP2 GT PUSH2 0x220E JUMPI DUP1 DUP3 PUSH2 0x21E1 PUSH1 0x1 DUP4 PUSH2 0x2D84 JUMP JUMPDEST DUP2 MLOAD DUP2 LT PUSH2 0x21F1 JUMPI PUSH2 0x21F1 PUSH2 0x2D06 JUMP JUMPDEST PUSH1 0x20 SWAP1 DUP2 MUL SWAP2 SWAP1 SWAP2 ADD ADD MSTORE DUP1 PUSH2 0x2206 DUP2 PUSH2 0x2D32 JUMP JUMPDEST SWAP2 POP POP PUSH2 0x21CD JUMP JUMPDEST POP PUSH1 0x0 JUMPDEST PUSH2 0x221D PUSH1 0x1 DUP6 PUSH2 0x2D84 JUMP JUMPDEST DUP2 LT ISZERO PUSH2 0x237A JUMPI PUSH1 0x0 JUMPDEST PUSH1 0x1 PUSH2 0x2233 DUP4 DUP8 PUSH2 0x2D84 JUMP JUMPDEST PUSH2 0x223D SWAP2 SWAP1 PUSH2 0x2D84 JUMP JUMPDEST DUP2 LT ISZERO PUSH2 0x2367 JUMPI PUSH1 0x0 DUP7 DUP2 MSTORE PUSH1 0x4 PUSH1 0x20 MSTORE PUSH1 0x40 DUP2 KECCAK256 SWAP1 DUP5 PUSH2 0x225F DUP5 PUSH1 0x1 PUSH2 0x2EBB JUMP JUMPDEST DUP2 MLOAD DUP2 LT PUSH2 0x226F JUMPI PUSH2 0x226F PUSH2 0x2D06 JUMP JUMPDEST PUSH1 0x20 MUL PUSH1 0x20 ADD ADD MLOAD DUP2 MSTORE PUSH1 0x20 ADD SWAP1 DUP2 MSTORE PUSH1 0x20 ADD PUSH1 0x0 KECCAK256 PUSH1 0x6 ADD SLOAD PUSH1 0x4 PUSH1 0x0 DUP9 DUP2 MSTORE PUSH1 0x20 ADD SWAP1 DUP2 MSTORE PUSH1 0x20 ADD PUSH1 0x0 KECCAK256 PUSH1 0x0 DUP6 DUP5 DUP2 MLOAD DUP2 LT PUSH2 0x22B0 JUMPI PUSH2 0x22B0 PUSH2 0x2D06 JUMP JUMPDEST PUSH1 0x20 MUL PUSH1 0x20 ADD ADD MLOAD DUP2 MSTORE PUSH1 0x20 ADD SWAP1 DUP2 MSTORE PUSH1 0x20 ADD PUSH1 0x0 KECCAK256 PUSH1 0x6 ADD SLOAD LT ISZERO PUSH2 0x2355 JUMPI DUP3 PUSH2 0x22DC DUP3 PUSH1 0x1 PUSH2 0x2EBB JUMP JUMPDEST DUP2 MLOAD DUP2 LT PUSH2 0x22EC JUMPI PUSH2 0x22EC PUSH2 0x2D06 JUMP JUMPDEST PUSH1 0x20 MUL PUSH1 0x20 ADD ADD MLOAD DUP4 DUP3 DUP2 MLOAD DUP2 LT PUSH2 0x2306 JUMPI PUSH2 0x2306 PUSH2 0x2D06 JUMP JUMPDEST PUSH1 0x20 MUL PUSH1 0x20 ADD ADD MLOAD DUP5 DUP4 DUP2 MLOAD DUP2 LT PUSH2 0x2320 JUMPI PUSH2 0x2320 PUSH2 0x2D06 JUMP JUMPDEST PUSH1 0x20 MUL PUSH1 0x20 ADD ADD DUP6 DUP5 PUSH1 0x1 PUSH2 0x2335 SWAP2 SWAP1 PUSH2 0x2EBB JUMP JUMPDEST DUP2 MLOAD DUP2 LT PUSH2 0x2345 JUMPI PUSH2 0x2345 PUSH2 0x2D06 JUMP JUMPDEST PUSH1 0x20 SWAP1 DUP2 MUL SWAP2 SWAP1 SWAP2 ADD ADD SWAP2 SWAP1 SWAP2 MSTORE MSTORE JUMPDEST DUP1 PUSH2 0x235F DUP2 PUSH2 0x2D32 JUMP JUMPDEST SWAP2 POP POP PUSH2 0x2227 JUMP JUMPDEST POP DUP1 PUSH2 0x2372 DUP2 PUSH2 0x2D32 JUMP JUMPDEST SWAP2 POP POP PUSH2 0x2212 JUMP JUMPDEST POP SWAP4 SWAP3 POP POP POP JUMP JUMPDEST PUSH1 0x60 DUP2 MLOAD PUSH1 0x0 SUB PUSH2 0x23A2 JUMPI POP PUSH1 0x40 DUP1 MLOAD PUSH1 0x0 DUP2 MSTORE PUSH1 0x20 DUP2 ADD SWAP1 SWAP2 MSTORE PUSH2 0x70C JUMP JUMPDEST PUSH1 0x0 PUSH1 0x3 DUP4 MLOAD LT PUSH2 0x23B4 JUMPI PUSH1 0x3 PUSH2 0x23B7 JUMP JUMPDEST DUP3 MLOAD JUMPDEST SWAP1 POP PUSH1 0x0 DUP2 PUSH8 0xFFFFFFFFFFFFFFFF DUP2 GT ISZERO PUSH2 0x23D4 JUMPI PUSH2 0x23D4 PUSH2 0x2D97 JUMP JUMPDEST PUSH1 0x40 MLOAD SWAP1 DUP1 DUP3 MSTORE DUP1 PUSH1 0x20 MUL PUSH1 0x20 ADD DUP3 ADD PUSH1 0x40 MSTORE DUP1 ISZERO PUSH2 0x23FD JUMPI DUP2 PUSH1 0x20 ADD PUSH1 0x20 DUP3 MUL DUP1 CALLDATASIZE DUP4 CALLDATACOPY ADD SWAP1 POP JUMPDEST POP SWAP1 POP PUSH1 0x0 JUMPDEST DUP3 DUP2 LT ISZERO PUSH2 0x2454 JUMPI DUP5 DUP2 DUP2 MLOAD DUP2 LT PUSH2 0x241D JUMPI PUSH2 0x241D PUSH2 0x2D06 JUMP JUMPDEST PUSH1 0x20 MUL PUSH1 0x20 ADD ADD MLOAD DUP3 DUP3 DUP2 MLOAD DUP2 LT PUSH2 0x2437 JUMPI PUSH2 0x2437 PUSH2 0x2D06 JUMP JUMPDEST PUSH1 0x20 SWAP1 DUP2 MUL SWAP2 SWAP1 SWAP2 ADD ADD MSTORE DUP1 PUSH2 0x244C DUP2 PUSH2 0x2D32 JUMP JUMPDEST SWAP2 POP POP PUSH2 0x2403 JUMP JUMPDEST POP SWAP5 SWAP4 POP POP POP POP JUMP JUMPDEST PUSH1 0x40 MLOAD PUSH1 0x1 PUSH1 0x1 PUSH1 0xA0 SHL SUB DUP4 DUP2 AND PUSH1 0x24 DUP4 ADD MSTORE PUSH1 0x44 DUP3 ADD DUP4 SWAP1 MSTORE PUSH2 0x24BC SWAP2 DUP6 SWAP2 DUP3 AND SWAP1 PUSH4 0xA9059CBB SWAP1 PUSH1 0x64 ADD JUMPDEST PUSH1 0x40 MLOAD PUSH1 0x20 DUP2 DUP4 SUB SUB DUP2 MSTORE SWAP1 PUSH1 0x40 MSTORE SWAP2 POP PUSH1 0xE0 SHL PUSH1 0x20 DUP3 ADD DUP1 MLOAD PUSH1 0x1 PUSH1 0x1 PUSH1 0xE0 SHL SUB DUP4 DUP2 DUP4 AND OR DUP4 MSTORE POP POP POP POP PUSH2 0x257A JUMP JUMPDEST POP POP POP JUMP JUMPDEST PUSH1 0x0 DUP1 SLOAD PUSH1 0x1 PUSH1 0x1 PUSH1 0xA0 SHL SUB DUP4 DUP2 AND PUSH1 0x1 PUSH1 0x1 PUSH1 0xA0 SHL SUB NOT DUP4 AND DUP2 OR DUP5 SSTORE PUSH1 0x40 MLOAD SWAP2 SWAP1 SWAP3 AND SWAP3 DUP4 SWAP2 PUSH32 0x8BE0079C531659141344CD1FD0A4F28419497F9722A3DAAFE3B4186F6B6457E0 SWAP2 SWAP1 LOG3 POP POP JUMP JUMPDEST PUSH1 0x2 PUSH1 0x1 SLOAD SUB PUSH2 0x2534 JUMPI PUSH1 0x40 MLOAD PUSH4 0x3EE5AEB5 PUSH1 0xE0 SHL DUP2 MSTORE PUSH1 0x4 ADD PUSH1 0x40 MLOAD DUP1 SWAP2 SUB SWAP1 REVERT JUMPDEST PUSH1 0x2 PUSH1 0x1 SSTORE JUMP JUMPDEST PUSH1 0x40 MLOAD PUSH1 0x1 PUSH1 0x1 PUSH1 0xA0 SHL SUB DUP5 DUP2 AND PUSH1 0x24 DUP4 ADD MSTORE DUP4 DUP2 AND PUSH1 0x44 DUP4 ADD MSTORE PUSH1 0x64 DUP3 ADD DUP4 SWAP1 MSTORE PUSH2 0x2574 SWAP2 DUP7 SWAP2 DUP3 AND SWAP1 PUSH4 0x23B872DD SWAP1 PUSH1 0x84 ADD PUSH2 0x248A JUMP JUMPDEST POP POP POP POP JUMP JUMPDEST PUSH1 0x0 DUP1 PUSH1 0x20 PUSH1 0x0 DUP5 MLOAD PUSH1 0x20 DUP7 ADD PUSH1 0x0 DUP9 GAS CALL DUP1 PUSH2 0x259D JUMPI PUSH1 0x40 MLOAD RETURNDATASIZE PUSH1 0x0 DUP3 RETURNDATACOPY RETURNDATASIZE DUP2 REVERT JUMPDEST POP POP PUSH1 0x0 MLOAD RETURNDATASIZE SWAP2 POP DUP2 ISZERO PUSH2 0x25B5 JUMPI DUP1 PUSH1 0x1 EQ ISZERO PUSH2 0x25C2 JUMP JUMPDEST PUSH1 0x1 PUSH1 0x1 PUSH1 0xA0 SHL SUB DUP5 AND EXTCODESIZE ISZERO JUMPDEST ISZERO PUSH2 0x2574 JUMPI PUSH1 0x40 MLOAD PUSH4 0x5274AFE7 PUSH1 0xE0 SHL DUP2 MSTORE PUSH1 0x1 PUSH1 0x1 PUSH1 0xA0 SHL SUB DUP6 AND PUSH1 0x4 DUP3 ADD MSTORE PUSH1 0x24 ADD PUSH2 0x757 JUMP JUMPDEST DUP3 DUP1 SLOAD DUP3 DUP3 SSTORE SWAP1 PUSH1 0x0 MSTORE PUSH1 0x20 PUSH1 0x0 KECCAK256 SWAP1 DUP2 ADD SWAP3 DUP3 ISZERO PUSH2 0x2626 JUMPI SWAP2 PUSH1 0x20 MUL DUP3 ADD JUMPDEST DUP3 DUP2 GT ISZERO PUSH2 0x2626 JUMPI DUP3 MLOAD DUP3 SSTORE SWAP2 PUSH1 0x20 ADD SWAP2 SWAP1 PUSH1 0x1 ADD SWAP1 PUSH2 0x260B JUMP JUMPDEST POP PUSH2 0x2632 SWAP3 SWAP2 POP PUSH2 0x268D JUMP JUMPDEST POP SWAP1 JUMP JUMPDEST PUSH1 0x40 MLOAD DUP1 PUSH2 0x120 ADD PUSH1 0x40 MSTORE DUP1 PUSH1 0x0 PUSH1 0x1 PUSH1 0x1 PUSH1 0xA0 SHL SUB AND DUP2 MSTORE PUSH1 0x20 ADD PUSH1 0x0 DUP2 MSTORE PUSH1 0x20 ADD PUSH1 0x60 DUP2 MSTORE PUSH1 0x20 ADD PUSH1 0x60 DUP2 MSTORE PUSH1 0x20 ADD PUSH1 0x60 DUP2 MSTORE PUSH1 0x20 ADD PUSH1 0x0 DUP2 MSTORE PUSH1 0x20 ADD PUSH1 0x0 DUP2 MSTORE PUSH1 0x20 ADD PUSH1 0x0 DUP2 MSTORE PUSH1 0x20 ADD PUSH1 0x0 ISZERO ISZERO DUP2 MSTORE POP SWAP1 JUMP JUMPDEST JUMPDEST DUP1 DUP3 GT ISZERO PUSH2 0x2632 JUMPI PUSH1 0x0 DUP2 SSTORE PUSH1 0x1 ADD PUSH2 0x268E JUMP JUMPDEST DUP1 CALLDATALOAD PUSH1 0x1 PUSH1 0x1 PUSH1 0xA0 SHL SUB DUP2 AND DUP2 EQ PUSH2 0x26B9 JUMPI PUSH1 0x0 DUP1 REVERT JUMPDEST SWAP2 SWAP1 POP JUMP JUMPDEST PUSH1 0x0 DUP1 PUSH1 0x40 DUP4 DUP6 SUB SLT ISZERO PUSH2 0x26D1 JUMPI PUSH1 0x0 DUP1 REVERT JUMPDEST PUSH2 0x26DA DUP4 PUSH2 0x26A2 JUMP JUMPDEST SWAP5 PUSH1 0x20 SWAP4 SWAP1 SWAP4 ADD CALLDATALOAD SWAP4 POP POP POP JUMP JUMPDEST PUSH1 0x0 PUSH1 0x20 DUP3 DUP5 SUB SLT ISZERO PUSH2 0x26FA JUMPI PUSH1 0x0 DUP1 REVERT JUMPDEST POP CALLDATALOAD SWAP2 SWAP1 POP JUMP JUMPDEST PUSH1 0x0 DUP1 PUSH1 0x40 DUP4 DUP6 SUB SLT ISZERO PUSH2 0x2714 JUMPI PUSH1 0x0 DUP1 REVERT JUMPDEST POP POP DUP1 CALLDATALOAD SWAP3 PUSH1 0x20 SWAP1 SWAP2 ADD CALLDATALOAD SWAP2 POP JUMP JUMPDEST PUSH1 0x0 DUP2 MLOAD DUP1 DUP5 MSTORE PUSH1 0x0 JUMPDEST DUP2 DUP2 LT ISZERO PUSH2 0x2749 JUMPI PUSH1 0x20 DUP2 DUP6 ADD DUP2 ADD MLOAD DUP7 DUP4 ADD DUP3 ADD MSTORE ADD PUSH2 0x272D JUMP JUMPDEST POP PUSH1 0x0 PUSH1 0x20 DUP3 DUP7 ADD ADD MSTORE PUSH1 0x20 PUSH1 0x1F NOT PUSH1 0x1F DUP4 ADD AND DUP6 ADD ADD SWAP2 POP POP SWAP3 SWAP2 POP POP JUMP JUMPDEST PUSH1 0x1 PUSH1 0x1 PUSH1 0xA0 SHL SUB DUP11 AND DUP2 MSTORE PUSH1 0x20 DUP2 ADD DUP10 SWAP1 MSTORE PUSH2 0x120 PUSH1 0x40 DUP3 ADD DUP2 SWAP1 MSTORE PUSH1 0x0 SWAP1 PUSH2 0x2795 DUP4 DUP3 ADD DUP12 PUSH2 0x2723 JUMP JUMPDEST SWAP1 POP DUP3 DUP2 SUB PUSH1 0x60 DUP5 ADD MSTORE PUSH2 0x27A9 DUP2 DUP11 PUSH2 0x2723 JUMP JUMPDEST SWAP1 POP DUP3 DUP2 SUB PUSH1 0x80 DUP5 ADD MSTORE PUSH2 0x27BD DUP2 DUP10 PUSH2 0x2723 JUMP JUMPDEST SWAP2 POP POP DUP6 PUSH1 0xA0 DUP4 ADD MSTORE DUP5 PUSH1 0xC0 DUP4 ADD MSTORE DUP4 PUSH1 0xE0 DUP4 ADD MSTORE DUP3 ISZERO ISZERO PUSH2 0x100 DUP4 ADD MSTORE SWAP11 SWAP10 POP POP POP POP POP POP POP POP POP POP JUMP JUMPDEST PUSH1 0x0 DUP1 DUP4 PUSH1 0x1F DUP5 ADD SLT PUSH2 0x27FB JUMPI PUSH1 0x0 DUP1 REVERT JUMPDEST POP DUP2 CALLDATALOAD PUSH8 0xFFFFFFFFFFFFFFFF DUP2 GT ISZERO PUSH2 0x2813 JUMPI PUSH1 0x0 DUP1 REVERT JUMPDEST PUSH1 0x20 DUP4 ADD SWAP2 POP DUP4 PUSH1 0x20 DUP3 PUSH1 0x5 SHL DUP6 ADD ADD GT ISZERO PUSH2 0x282E JUMPI PUSH1 0x0 DUP1 REVERT JUMPDEST SWAP3 POP SWAP3 SWAP1 POP JUMP JUMPDEST PUSH1 0x0 DUP1 PUSH1 0x0 DUP1 PUSH1 0x0 PUSH1 0x60 DUP7 DUP9 SUB SLT ISZERO PUSH2 0x284D JUMPI PUSH1 0x0 DUP1 REVERT JUMPDEST DUP6 CALLDATALOAD SWAP5 POP PUSH1 0x20 DUP7 ADD CALLDATALOAD PUSH8 0xFFFFFFFFFFFFFFFF DUP1 DUP3 GT ISZERO PUSH2 0x286C JUMPI PUSH1 0x0 DUP1 REVERT JUMPDEST PUSH2 0x2878 DUP10 DUP4 DUP11 ADD PUSH2 0x27E9 JUMP JUMPDEST SWAP1 SWAP7 POP SWAP5 POP PUSH1 0x40 DUP9 ADD CALLDATALOAD SWAP2 POP DUP1 DUP3 GT ISZERO PUSH2 0x2891 JUMPI PUSH1 0x0 DUP1 REVERT JUMPDEST POP PUSH2 0x289E DUP9 DUP3 DUP10 ADD PUSH2 0x27E9 JUMP JUMPDEST SWAP7 SWAP10 SWAP6 SWAP9 POP SWAP4 SWAP7 POP SWAP3 SWAP5 SWAP4 SWAP3 POP POP POP JUMP JUMPDEST PUSH1 0x20 DUP1 DUP3 MSTORE DUP3 MLOAD DUP3 DUP3 ADD DUP2 SWAP1 MSTORE PUSH1 0x0 SWAP2 SWAP1 DUP5 DUP3 ADD SWAP1 PUSH1 0x40 DUP6 ADD SWAP1 DUP5 JUMPDEST DUP2 DUP2 LT ISZERO PUSH2 0x28E7 JUMPI DUP4 MLOAD DUP4 MSTORE SWAP3 DUP5 ADD SWAP3 SWAP2 DUP5 ADD SWAP2 PUSH1 0x1 ADD PUSH2 0x28CB JUMP JUMPDEST POP SWAP1 SWAP7 SWAP6 POP POP POP POP POP POP JUMP JUMPDEST PUSH1 0x0 DUP1 DUP4 PUSH1 0x1F DUP5 ADD SLT PUSH2 0x2905 JUMPI PUSH1 0x0 DUP1 REVERT JUMPDEST POP DUP2 CALLDATALOAD PUSH8 0xFFFFFFFFFFFFFFFF DUP2 GT ISZERO PUSH2 0x291D JUMPI PUSH1 0x0 DUP1 REVERT JUMPDEST PUSH1 0x20 DUP4 ADD SWAP2 POP DUP4 PUSH1 0x20 DUP3 DUP6 ADD ADD GT ISZERO PUSH2 0x282E JUMPI PUSH1 0x0 DUP1 REVERT JUMPDEST PUSH1 0x0 DUP1 PUSH1 0x0 PUSH1 0x40 DUP5 DUP7 SUB SLT ISZERO PUSH2 0x294A JUMPI PUSH1 0x0 DUP1 REVERT JUMPDEST DUP4 CALLDATALOAD SWAP3 POP PUSH1 0x20 DUP5 ADD CALLDATALOAD PUSH8 0xFFFFFFFFFFFFFFFF DUP2 GT ISZERO PUSH2 0x2968 JUMPI PUSH1 0x0 DUP1 REVERT JUMPDEST PUSH2 0x2974 DUP7 DUP3 DUP8 ADD PUSH2 0x28F3 JUMP JUMPDEST SWAP5 SWAP8 SWAP1 SWAP7 POP SWAP4 SWAP5 POP POP POP POP JUMP JUMPDEST PUSH1 0x20 DUP2 MSTORE PUSH1 0x0 PUSH2 0x709 PUSH1 0x20 DUP4 ADD DUP5 PUSH2 0x2723 JUMP JUMPDEST PUSH1 0x0 DUP1 PUSH1 0x0 DUP1 PUSH1 0x0 DUP1 PUSH1 0x80 DUP8 DUP10 SUB SLT ISZERO PUSH2 0x29AD JUMPI PUSH1 0x0 DUP1 REVERT JUMPDEST DUP7 CALLDATALOAD SWAP6 POP PUSH1 0x20 DUP8 ADD CALLDATALOAD PUSH8 0xFFFFFFFFFFFFFFFF DUP1 DUP3 GT ISZERO PUSH2 0x29CC JUMPI PUSH1 0x0 DUP1 REVERT JUMPDEST PUSH2 0x29D8 DUP11 DUP4 DUP12 ADD PUSH2 0x28F3 JUMP JUMPDEST SWAP1 SWAP8 POP SWAP6 POP PUSH1 0x40 DUP10 ADD CALLDATALOAD SWAP2 POP DUP1 DUP3 GT ISZERO PUSH2 0x29F1 JUMPI PUSH1 0x0 DUP1 REVERT JUMPDEST POP PUSH2 0x29FE DUP10 DUP3 DUP11 ADD PUSH2 0x28F3 JUMP JUMPDEST SWAP8 SWAP11 SWAP7 SWAP10 POP SWAP5 SWAP8 SWAP5 SWAP7 SWAP6 PUSH1 0x60 SWAP1 SWAP6 ADD CALLDATALOAD SWAP5 SWAP4 POP POP POP POP JUMP JUMPDEST PUSH1 0x20 DUP2 MSTORE DUP2 MLOAD PUSH1 0x20 DUP3 ADD MSTORE PUSH1 0x0 PUSH1 0x20 DUP4 ADD MLOAD PUSH2 0x1A0 DUP1 PUSH1 0x40 DUP6 ADD MSTORE PUSH2 0x2A3F PUSH2 0x1C0 DUP6 ADD DUP4 PUSH2 0x2723 JUMP JUMPDEST SWAP2 POP PUSH1 0x40 DUP6 ADD MLOAD PUSH1 0x1F NOT DUP6 DUP5 SUB ADD PUSH1 0x60 DUP7 ADD MSTORE PUSH2 0x2A5C DUP4 DUP3 PUSH2 0x2723 JUMP JUMPDEST SWAP3 POP POP PUSH1 0x60 DUP6 ADD MLOAD PUSH1 0x80 DUP6 ADD MSTORE PUSH1 0x80 DUP6 ADD MLOAD PUSH1 0xA0 DUP6 ADD MSTORE PUSH1 0xA0 DUP6 ADD MLOAD PUSH1 0xC0 DUP6 ADD MSTORE PUSH1 0xC0 DUP6 ADD MLOAD PUSH1 0xE0 DUP6 ADD MSTORE PUSH1 0xE0 DUP6 ADD MLOAD PUSH2 0x100 DUP2 DUP2 DUP8 ADD MSTORE DUP1 DUP8 ADD MLOAD SWAP2 POP POP PUSH2 0x120 DUP2 DUP2 DUP8 ADD MSTORE DUP1 DUP8 ADD MLOAD SWAP2 POP POP PUSH2 0x140 DUP2 DUP2 DUP8 ADD MSTORE DUP1 DUP8 ADD MLOAD SWAP2 POP POP PUSH2 0x160 PUSH2 0x2AC9 DUP2 DUP8 ADD DUP4 ISZERO ISZERO SWAP1 MSTORE JUMP JUMPDEST DUP7 ADD MLOAD SWAP1 POP PUSH2 0x180 PUSH2 0x2ADE DUP7 DUP3 ADD DUP4 ISZERO ISZERO SWAP1 MSTORE JUMP JUMPDEST SWAP6 SWAP1 SWAP6 ADD MLOAD SWAP4 ADD SWAP3 SWAP1 SWAP3 MSTORE POP SWAP2 SWAP1 POP JUMP JUMPDEST PUSH1 0x20 DUP2 MSTORE PUSH2 0x2B09 PUSH1 0x20 DUP3 ADD DUP4 MLOAD PUSH1 0x1 PUSH1 0x1 PUSH1 0xA0 SHL SUB AND SWAP1 MSTORE JUMP JUMPDEST PUSH1 0x20 DUP3 ADD MLOAD PUSH1 0x40 DUP3 ADD MSTORE PUSH1 0x0 PUSH1 0x40 DUP4 ADD MLOAD PUSH2 0x120 DUP1 PUSH1 0x60 DUP6 ADD MSTORE PUSH2 0x2B31 PUSH2 0x140 DUP6 ADD DUP4 PUSH2 0x2723 JUMP JUMPDEST SWAP2 POP PUSH1 0x60 DUP6 ADD MLOAD PUSH1 0x1F NOT DUP1 DUP7 DUP6 SUB ADD PUSH1 0x80 DUP8 ADD MSTORE PUSH2 0x2B4F DUP5 DUP4 PUSH2 0x2723 JUMP JUMPDEST SWAP4 POP PUSH1 0x80 DUP8 ADD MLOAD SWAP2 POP DUP1 DUP7 DUP6 SUB ADD PUSH1 0xA0 DUP8 ADD MSTORE POP PUSH2 0x2B6D DUP4 DUP3 PUSH2 0x2723 JUMP JUMPDEST SWAP3 POP POP PUSH1 0xA0 DUP6 ADD MLOAD PUSH1 0xC0 DUP6 ADD MSTORE PUSH1 0xC0 DUP6 ADD MLOAD PUSH1 0xE0 DUP6 ADD MSTORE PUSH1 0xE0 DUP6 ADD MLOAD PUSH2 0x100 DUP2 DUP2 DUP8 ADD MSTORE DUP1 DUP8 ADD MLOAD SWAP2 POP POP PUSH2 0x2BA5 DUP3 DUP7 ADD DUP3 ISZERO ISZERO SWAP1 MSTORE JUMP JUMPDEST POP SWAP1 SWAP5 SWAP4 POP POP POP POP JUMP JUMPDEST DUP14 DUP2 MSTORE PUSH2 0x1A0 PUSH1 0x20 DUP3 ADD MSTORE PUSH1 0x0 PUSH2 0x2BCA PUSH2 0x1A0 DUP4 ADD DUP16 PUSH2 0x2723 JUMP JUMPDEST DUP3 DUP2 SUB PUSH1 0x40 DUP5 ADD MSTORE PUSH2 0x2BDC DUP2 DUP16 PUSH2 0x2723 JUMP JUMPDEST PUSH1 0x60 DUP5 ADD SWAP14 SWAP1 SWAP14 MSTORE POP POP PUSH1 0x80 DUP2 ADD SWAP10 SWAP1 SWAP10 MSTORE PUSH1 0xA0 DUP10 ADD SWAP8 SWAP1 SWAP8 MSTORE PUSH1 0xC0 DUP9 ADD SWAP6 SWAP1 SWAP6 MSTORE PUSH1 0xE0 DUP8 ADD SWAP4 SWAP1 SWAP4 MSTORE PUSH2 0x100 DUP7 ADD SWAP2 SWAP1 SWAP2 MSTORE PUSH2 0x120 DUP6 ADD MSTORE ISZERO ISZERO PUSH2 0x140 DUP5 ADD MSTORE ISZERO ISZERO PUSH2 0x160 DUP4 ADD MSTORE PUSH2 0x180 SWAP1 SWAP2 ADD MSTORE SWAP4 SWAP3 POP POP POP JUMP JUMPDEST PUSH1 0x0 DUP1 PUSH1 0x0 DUP1 PUSH1 0x0 DUP1 PUSH1 0x80 DUP8 DUP10 SUB SLT ISZERO PUSH2 0x2C4C JUMPI PUSH1 0x0 DUP1 REVERT JUMPDEST DUP7 CALLDATALOAD PUSH8 0xFFFFFFFFFFFFFFFF DUP1 DUP3 GT ISZERO PUSH2 0x2C64 JUMPI PUSH1 0x0 DUP1 REVERT JUMPDEST PUSH2 0x2C70 DUP11 DUP4 DUP12 ADD PUSH2 0x28F3 JUMP JUMPDEST SWAP1 SWAP9 POP SWAP7 POP PUSH1 0x20 DUP10 ADD CALLDATALOAD SWAP2 POP DUP1 DUP3 GT ISZERO PUSH2 0x2C89 JUMPI PUSH1 0x0 DUP1 REVERT JUMPDEST POP PUSH2 0x2C96 DUP10 DUP3 DUP11 ADD PUSH2 0x28F3 JUMP JUMPDEST SWAP8 SWAP11 SWAP7 SWAP10 POP SWAP8 PUSH1 0x40 DUP2 ADD CALLDATALOAD SWAP7 PUSH1 0x60 SWAP1 SWAP2 ADD CALLDATALOAD SWAP6 POP SWAP4 POP POP POP POP JUMP JUMPDEST PUSH1 0x0 PUSH1 0x20 DUP3 DUP5 SUB SLT ISZERO PUSH2 0x2CC3 JUMPI PUSH1 0x0 DUP1 REVERT JUMPDEST PUSH2 0x709 DUP3 PUSH2 0x26A2 JUMP JUMPDEST PUSH1 0x1 DUP2 DUP2 SHR SWAP1 DUP3 AND DUP1 PUSH2 0x2CE0 JUMPI PUSH1 0x7F DUP3 AND SWAP2 POP JUMPDEST PUSH1 0x20 DUP3 LT DUP2 SUB PUSH2 0x2D00 JUMPI PUSH4 0x4E487B71 PUSH1 0xE0 SHL PUSH1 0x0 MSTORE PUSH1 0x22 PUSH1 0x4 MSTORE PUSH1 0x24 PUSH1 0x0 REVERT JUMPDEST POP SWAP2 SWAP1 POP JUMP JUMPDEST PUSH4 0x4E487B71 PUSH1 0xE0 SHL PUSH1 0x0 MSTORE PUSH1 0x32 PUSH1 0x4 MSTORE PUSH1 0x24 PUSH1 0x0 REVERT JUMPDEST PUSH4 0x4E487B71 PUSH1 0xE0 SHL PUSH1 0x0 MSTORE PUSH1 0x11 PUSH1 0x4 MSTORE PUSH1 0x24 PUSH1 0x0 REVERT JUMPDEST PUSH1 0x0 PUSH1 0x1 DUP3 ADD PUSH2 0x2D44 JUMPI PUSH2 0x2D44 PUSH2 0x2D1C JUMP JUMPDEST POP PUSH1 0x1 ADD SWAP1 JUMP JUMPDEST DUP1 DUP3 MUL DUP2 ISZERO DUP3 DUP3 DIV DUP5 EQ OR PUSH2 0x70C JUMPI PUSH2 0x70C PUSH2 0x2D1C JUMP JUMPDEST PUSH1 0x0 DUP3 PUSH2 0x2D7F JUMPI PUSH4 0x4E487B71 PUSH1 0xE0 SHL PUSH1 0x0 MSTORE PUSH1 0x12 PUSH1 0x4 MSTORE PUSH1 0x24 PUSH1 0x0 REVERT JUMPDEST POP DIV SWAP1 JUMP JUMPDEST DUP2 DUP2 SUB DUP2 DUP2 GT ISZERO PUSH2 0x70C JUMPI PUSH2 0x70C PUSH2 0x2D1C JUMP JUMPDEST PUSH4 0x4E487B71 PUSH1 0xE0 SHL PUSH1 0x0 MSTORE PUSH1 0x41 PUSH1 0x4 MSTORE PUSH1 0x24 PUSH1 0x0 REVERT JUMPDEST PUSH1 0x1F DUP3 GT ISZERO PUSH2 0x24BC JUMPI PUSH1 0x0 DUP2 DUP2 MSTORE PUSH1 0x20 DUP2 KECCAK256 PUSH1 0x1F DUP6 ADD PUSH1 0x5 SHR DUP2 ADD PUSH1 0x20 DUP7 LT ISZERO PUSH2 0x2DD4 JUMPI POP DUP1 JUMPDEST PUSH1 0x1F DUP6 ADD PUSH1 0x5 SHR DUP3 ADD SWAP2 POP JUMPDEST DUP2 DUP2 LT ISZERO PUSH2 0x2DF3 JUMPI DUP3 DUP2 SSTORE PUSH1 0x1 ADD PUSH2 0x2DE0 JUMP JUMPDEST POP POP POP POP POP POP JUMP JUMPDEST PUSH8 0xFFFFFFFFFFFFFFFF DUP4 GT ISZERO PUSH2 0x2E13 JUMPI PUSH2 0x2E13 PUSH2 0x2D97 JUMP JUMPDEST PUSH2 0x2E27 DUP4 PUSH2 0x2E21 DUP4 SLOAD PUSH2 0x2CCC JUMP JUMPDEST DUP4 PUSH2 0x2DAD JUMP JUMPDEST PUSH1 0x0 PUSH1 0x1F DUP5 GT PUSH1 0x1 DUP2 EQ PUSH2 0x2E5B JUMPI PUSH1 0x0 DUP6 ISZERO PUSH2 0x2E43 JUMPI POP DUP4 DUP3 ADD CALLDATALOAD JUMPDEST PUSH1 0x0 NOT PUSH1 0x3 DUP8 SWAP1 SHL SHR NOT AND PUSH1 0x1 DUP7 SWAP1 SHL OR DUP4 SSTORE PUSH2 0xE42 JUMP JUMPDEST PUSH1 0x0 DUP4 DUP2 MSTORE PUSH1 0x20 SWAP1 KECCAK256 PUSH1 0x1F NOT DUP7 AND SWAP1 DUP4 JUMPDEST DUP3 DUP2 LT ISZERO PUSH2 0x2E8C JUMPI DUP7 DUP6 ADD CALLDATALOAD DUP3 SSTORE PUSH1 0x20 SWAP5 DUP6 ADD SWAP5 PUSH1 0x1 SWAP1 SWAP3 ADD SWAP2 ADD PUSH2 0x2E6C JUMP JUMPDEST POP DUP7 DUP3 LT ISZERO PUSH2 0x2EA9 JUMPI PUSH1 0x0 NOT PUSH1 0xF8 DUP9 PUSH1 0x3 SHL AND SHR NOT DUP5 DUP8 ADD CALLDATALOAD AND DUP2 SSTORE JUMPDEST POP POP PUSH1 0x1 DUP6 PUSH1 0x1 SHL ADD DUP4 SSTORE POP POP POP POP POP JUMP JUMPDEST DUP1 DUP3 ADD DUP1 DUP3 GT ISZERO PUSH2 0x70C JUMPI PUSH2 0x70C PUSH2 0x2D1C JUMP JUMPDEST DUP2 MLOAD PUSH8 0xFFFFFFFFFFFFFFFF DUP2 GT ISZERO PUSH2 0x2EE8 JUMPI PUSH2 0x2EE8 PUSH2 0x2D97 JUMP JUMPDEST PUSH2 0x2EFC DUP2 PUSH2 0x2EF6 DUP5 SLOAD PUSH2 0x2CCC JUMP JUMPDEST DUP5 PUSH2 0x2DAD JUMP JUMPDEST PUSH1 0x20 DUP1 PUSH1 0x1F DUP4 GT PUSH1 0x1 DUP2 EQ PUSH2 0x2F31 JUMPI PUSH1 0x0 DUP5 ISZERO PUSH2 0x2F19 JUMPI POP DUP6 DUP4 ADD MLOAD JUMPDEST PUSH1 0x0 NOT PUSH1 0x3 DUP7 SWAP1 SHL SHR NOT AND PUSH1 0x1 DUP6 SWAP1 SHL OR DUP6 SSTORE PUSH2 0x2DF3 JUMP JUMPDEST PUSH1 0x0 DUP6 DUP2 MSTORE PUSH1 0x20 DUP2 KECCAK256 PUSH1 0x1F NOT DUP7 AND SWAP2 JUMPDEST DUP3 DUP2 LT ISZERO PUSH2 0x2F60 JUMPI DUP9 DUP7 ADD MLOAD DUP3 SSTORE SWAP5 DUP5 ADD SWAP5 PUSH1 0x1 SWAP1 SWAP2 ADD SWAP1 DUP5 ADD PUSH2 0x2F41 JUMP JUMPDEST POP DUP6 DUP3 LT ISZERO PUSH2 0x2F7E JUMPI DUP8 DUP6 ADD MLOAD PUSH1 0x0 NOT PUSH1 0x3 DUP9 SWAP1 SHL PUSH1 0xF8 AND SHR NOT AND DUP2 SSTORE JUMPDEST POP POP POP POP POP PUSH1 0x1 SWAP1 DUP2 SHL ADD SWAP1 SSTORE POP JUMP JUMPDEST DUP2 DUP4 MSTORE DUP2 DUP2 PUSH1 0x20 DUP6 ADD CALLDATACOPY POP PUSH1 0x0 DUP3 DUP3 ADD PUSH1 0x20 SWAP1 DUP2 ADD SWAP2 SWAP1 SWAP2 MSTORE PUSH1 0x1F SWAP1 SWAP2 ADD PUSH1 0x1F NOT AND SWAP1 SWAP2 ADD ADD SWAP1 JUMP JUMPDEST PUSH1 0x80 DUP2 MSTORE PUSH1 0x0 PUSH2 0x2FCB PUSH1 0x80 DUP4 ADD DUP9 DUP11 PUSH2 0x2F8E JUMP JUMPDEST DUP3 DUP2 SUB PUSH1 0x20 DUP5 ADD MSTORE PUSH2 0x2FDE DUP2 DUP8 DUP10 PUSH2 0x2F8E JUMP JUMPDEST PUSH1 0x40 DUP5 ADD SWAP6 SWAP1 SWAP6 MSTORE POP POP PUSH1 0x60 ADD MSTORE SWAP5 SWAP4 POP POP POP POP JUMP INVALID LOG2 PUSH5 0x6970667358 0x22 SLT KECCAK256 SWAP11 0xD 0xC0 SHL 0xB2 PUSH9 0x94F22BB4E9EB4C4534 MOD CREATE SLOAD EXTCODEHASH CHAINID JUMPDEST 0xB2 0x5E SDIV 0xE0 0xCF 0x2D 0x4A DUP4 0x1F 0xE PUSH22 0x64736F6C634300081400330000000000000000000000 "},"methodIdentifiers":{"BPS_DENOMINATOR()":"e1a45218","DEFAULT_MIN_STAKE()":"dff3ece9","FIRST_PLACE_BPS()":"a4b9328b","JUDGING_DELAY()":"f7a2d063","PLATFORM_FEE_BPS()":"539aa77f","SECOND_PLACE_BPS()":"97874124","THIRD_PLACE_BPS()":"c03eee32","canStartJudging(uint256)":"5a12ac61","claimPrize(uint256)":"d7098154","contestCount()":"8d4fdb3b","contestEntryCount(uint256)":"173d310b","contestWinners(uint256,uint256)":"363a4d5a","contests(uint256)":"9d7ed738","createContest(string,string,uint256,uint256)":"a595ee3a","entries(uint256,uint256)":"17b937e6","finalizeContest(uint256)":"3a8ef03b","getContest(uint256)":"904b9f72","getContestStatus(uint256)":"74c8a1b8","getEntry(uint256,uint256)":"98ba676d","getEstimatedPrize(uint256,uint256)":"1f3ee005","getUserEntry(address,uint256)":"ed07f1ab","getWinners(uint256)":"6b1426a4","isContestActive(uint256)":"bf5e253f","owner()":"8da5cb5b","renounceOwnership()":"715018a6","submitEntry(uint256,string,string,uint256)":"81ed5405","submitScores(uint256,uint256[],uint256[])":"33e93a22","timeUntilJudging(uint256)":"604daae4","transferOwnership(address)":"f2fde38b","updateVideoHash(uint256,string)":"734ab132","usdc()":"3e413bee","userEntries(address,uint256)":"0b913af0","withdrawPlatformFees(uint256)":"6aa21416"}}}}}